:020000040800F2
:10000000A03F0020CD00000821760008E956000836
:1000100000000000000000000000000000000000E0
:10002000000000000000000000000000C989000876
:10003000000000000000000051780008598A000804
:10004000DF00000800000000117E0008DF0000084B
:10005000DF000008E12F0008093000081D3000080B
:1000600000000000DF000008291E0008051E00082F
:10007000090B0008DF000008DF0000080000000096
:10008000DF000008DF000008DF000008DF000008D4
:10009000DF000008DF000008DF000008DF000008C4
:1000A00009570008DF000008DF0000080595000878
:1000B000DF000008DF0000080348854600F078FCF8
:1000C00000480047ED9A0008A03F00200448804700
:1000D00004480047FEE7FEE7FEE7FEE7FEE7FEE72F
:1000E000AD8B0008B90000080549064A086850436E
:1000F000054A801808604008704701490860704749
:10010000000000206D4EC6413930000010B5431A82
:10011000934209D28318881803E0401E01785B1EC1
:100120001970521EF9D210BD03460B439B0703D032
:1001300009E008C9121F08C0042AFAD203E00B78AC
:100140000370401C491C521EF9D210BDD2B201E00E
:100150000270401C491EFBD270470022F6E710B522
:1001600013460A4604461946FFF7F0FF204610BD25
:1001700010B5044605E00B780370401C002B00D03E
:10018000491C521EF7D2204610BD421C0178401C6B
:100190000029FBD1801A7047F8B502464A40D40FB7
:1001A00042004B0052085B089A4202D202460846BF
:1001B00011464A0023D0C30D4A00DDB2120EAD1A1B
:1001C000202D35DA49020126490AF6058A19002C44
:1001D00000D0524220214F1B1146B9402A4110182D
:1001E000C20D9A4221D0002C17D0012D08DCDA056F
:1001F000801AD20F8019D207DBB200F0ADF9F8BD3A
:10020000DA05801A012340001B06C01880185A42E4
:100210008018CA0F1043490007E04908C20711437C
:10022000DA05801A80194008801800F08DF9F8BDB1
:1002300061000122511A001BF7E70122D207514049
:10024000AAE70122D2075040A6E7024670B54A400D
:10025000D30FDB0740002DD04A002AD0010E140E28
:10026000000212020919400A520A8418E5010446E4
:100270005443000A120A2E045043A4194219200CB8
:10028000C543AA18120C0125AD03521C52191204C1
:100290007F39240400D0521C104301D44000491E71
:1002A000C2B20C06C0092018401C4008802A02D0A7
:1002B00003E0002070BD40084000002900DA002063
:1002C000184370BD70B502464A40D50F40004A0041
:1002D000ED0740085208002814D0002A12D0C40D9F
:1002E000D30D41020120C0055202490A520AE41A04
:1002F000091812187D34914201D3641C00E04900B2
:10030000002C01DA002070BD0023914201D3891A2C
:100310000343400849000028F7D100290AD0914240
:1003200002D10121C90705E0914201D2012101E07A
:100330000121C943E005C018401900F005F970BD5E
:100340000122D207002800DB101A002900DB511A15
:10035000814201D801207047002070470122D20756
:10036000002800DB101A002900DB511A814201D25B
:1003700001207047002070470122D207002800DBCF
:10038000101A002900DB511A814201D30120704765
:10039000002070470122D207002800DB101A002934
:1003A00000DB511A814201D90120704700207047BB
:1003B00010B5002904DB0C460121C9074042A141C8
:1003C000002B04DB1C460123DB075242A341801AA9
:1003D000994101D2012010BD002010BDC217C10FEC
:1003E000504010B54018CA079623002100F0B4F819
:1003F00010BD10B500229623114600F0ADF810BDD7
:10040000C20F410040020123400ADB05D207090E5A
:10041000C0187F2901DA00207047962903DC962353
:10042000591AC84001E096398840002AF4D0404269
:100430007047C20FD207400040080BD0C10D072300
:10044000DB01C91840020905400A1143C2084007F0
:100450001143704700200146704770B504460029DB
:1004600003D000202022012310E0002801D000202A
:10047000C043C046C0460DE02546D5408D4205D359
:100480000D469540641B1D46954040191546521E69
:10049000002DF1DC214670BD70B5002504462E46C6
:1004A000002911D0002C01DA01254442002901DA8B
:1004B000012649422046FFF7D0FFB54200D0404216
:1004C000002D00D0494270BD002C02DA0121C9077D
:1004D00002E0002C00DD03490846C046C046214624
:1004E00070BD0000FFFFFF7FF0B51FB4064600207F
:1004F00082B005464024019100901BE001992246FC
:100500000F46304600F07CFA049A059B801A994108
:1005100010D310461946224600F062FA361A8F416F
:100520000197224601200021009F00F059FA381857
:100530004D4100902046641E0028DFDC019B00989E
:100540002946324607B0F0BD002904DA401C4900B4
:1005500001D140084000704770B40024050C05D15B
:100560001024000402D1002921D01124050E01D14C
:1005700000020834050F01D10001241D850F01D1AF
:100580008000A41C002801DB4000641C002908D066
:1005900020252E1B0D46F540A14000D00121294306
:1005A000084301061B1B000ADB1D02D5002070BC9E
:1005B0007047DB05181880180029F8DA401C49003C
:1005C000F5D170BC40084000704770B5002801DCD0
:1005D000002070BD410040020126400AF605090EC8
:1005E0008019CA0701D14000491E4D100022114652
:1005F0003F353346CB409B18D418844201D8001BAA
:100600001A464000491C1729F3DD5100814202D2ED
:100610000021C94300E00021E8058018FFF794FF9E
:1006200070BD0000F0B507460846584087B0C00FBF
:10063000049048000E46590040084908BC1A8841F9
:1006400005D2384631461E4617460B46024658002C
:10065000400810434CD0300D039040055900400D28
:10066000490D0590401A0290402872DA18030121C2
:10067000000B09050843019004980092002805D05A
:100680000199524200208841009201900298402135
:100690000A1A0199009800F0A3F905460C466B462A
:1006A00007CB00F0BEF9C0197141039A0E0D00236B
:1006B000D71756401A467A40164344D0049A002A67
:1006C0002DD0029A012A039A15DC1205C01A914115
:1006D00001263605001C7141D20F059ED2070093FA
:1006E000019202962A46234600F0BBF907B0F0BDFE
:1006F00038463146FAE71605224A0F46B218C01AA4
:10070000B74101210905001C4F4100187F411146E6
:1007100018187941E20F10436D19644113E0E207A4
:100720006D0815436408C2071443039A0126120595
:10073000C01A91413605001C7141CE074008304374
:100740004908C01851412A46234600F07DF9CDE7FB
:10075000FFE7049801224000C117121A00238B41C1
:1007600004983146C417381AA141EEE730B4012489
:10077000E407634030BC55E730B40124E40761402E
:1007800030BC4FE70000E0FFF0B51FB488B00B9914
:100790000998002448400999C00F49004908099167
:1007A000C0070B990090490049080B9109990898D6
:1007B000A64608431CD00B990A98084318D00998FC
:1007C00001244000420D4800410D09982405000312
:1007D000000B204309900B980003000B20430B9063
:1007E00050181C494018002201901446104605E09C
:1007F000002001460DB0F0BD032801DA034600E0F9
:1008000003239C46C11A0AAE0AE05F0008ADED5B07
:100810004F00F75B7D430027AA187C41491C5B1EF3
:100820006145F2DD410004AB5A522104120C0A4327
:10083000240C401C0828DFDB0198029000997046C8
:1008400001910090059B049A0799069800F009F918
:10085000D0E700000DFCFFFFF0B50C465C4085B012
:10086000E40FE40703944C00002664085900944602
:10087000490802460296224321D062460A431ED00E
:100880006200570D4A000E032303550D0124024652
:100890002C492405781B1B0B360B40182343264399
:1008A000614600901C46501AB44103D30098401C86
:1008B000009002E0921800985B41002803DA0020C3
:1008C000014605B0F0BD0020012109050746864616
:1008D00011E064461D46141BB54106D36546521B04
:1008E000B341744607430C43A646CD074008490868
:1008F000284392185B4105460D43EAD11046184340
:1009000013D06046194650407140084306D06046F7
:10091000101AB34106D20122002306E0002201236F
:10092000DB0702E00122D243531000987446010510
:10093000381C6141029C039D0019694100F084F854
:10094000BFE70000FD0300004A0009030123090B73
:100950001B0519430A4B10B5520D9A4202DA0020CA
:10096000014610BD064B34339A4203DC9A1A00F05C
:1009700047F810BD034BD21800F032F810BD00004C
:10098000FF030000CDFBFFFF10B5002904DB0124AD
:10099000E40740428C412146002B04DB1C46012326
:1009A000DB075242A341994200D1904210BD0000A2
:1009B0001CB5094800900948019005460126009C95
:1009C00005E0E36807CC33430C3C98471034AC4255
:1009D000F7D3FFF775FB00009C240108BC24010835
:1009E00010B5202A04DB0146203A9140002010BDBA
:1009F000914020239C1A0346E3401943904010BDC8
:100A000010B5202A04DB0846203AD040002110BD52
:100A10000B46D340D0402024A21A914008431946E7
:100A200010BD10B5202A06DBCB170846203A10412E
:100A3000C1170B4306E00B461341D0402024A21AF5
:100A400091400843194610BD10B5002B08DA002468
:100A5000401C614192185B411A4301D1400840009B
:100A600010BDF0B51FB482B005460C0003D0084697
:100A70000DF014FA02E00DF011FA20300246009059
:100A800021462846FFF7ACFF049B059A04460F4613
:100A900018431143084314D0184610431BD0009844
:100AA00040210A1A18460599FFF7AAFF05460E4687
:100AB000009A05990498FFF793FF084305D0012099
:100AC00004E02046394607B0F0BD0020C1170543B9
:100AD0000E432C43374300990E986305401A79055D
:100AE000E40A00220C43FD0A0A3002D50020014628
:100AF000E9E70105101969410C9C0D9D0019694138
:100B0000FFF7A2FFDFE7000080B5E04802F03FFCFE
:100B100080BDC046B0B50146806A836D826D5024A9
:100B2000234206D0D20610D4006D426B084690478F
:100B3000B0BD01214B021A4382650268D3681B05D0
:100B40009B0F05D002F020FCB0BD02F01FFCB0BD31
:100B5000837E002BF6D113681B07F3D593685B07E0
:100B60000ED40346583354680C25AC435460FF241C
:100B700002341A68A2430A431A6002F005FCB0BDB1
:100B8000826D20231343836503465C33C26D0A43A1
:100B90001A6002F0F9FBB0BD80B5806A816D402219
:100BA0000A438265C16D04220A43C26502F0EEFB6E
:100BB00080BD80B5806A02F0E8FB80BDF0B581B0F1
:100BC00005460024009400688168C9071CD181682B
:100BD0002D4A2F3211420AD0A86D10210143A96578
:100BE000E86D01242043E865204601B0F0BD81682E
:100BF000254A1140012739438160244800680002DA
:100C000005D4687E012825D1204601B0F0BD2048DA
:100C100000682049FFF721FC401C00900098002844
:100C2000EFD00098401E009000980028E9D000986E
:100C3000401E009000980028E3D00098401E0090CD
:100C400000980028DDD00098401E009000980028F1
:100C5000E7D1D6E703F024F9064628680168C907FA
:100C6000D2D18168C90704D18168074A114039434C
:100C7000816003F015F9811B28680329EED3016810
:100C8000C907EBD1A8E7C046E8FFFF7F082701406E
:100C900084000020400D0300F0B581B07A4F387811
:100CA000411C3970042847D179480088FFF7A1FB1F
:100CB0007849FFF7CAFA0446F869FFF79AFB01463C
:100CC0002046FFF7FFFA0446734E7060B869FFF7DD
:100CD00090FB01462046FFF7B8FA704D2946FFF712
:100CE000F1FA6F49FFF758FA6E49FFF7AEFA6E490D
:100CF000FFF752FAB0606D492046FFF7A6FA0646A4
:100D00007869FFF776FB01463046FFF79EFA2946E1
:100D1000FFF7D8FA6649FFF73FFA05466549FFF73E
:100D20001DFB002800D000257D6063480078002866
:100D3000594E1CD0F46827E0394608315348042244
:100D400002F09EFD502008F0FDFE38893969081830
:100D500038617889796908187861B889B96908189B
:100D6000B861F889F9690818F86101B0F0BD38690F
:100D7000FFF73FFB01462046FFF767FA1D214906B2
:100D8000FFF763FA0446F0604C492046FFF7F4FA97
:100D9000411E8841797801430125C80707D17D703C
:100DA000002006F08FFC464802210170F468454996
:100DB0002046FFF7C5FA002801D10020787030786E
:100DC000042851D87844007940008744023911251D
:100DD0000A003D492046FFF7DDFA002846D00125EC
:100DE00043E03F492046FFF7B9FA00283ED011E022
:100DF00037492046FFF7CEFA002805D1354920466D
:100E0000FFF7ACFA002831D032492046FFF7A6FAA6
:100E100000282AD1032528E02F492046FFF7BAFAF7
:100E2000002805D12D492046FFF798FA00281DD04B
:100E30002A492046FFF792FA002822D1042514E01F
:100E400022492046FFF7A6FA002805D11D49204671
:100E5000FFF784FA002809D01A492046FFF78CFAD8
:100E6000411E8841450000E00025357000203861B2
:100E70007861B861F8613870502008F063FE01B005
:100E8000F0BD0225F1E7C04604030020A0220020A7
:100E9000AA75FF1F000040406400002000F07F455D
:100EA0005C8F42BF0000C8430000C8415C8F5A43BA
:100EB000BE9F12C100002041BA0300206666464072
:100EC000480000209A995940CDCC5C409A996940DD
:100ED00000007040666666409A997940CDCC6C40BF
:100EE000666676401920000108F02CFEFFF7D4FE5C
:100EF00008F010FBFAE7B0B500282FD0002B2DD05A
:100F0000049C002C2AD0069D1971186003208004CF
:100F10005862002A03D02079012800D11A6305986D
:100F20001C61002D00D01D620028214601D0836085
:100F300001465961E068002807D021699961CB61B9
:100F40002361E169491CE16105E00021E161E360A1
:100F500023619B611846D861D9608361B0BD10B52B
:100F60000024CC600C610860012048718B610A711B
:100F700010BD00F0B5F87D2084002E2000F000F9AF
:100F8000052008F0DFFD00F07DF8204608F0DAFDCE
:100F900006F044FFF42000F0F3F81A2008F0D2FD28
:100FA00000F006F8204608F0CDFD06F037FFE4E734
:100FB00070B5784CF6202070EE260125304621468B
:100FC0002A4605F069FD03223046214605F0BAFBAA
:100FD00020780004617809020818A178401860613F
:100FE0006069401160611E20205EE1681F4A891817
:100FF0004843C0122A22A25E0B464B431B0B5A43A6
:10100000D2121018C0001C22A25E5201801880105B
:101010006269121A164850432026A65F4E43711388
:101020002826A65F5E433314C918891C8910EB0378
:10103000C918638C4B43D90B002804D40D48504386
:10104000FFF70BFA02E0FFF708FA40000A494143B4
:10105000091402125243094B53431A0C8918084AC7
:10106000891809110818A06170BDC04660F0FFFF23
:101070006A180000D430000043E3FFFFDE0B0000DD
:10108000CF0E0000B0B5434CF6202070EE250122B3
:101090002846214605F000FD02222846214605F09B
:1010A00051FB208840BAA0603020205EE18CA2680D
:1010B000511AA28C4A43D51329182E20205EC00253
:1010C000FFF7EAF92818E06008300009FFF791F906
:1010D0000249FFF7BAF82061B0BDC046CDCCCC3D87
:1010E00070B52C4DD0202870EE24012620462946CC
:1010F000324605F0D1FC291D2046324605F022FB80
:10110000686855283AD1AA202870EE260122304678
:10111000294605F0C1FC2C461C34162230462146D7
:1011200005F010FB687F297F69772877E87FA97F22
:10113000E977A8776079217961712071E079A179E7
:10114000E171A071607A217A61722072E07AA17AED
:10115000E172A072607B217B61732073E07BA17BD5
:10116000E173A073607C217C61742074E07CA17CBD
:10117000E174A074607D217D6175207570BDC046ED
:1011800080B504494870F4200870EE20022205F072
:1011900083FC80BD6401002010B582B001A901204C
:1011A00008707E223E23014606F074FB214800F0C1
:1011B000D5FF0424102120A2204600F063FF1E2149
:1011C00022A2204600F05EFF2C2126A2204600F03D
:1011D00059FF3A2128A2204600F054FF00F07CFF7E
:1011E00008F058FC00280DD100240A2008F0AAFCC1
:1011F00008F050FC002805D1601CFF21F4318C421E
:101200000446F2D301A800F0A3FF0020802240236F
:10121000014600F0FBFE00F05FFF08F03BFC0028F9
:1012200006D10A2008F08EFC08F034FC0028F8D023
:1012300002B010BDB21501084275726E2D696E20A4
:101240007465737420697320666F720066696E64DA
:10125000206F7574206465636179696E67206F66BD
:10126000000000004F4C45442073637265656E209A
:1012700061667465720000006C6F6E672074696D42
:1012800065206C6967687475702E000082B005F087
:1012900045FD0020C443344D344F354E02E00A2052
:1012A00008F050FC05F0D8FC05F03EFD2878002839
:1012B000F5D1002005F0BAFC002809D001A90120D1
:1012C000088038680022234608F00EFD08F048F92F
:1012D000012005F0ABFC00280AD0FF20023001A954
:1012E000088038680022234608F0FEFC08F038F930
:1012F000022005F09BFC002808D001A90E80386868
:101300000022234608F0F0FC08F02AF9032005F03B
:101310008DFC002809D001A91648088038680022F1
:10132000234608F0E1FC08F01BF9042005F07EFCE0
:10133000002809D001A910480880386800222346F7
:1013400008F0D2FC08F00CF9052005F06FFC00282D
:10135000A5D001A90948088038680022234608F072
:10136000C3FC08F0FDF89AE7BA030020B40000209F
:10137000010200000103000001040000010500005B
:10138000F0B589B0EA4C3434EA48012500262146FC
:101390002A4606953346FFF7E2FDE74800942746C4
:1013A00001960290E54802210591E54AE54C234665
:1013B000FFF7A1FD0296E448019000973434E3481A
:1013C000E34A31462346FFF796FDE248DE4C2146CC
:1013D0002A4607973B46FFF7C2FD00940197029605
:1013E000234627463433DC480625DC4A294608953F
:1013F000FFF781FD0296DA4B1C46343401940097C6
:10140000D848D94A3146FFF776FDD84821463246BA
:101410003B46FFF7A4FD009401970296D448D54BB4
:1014200029463246FFF767FD009401960296D2489E
:101430000327D24D394632462B46FFF75CFD009418
:10144000019602963435CE48394632462B46FFF790
:1014500052FD009401960296CA48CB4D3946324659
:101460002B46FFF748FD0094019602963435C74895
:10147000394632462B46FFF73EFD0296C44C019496
:10148000B14D0095BB4B3433C248C34A3146FFF7D8
:1014900032FDC248214632462B46FFF760FD00A8C8
:1014A00070C023463433B24808993246FFF723FD13
:1014B000009401960296BA4D2B463433B94839460A
:1014C0003246FFF718FD009401960296B648394659
:1014D000049732462B46FFF70EFD009401960296C4
:1014E000B24D2B463433B24839463246FFF703FD3E
:1014F000009401960296AF48394632462B46FFF7D4
:10150000FAFC009401960296AB4D2B463433AB485F
:1015100039463246FFF7EFFC009401960296A84840
:10152000394632462B46FFF7E6FC0296A54B1C4691
:1015300034340194844D0095A3A03146844AFFF7CA
:10154000DAFCA348214632462B46FFF708FD00A8E7
:1015500070C0A04B864808993246FFF7CCFC009437
:10156000019602969C489D4F049D294632463B4673
:10157000FFF7C1FC0094019602963437984829463B
:1015800032463B46FFF7B7FC009401960296954819
:10159000954C294632462346FFF7ADFC0296934D03
:1015A0000195079F00978B4B34339148914A314600
:1015B000FFF7A1FC9048294632463B46FFF7CFFC97
:1015C0000095019702962B463433634808993246BA
:1015D000FFF791FC00950196029634348748049FEA
:1015E000394632462346FFF786FC0095019602965F
:1015F0008348844C394632462346FFF77CFC0095ED
:101600000196029680A0844D394632462B46FFF75C
:1016100072FC764800900196029634357FA03946D8
:1016200032462B46FFF767FC704800900196029601
:1016300034347EA0394632462346FFF75CFC0296DE
:101640007E4B1C4634340194079D00957CA07E4A55
:101650003146FFF750FC7DA02146069A2B46FFF746
:101660007EFC00A870C07C4D3B4808993B4A2B4645
:10167000FFF741FC7948009401960290343578A038
:101680007B4A059F39462B46FFF735FC7948009485
:101690000196029078A07C4A7C4D39462B46FFF794
:1016A0002AFC02967A4C0194079F0097343579A062
:1016B0007A4A31462B46FFF71EFC79A02146069A4E
:1016C0003B46FFF74CFC00940197029623463433C7
:1016D00021480899214AFFF70EFC009401960296D2
:1016E00072A0764A764D059F39462B46FFF703FCDC
:1016F000009401960296343572A0754A39462B46FD
:10170000FFF7F9FB00940196029672A0754A764B9A
:101710003946FFF7F0FB079800900196029673A0F8
:101720000421744A024BFFF7E6FB09B0F0BDC04646
:10173000680A0020B3220108657E0008A42301087E
:10174000321D0108D00A0020380B0020D8230108E0
:10175000DA1A0108C6220108ED220108BA1C0108A4
:10176000A00B00200A240108221E0108F42201080F
:10177000D0220108080C002000240108C006002027
:10178000B423010861230108280700202923010848
:10179000700C002088230108521B0108BF22010899
:1017A00060080020FE22010895230108F8070020A8
:1017B000C62301088F230108900700209D230108FC
:1017C000AE230108D80C00202D53797374656D0089
:1017D000D7220108400D002071230108C80800200D
:1017E0003B230108E223010830090020A80D002056
:1017F000CC230108121F0108E0220108062301087A
:10180000F023010898090020204169722054656D79
:101810007072617475726500000A0020204169725F
:101820002050726573737572650000002043505537
:101830002054656D7072617475726500100E002021
:101840002D546F6F6C7300007A2001085B546F6F2A
:101850006C506167655D0000780E0020719500088E
:1018600020493243205363616E6E657200000000B0
:10187000AA1D010899110008204275726E2D696E2B
:101880002054657374000000621A0108E00E002005
:10189000480F00202D47616D65730000421C010850
:1018A0005B47616D65506167655D00002D47616D47
:1018B0006520546574726973000000008A1F010876
:1018C000B00F00202D47616D6520536E616B650080
:1018D0009A1E01082D47616D652044696E6F736122
:1018E00075720000CA1B0108601300202D41626F51
:1018F0007574000002200108F0B587B00590BC4C5B
:1019000001263F20A687BB49BB4ABC4B23636263C9
:10191000A1637F21C9050491E064266561652046C5
:1019200030308673B64D6860291DB64F384600F0DA
:1019300063FAB54CA67302200390607305990C31CD
:10194000B2A003C4083CEC60343729460C31384659
:1019500000F052FAB0480A217D22029292000192D0
:1019600064326264A164E0642046283037460696FB
:101970008673002105914173A849A94AA262E162D8
:10198000686129461431A74E304600F035FA2046EA
:101990005030877303994173A349A44A2265616556
:1019A000E861343629461C31304600F025FAA04F54
:1019B0006320F86105983862049C7C620698B873CD
:1019C000B8819C4A9C4818309CA139607860BA6004
:1019D0006F62294624319B4E304600F00DFA0C20F0
:1019E00078640699B964FC64384628308173B986F6
:1019F0009149143194A2BA62F9628E493963E8625E
:101A0000343629462C31304600F0F6F91F20F866AE
:101A1000069939677C6738465030817381818649E1
:101A200010318BA23A6579658249B96568632946A8
:101A30003431894E304600F0DFF9884F1720F861C5
:101A4000059C3C62049878620698B873B8817A481D
:101A5000083083A1396078607648B860EF63343627
:101A600029463C31304600F0C7F93B2000907864AD
:101A7000BC64049CFC643846283006998173B9869E
:101A80006D49091D78A2BA62F9626A4939636864CE
:101A900029464431764E304600F0AEF90098F8669B
:101AA000059838677C673846503006998173818184
:101AB00070A13965604979655E49B965E864343675
:101AC00029464C31304600F097F96C4C6C486D4912
:101AD000E1610199216260620698A073059F6773B6
:101AE00069486AA1216060606C65294654316A4E7C
:101AF000304600F081F969486421029AD20062649C
:101B0000A164E064204628300699817347736449D4
:101B100064A2A262E162E865343629465C3130464F
:101B200000F06AF920465030069F8773039941738D
:101B3000604961A222656565A165686629466431D0
:101B4000614E304600F058F9604A059C9473577313
:101B50005F4860A111605060EA66343629466C31F6
:101B6000304600F049F9594B1846283084734773C2
:101B70005C495DA29A62D9621F46686774355E4E01
:101B80003046294600F038F93B46384650308473D9
:101B9000274606994173594959A21A655965144D4A
:101BA000286034363046294600F026F9584CA77391
:101BB00006986073574858A121606060AC60294660
:101BC0002E460831584D284600F016F92046283098
:101BD00087734773554956A2A262E162306134357A
:101BE00010362846314600F007F907B0F0BDC04670
:101BF000C00300200D2100088000002001240108FE
:101C000054020020C0060020180400204D656E75A7
:101C1000436F6C6F720000000000A040780000204D
:101C20005123010828070020740000201723010811
:101C300090040020CD890008E802002059656172F7
:101C400000000000900700204D6F6E7468000000D7
:101C50004461746500000000F807002008050020BA
:101C6000486F7572000000004D696E757465000064
:101C7000600800205365636F6E64000080050020DB
:101C80000000FA43881300004C0000204E6F746976
:101C90002054696D65000000C80800200000C8429B
:101CA0007C000020576B7570496E616354696D65E7
:101CB00000000000AD75000853797374656D205203
:101CC000657365740000000030090020F8050020ED
:101CD000700000204261747465727920566F6C74D4
:101CE00061676500080300204368617267652043EF
:101CF000757272656E740000980900206C000020F7
:101D00004A756E6374696F6E2054656D70000000D3
:101D100070060020740100204169722054656D70C6
:101D20007261747572650000000A00207C01002059
:101D3000416972205072657373757265000000000E
:101D4000B0B5084906200C22074B084C0D4620353B
:101D5000CD610C624B628A62C8621831044800F09F
:101D60004BF8B0BDC0030020B2150108662201087F
:101D7000680A0020F0B581B00D460446FFF700FB6D
:101D80002046FFF7B9FD2046FFF7DAFF7D20C005AA
:101D900084216050A421134A62500C23002128267C
:101DA000102727616661A161E36121842560656078
:101DB000254684350C4B6960AB600C4E6665A265A8
:101DC000E2652646243607C62173A861E961084A00
:101DD00025466C3507C50748E0632364636401B09A
:101DE000F0BDC0468FC2F53C0AD7233C9A99993E74
:101DF000CDCC4C3DCDCC4C3E002802D0002900D0AB
:101E00008160704780B5054801F00AFE044801F082
:101E100007FE044801F004FE80BDC046BC2300203C
:101E200004230020E000002080B5024801F0F8FD06
:101E300080BDC04660230020F0B58BB01F46202334
:101E4000C35C05900446CC3410980990042B00D054
:101E5000BFE00492069107970894A088FEF7C9FA9C
:101E60007D21C9050391FEF7F0F905467F20C705DE
:101E700028463946FEF772FA0446032081072846B1
:101E80000291FEF789F9002C00D105462846294623
:101E9000FEF7DBF901463846FEF7CFF90CF090FC6F
:101EA0005649002C00D13946FEF776F906460798C8
:101EB000FEF794FA0146BF2005063F200206002CDB
:101EC000284600D110460192FEF7BFF93146FEF7D1
:101ED000BCF9FEF795FA089908808888FEF789FA18
:101EE0000399FEF7B2F906463946FEF737FA04467B
:101EF00030460299FEF750F9002C00D106463046D4
:101F00003146FEF7A2F901463846FEF796F90CF085
:101F100057FC002C394900D13946FEF73DF90646F9
:101F20000998FEF75BFA0146002C00D1019D284676
:101F3000FEF78BF93146FEF788F9FEF761FA029059
:101F400008994880088803900598007B0AAF38708C
:101F5000384600F0FDF8069885B2049886B20798D6
:101F600082B228463146029B00F050F801200A99BF
:101F700041403970384600F0EBF803980699401854
:101F800082B228463146334600F04CF8029C049F4A
:101F9000E01983B2284631462A4600F043F80998F2
:101FA000C019079F011B8BB284B206983E18B5B2C8
:101FB000284621462A4600F035F80398301A82B2A6
:101FC00028462146234600F02DF8089CA088401C96
:101FD000A0802088B8420CD160880999884208D135
:101FE00005992031032008700020A08001200BB04B
:101FF000F0BD00F071F800200BB0F0BD000080BF14
:1020000080B5714808F008FC80BDC04610B582B0AC
:1020100014460A46014600936B48234608F007FC25
:1020200002B010BD10B582B014460A4601460093B6
:102030006548234608F042FE02B010BD80B50A464E
:102040000146614808F0B0FE80BDC04610B582B0C0
:1020500014460A4601460498009301905A482346C4
:1020600008F0BFFE02B010BD10B582B014460A469B
:1020700001460498009301905348234608F063FFFB
:1020800002B010BD80B513460A4601464E4808F01E
:10209000D3FF80BD10B582B014460A4601460498AD
:1020A000009301904848234609F011F802B010BD92
:1020B0004548406B7047C04638204349085C70472C
:1020C00041480068007C704780B513460A460146C7
:1020D0003D4808F06FFC80BD10B53A4C20680021E7
:1020E000C94307F043FE384809F047F8206807F075
:1020F000CBFE10BD10B582B014460A4601460093CF
:102100003148234609F041F802B010BD10B52D4CFE
:1021100020680021C94307F029FE044801782A48B5
:1021200009F015FE206807F0AFFE10BD800000200A
:10213000B0B50446234D28680021C94307F016FEB8
:102140002148214609F003FE286807F09DFEB0BD36
:1021500080B501781C4809F025F880BD80B501469E
:10216000194809F025F880BD80B5174809F07CF8BA
:1021700080BDC046F0B581B00446012005020020B4
:10218000C1430F4E002C0DD00E4F386807F0EEFD06
:102190000D48214609F0E2FD386807F075FE35610B
:1021A00001B0F0BD3560074C206807F0DFFD064840
:1021B000002109F0D3FD206807F066FE01B0F0BDF4
:1021C00018040050B0000020302C0020F0B587B07B
:1021D0000D4604461046FEF701F90146432000066D
:1021E0000590FEF76FF806462846FEF7F7F8014619
:1021F0003046FEF72AF8FEF703F90490FEF7F9F8E7
:102200000646D2200690205AFEF7F3F805463046DF
:102210002946FEF712F8616B06460290FDF7BCFFF7
:102220000390A16AFEF711F80746606A3146FEF78F
:102230000CF83946FDF7B0FF0746A16B3046FDF7B5
:10224000FCFF0146E06AFEF700F83946FDF7A4FFFF
:102250002946FDF7A1FFFEF7D3F8069960522646FE
:10226000D23604987080B088FEF7C3F80146049017
:102270000598FDF7E2FF0546A064206D05902565F1
:10228000E16C2846FDF788FF0746E064029820636A
:1022900003996163A06328460599FDF7CEFF059079
:1022A000216C3846FDF7D1FF0746E06B2946FDF764
:1022B000CCFF3946FDF770FF0546606C0599FDF7C8
:1022C000C4FF2946FDF768FF0499FDF765FFFEF797
:1022D00097F80246B0800020022529462B46FFF7DA
:1022E000A1FE0698225A042A05D300950020052352
:1022F0000146FFF7ABFE07B0F0BD0000F0B58DB0B2
:1023000007930B920A910546007B0CA90870286878
:1023100080680468A069002807D000680021C943CC
:102320000BF016FA2868806804682B469C330695E3
:102330002A46D832149E1299607B00250128099103
:102340000892059318D0002877D167683868E1694A
:10235000884272DC216A88426FDBFEF73FF8314623
:10236000FDF71AFFFEF74CF83860E669216A8642ED
:1023700047DA3960E6694AE0E0690490FEF72EF832
:10238000014660680290076838460391FEF702F83C
:10239000002852D1206A0190FEF720F80446384602
:1023A0002146FDF7DBFF002847D138463146FDF7CF
:1023B000F3FE0646039F3946FDF7ECFF002825464D
:1023C000214600D1354628460C46FDF7C7FF0028B8
:1023D00000D12F460298076038462146FDF72DFFB1
:1023E00005460120C00785430798801FFDF7F6FFCB
:1023F00001462846FDF729FF054604980199401A31
:1024000011E0814202DD3E60314600E00146246A6F
:10241000081BC1174840411A0798801F4843FDF721
:10242000DDFF0546301BFDF7D9FF01462846FDF7C5
:1024300049FF2E49FDF7B0FE05460CAE3046FFF7CA
:1024400087FE0A980B99079A099BFFF7DFFD307802
:102450004142414131703046FFF77AFE08980088CA
:10246000FDF7C7FF014607902846FDF7E6FE054643
:10247000059EF060776970613169FDF78DFE044655
:10248000306128463946FDF7D8FE07467168204678
:10249000FDF7DBFE044630682946FDF7D6FE2146EF
:1024A000FDF77AFE0446B0683946FDF7CEFE2146B8
:1024B000FDF772FE0799FDF76FFEFDF7A1FF0246DB
:1024C000089802800A980B99099BFFF79FFD0698D0
:1024D0000068806800688069002805D000680021D5
:1024E0000A460B460AF033FE0DB0F0BD0000C040B6
:1024F000F0B595B01F460E9208910446007B0FA9D7
:102500000870B648FFF72AFE20200D94205C0228B0
:1025100007D10E9800693969814251D0012008998C
:1025200048710D9806462036B430079005973868F4
:10253000FDF72BFE062104914843542800D3542074
:102540000D9980310C91079948610FAD2846FFF72E
:10255000FFFD0020802240230B90014609920A9340
:10256000FFF754FD01210F98069148402870284636
:10257000FFF7EEFD08980479307802280E9F039645
:1025800000D04BE1012C33D0002C00D0B4E00898EF
:102590004079002800D081E0F8680599C9680D1AD3
:1025A000012D50DB0D98066940203146FDF774FF80
:1025B0000899C9690A1A954261DC0020C04365E0A8
:1025C0000898007901282BD00028AAD10D98056918
:1025D000402630462946FDF75FFF26203A5E002060
:1025E0000C2A9CDB6918711A0C3A8A4299DD96E72D
:1025F0000898407900286CD1F8680599C9680D1AC7
:10260000012D2EDB0D98466980203146FDF744FFF1
:102610000899C9690A1A954234DC0020C04350E089
:1026200024203C5E0D984569802630462946FDF7FA
:1026300033FF0020002C00D571E76918711AA14200
:1026400000DB6EE76BE7451A0D98066940203146BE
:10265000FDF722FF0899C969081A854215DC012097
:1026600014E0451A0D98466980203146FDF714FFA5
:102670000899C969081A854222DC012021E0C94372
:10268000401803E0C94340181BE0401C46430120AA
:10269000089948710D99C8698019C8613869059908
:1026A0000969814228D03A79062A1AD1486A0D9AD6
:1026B000D061086A90610898C069002820D598E028
:1026C000401C46430120089948710D99886980197A
:1026D000886138690599096981420DD03A79062ADD
:1026E0007ED0002A08D10D9B99690162D9690C221C
:1026F000DA614162002098610898C069002878D4A6
:102700000899C968002C2AD0012C51D10D9B5A6917
:102710009B69002635465643F6188E8401262E43C3
:10272000B6B2B04265D35643F618C9698E84022604
:102730002E43B6B2B0425CD35643F618C9698E84B4
:1027400003262E43B6B2B04253D35643F618C96996
:102750008E842D1DAEB2C969B042DCD249E00D9B1A
:102760001A69DB69002635465643F618CE840126E1
:102770002E43B6B2B0423CD35643F618C969CE8454
:1027800002262E43B6B2B04233D35643F618C96977
:10279000CE8403262E43B6B2B0422AD35643F6184F
:1027A000C969CE842D1DAEB2C969B042DCD220E029
:1027B000002101220A4392B290421AD302220A4314
:1027C00092B2904215D303220A4392B2904210D3A0
:1027D000091D8AB29042ECD20BE0C046B215010846
:1027E000086A0D9A9061486AD0610898C06900280B
:1027F00086D5386905990969814200D1D8E03879D0
:10280000002800D183E20D98006800698069816A20
:10281000079A1161C16AD160006B5061012C00D12F
:10282000AAE2002C00D0D0E30D9C2146D431488888
:102830000F460B91FDF7DDFD01460E908520C50585
:102840002846FDF7FAFC0990A064E16CFDF7A4FCB2
:102850000A90E064059E3069C069FDF7BFFD01463E
:102860002846FDF72FFD0546F068FDF7B7FD014648
:102870002846FDF7EAFCFDF7C3FD3880FDF7B9FDFA
:1028800005460798C08BFDF7B4FD01460290284627
:10289000FDF7D3FC05462063A66BA063606B294659
:1028A000FDF77AFC0746606328463146FDF7C5FC14
:1028B0000646A16A3846FDF7C8FC0746606A294605
:1028C000FDF7C3FC3946FDF767FC0546E06A314673
:1028D000FDF7BBFC2946FDF75FFC0299FDF75CFCA8
:1028E000FDF78EFD0799C883E76B256C606C02903D
:1028F000216D099820650446FDF79FFC06460A985D
:102900002946FDF7A2FC054638462146FDF79DFC09
:102910002946FDF741FC054602983146FDF795FC36
:102920002946FDF739FC0E99FDF736FCFDF768FDE9
:1029300003460B9843800026792031460246FFF774
:1029400071FB0798C38B042B06D3022000907620DE
:1029500000210622FFF77AFB0898C369C46805982E
:1029600000690D9909680969814253D0002B00D58F
:1029700049E1304666850146069A114389B2E46909
:102980008B424AD3002161850222024392B2E4695C
:10299000934242D361850322024392B2E469934297
:1029A0003BD36185E469001D81B28B42E2D234E001
:1029B000012C00D1C0E1002C00D006E33868FDF7FF
:1029C000E4FB04994843001D0799086026240598F4
:1029D000075F3E460C3ECE600D9805690A98294671
:1029E000FDF75AFD0C2F0E9A05DB68180A99081A94
:1029F000864200DC18E70598C068D168081AC1173C
:102A00004840401A012800D00EE7105F0C380799A3
:102A1000C86009E7002B00D5F5E000270EE06571DE
:102A20002268618DA08CFFF72DFB0898C36937469B
:102A3000E4697F1CB8B2834200DAE4E00B930E94A1
:102A40002620205EFDF7CAFC05462A20205EFDF701
:102A5000C5FC01460A902846FDF7EFFB06460D9D92
:102A6000A8670C98016809910660E96F3046FDF788
:102A700093FBE867296FFDF7E8FB0446E86E3146F3
:102A8000FDF7E3FB2146FDF787FB04463046099935
:102A9000FDF7D3FB0146686FFDF7D7FB21460E9C7F
:102AA000FDF77AFB0A99FDF777FBFDF7A9FC0B9B75
:102AB00060850C3080B25828BAD83E462079032869
:102AC0006ED1A06800286BD011A80021018112915D
:102AD0001191562076224023FFF70CFBA068006876
:102AE000417B032956D8C0467944097949008F446F
:102AF000012F0B274068036811A80A2101A20BF0DF
:102B00009DF947E0256400000E9D688D0224009425
:102B10000C3881B256200C221346FFF7A5FAA8689C
:102B2000006840680078012834D10E98408D0094E8
:102B30000A3881B2582008221346FFF787FA29E0A5
:102B40004168002926D011A80A22FDF711FB21E0D7
:102B50004068056800212846FDF700FC0446284629
:102B6000FDF767FC0F46002C0DD104462846EB49C3
:102B7000FDF702FC0028204605D10090019711A81E
:102B80000A21E7A204E00090019711A80A21E6A219
:102B90000BF054F90E9C618D562011AAFFF772FAC2
:102BA00000255422402328462946FFF7A3FA6079DE
:102BB000022820D001280CD0002800D030E720685F
:102BC000FDF7E3FA049948435428069D00D926E707
:102BD00026E7A08C441E0E9884840E980068FDF7AA
:102BE000D4FA0499484321B20E9C4018542800D3CB
:102BF00016E7022513E7A08C411CA184F7498842FF
:102C000000D30DE70BE710A802210170FFF7A0FA2F
:102C1000079D6869FDF7E2FB044628682F46FDF72B
:102C2000DDFB01460E902046FDF707FB06460D9D95
:102C3000A86E0A90AE662E66F868FDF7CFFB0446D4
:102C40007868FDF7CBFB01460B902046FDF7F5FABF
:102C50000746686E3946FDF79FFA04463146FDF790
:102C60009BFA0C90686638460A99FDF7E6FA0690DA
:102C7000A96D0A912046FDF7E8FA0446686D0990AF
:102C80003946FDF7E2FA2146FDF786FA0446E86D7B
:102C900008900699FDF7D9FA2146FDF77DFA0B99C0
:102CA000FDF77AFAFDF7ACFB01460B9007984160FF
:102CB00030463946FDF7C1FA07460A980C99FDF7E8
:102CC000C4FA044609983146FDF7BFFA2146FDF7DC
:102CD00063FA044608983946FDF7B7FA2146FDF72E
:102CE0005BFA0E99FDF758FAFDF78AFB0799086021
:102CF0002B8B0421009182B20B98401C81B2581C8E
:102D000080B20C23FFF7A2F9FFF72EFA5DE1242031
:102D1000059A105E079B196918610D980068006993
:102D200081622621515E0C39DA68D960C262596924
:102D30000163012C20D074E5242105980A91465E98
:102D4000079806610D984569099C20462946FDF7BC
:102D5000A3FB002E03D46818201AB0420CDA0598A1
:102D6000C068F968081AC1174840401A012803D101
:102D70000A98385E07990861059FF9683869C26941
:102D80000D9C2046FFF722FA089EF56814A8022140
:102D900006910170F9683869C2692046FFF716FA92
:102DA000F669386921680969814222D0002E0B9B9F
:102DB00000D589E01846069C2B850121014389B284
:102DC000ED698E4217D3002129850246224392B233
:102DD000ED6996420FD329850322024392B2ED6931
:102DE000964208D32985ED69001D81B28E42E3D257
:102DF00001E0002E68D4002006E0ED690B99491C23
:102E000088B2864208465FDB0B900E962420285E2F
:102E1000FDF7E4FA04462820285EFDF7DFFA0146B4
:102E20000A902046FDF709FA07460C9E3061B0690A
:102E30000990B76171693846FDF7AEF97061B16804
:102E4000FDF703FA044670683946FDF7FEF921469E
:102E5000FDF7A2F9044638460999FDF7EEF9014657
:102E6000F0680E9EFDF7F1F92146FDF795F90A99F4
:102E7000FDF792F9FDF7C4FA28851E3080B2BC2810
:102E8000BBD80D98007B0121414014AC2170204635
:102E9000FFF75EF9288D296B00910C271E26394615
:102EA00032463346FFF7F6F8069820702046FFF7C3
:102EB0004FF9288D04210091394632463346FFF7F9
:102EC000C5F80898C66998E7059D687900281BD061
:102ED00001280AD002282ED13F4801884A1C0280CE
:102EE0003E48814227D2002016E03B4801884C1E14
:102EF00004802868FDF749F90499414320B2081875
:102F00007F2818D8069807E02868FDF73EF904994D
:102F1000414381290CD3012068710CE0000020415D
:102F2000252E336600000000252E326600000000CA
:102F30002948002101800D9F387B0121414014A8C0
:102F40000170FFF705F92A68234800883E21FFF742
:102F500099F8079D2869FDF741FA0446A868FDF72E
:102F60003DFA01460E902046FDF767F906463866A1
:102F7000BC6EB866796EFDF70FF905467866304687
:102F80002146FDF75AF90C90B96D2846FDF75DF919
:102F90000446786D3146FDF758F92146FDF7FCF8F7
:102FA0000446F86D0C99FDF750F92146FDF7F4F849
:102FB0000E99FDF7F1F8FDF723FA0799886080B2C2
:102FC0002F211E220223FFF721F8FFF785F80120A9
:102FD0000399087015B0F0BD94130020FF7F000026
:102FE00080B506F0BDFA31480168C90703D1016810
:102FF000890705D480BD0121016001688907F9D5E1
:103000000221016080BDC04680B506F0A9FA2748BC
:103010000168090701D50821016080BD80B506F06F
:103020009FFA22480168C90617D40168890619D495
:10303000011F0A6892061BD4016849061DD4016865
:1030400009061FD401210268920521D402685205A5
:1030500023D40268120425D480BD102101600168C8
:103060008906E5D520210160011F0A689206E3D593
:1030700020220A6001684906E1D54021016001680B
:103080000906DFD580210160012102689205DDD5A6
:103090004A02026002685205DBD58A0202600268B9
:1030A0001204D9D5C903016080BDC0461018024082
:1030B000EFF3108072B6FEE77047704770477047B5
:1030C000F0B589B00246002408945420105C012811
:1030D00002D1022009B0F0BD1546543501202870F8
:1030E00013689E68760716D410694E68022E19D1AF
:1030F000042210439C4A904270D19A48C0430E6803
:10310000F1430143986A084098620020002E69D478
:103110002C7009B0F0BD916D20230B4393652C708A
:1031200009B0F0BD07940696042420438D4E8E4FBF
:10313000B84264D10F683E40986A30439862079C59
:1031400038025A6982438968014088480840104320
:1031500058610020002FDBD5012385493E460F68CA
:10316000072189053A4607910A40824903968E4213
:1031700000D08AE0D9053E460E4000D085E00646E4
:103180007B4F3868079B984302430A433A607C4868
:1031900000687C49FDF761F90C2141430C3108912D
:1031A0000898002800D19DE030460899491E0891F2
:1031B00008990029ACD00899491E0891089900295E
:1031C000A6D00899491E089108990029A0D008990D
:1031D000491E089108990029E7D199E70E68002057
:1031E000002E95D562490A68634B9E426ED0634BB0
:1031F0009E4268D05F4B9E428AD1052367E00394CC
:103200001F27069807400F2001900597B840176EBA
:103210000290874304970F68374250D0F807079C05
:10322000264668D1B80761D4780761D4380761D4DD
:10323000F806039E5FD4B80673D4780673D43806B4
:1032400073D4F80573D40397B80572D40398400576
:1032500072D40398000572D40398C00472D4039802
:10326000800472D40398400472D4039F3804019EF2
:10327000079C40D4F8036ED4039880036ED4039F58
:103280007803C017122606401BE03B49039E8E427E
:1032900002D119068A4208D33849039E8E4200D0D3
:1032A00036E799050F4000D032E7314F3E68079B63
:1032B0009E4332430A433A602C7009B0F0BD780057
:1032C000C60E079C17E00323DB0501E003239B05E3
:1032D0001A4007239B050E689E43B2180A602C70A3
:1032E00009B0F0BD30462C7009B0F0BD012602E0F7
:1032F000022600E0032605988640049806431666D9
:1033000006988008D269824200D819E70298C04323
:103310009A6A0240B800000F059EB04010439862C0
:103320000EE70526E7E70626E5E70726E3E7082692
:10333000E1E70926039FC4E70A26039FC1E70B269E
:10334000039FBEE70C26039FBBE70D26039FB8E74C
:103350000E26039FB5E71026039FB2E71126039FB1
:10336000AFE7C046FFFF07000400008000FFFF0733
:1033700008270140001000B0004000B8002000B451
:1033800084000020400D0300704770477047F0B57F
:1033900085B00446006801680225039129404A422D
:1033A0004A414668314629404B424B4113430CD1B8
:1033B000A06DC00604D40120C002A16D0143A16527
:1033C0002046FFF77AFE206805600127042232407C
:1033D00051425141039B5A0704973A4600D50A4689
:1033E00004994F02012A019509D108223240514225
:1033F00051411A07049A00D50A46002A2ED12146C7
:103400005831A26DD20602D40A683A430A60C268F3
:103410001205920F1BD1A27E002A18D10268120752
:1034200015D58268520708D442680C239A4342603B
:10343000FF2202320868904306E0A06D202101437C
:10344000A16521465C31E06D012202430A602046FD
:10345000FFF79AFF20680C210160039B802532460C
:103460002A40514251411A06049A00D50A46029751
:10347000002A0AD101200004A16D0143A165204664
:1034800000F08AF9039B2068056001252F0232466F
:103490003A4051425141DA05049A00D50A46002AC1
:1034A00009D16804A16D0143A1652046FFF706FE1E
:1034B000039B206807603246029F3A4051425141C7
:1034C0003B42049A00D00A46002A09D1A804A16D03
:1034D0000143A1652046FFF7F2FD039B20680760CA
:1034E000102732463A4051425141DA06049A00D53B
:1034F0000A46002A13D1216B002902D0C16889072E
:103500000CD0A802A16D0143A165E06D01990843AB
:10351000E0652046FFF73AFF039B206807606D03D4
:103520002E4070427041990404D40498002805D0BC
:1035300005B0F0BD049004980028F9D12046FFF7AB
:10354000BBFD2068056005B0F0BD0000F0B589B096
:10355000044600200890002C77D00790A06D00282A
:1035600007D125465435204600F018F90020287070
:10357000E06501273D072668B068C00027D4B06821
:103580007F4901402943B1607E4800687E49FCF7CD
:1035900064FF4000801C08900898002817D0089805
:1035A000401E08900898002811D00898401E0890E6
:1035B000089800280BD00898401E0890089800280A
:1035C00005D00898401E089008980028E7D1B068F8
:1035D000284208D1A06D10210143A165E06D0121B1
:1035E00007910843E065B06804210140A26D1020F6
:1035F00002405118A16D2BD106900F20C7433A46C7
:10360000F33A1140891CA165B168C9077DD10390C7
:10361000049727462037216B4A1E91410D03A1686C
:10362000227E92030A43617EC9031143A27E5003A6
:103630000843E36803432B430120C50721690029A0
:103640000590029509DAA94308E0012009B0F0BD10
:103650000143A165384609B0F0BD41050B43387BF5
:1036600045001D433878012809D1002A11D0A06DEA
:1036700020210143A165E06D05990843E065626A78
:10368000002A0CD0072080010240A16A114329437F
:1036900006E0059800040543626A002AF2D1294633
:1036A000F0683A4A02400A43F260032082076368E6
:1036B0001D461540E16C387F01280ED1206C00902A
:1036C000676CA06C019000980743019807432F4353
:1036D0000F43059807433D4600E00D43049F3069C2
:1036E0002B490140294331610298834203990CD050
:1036F00093420AD005988007834206D0880403408D
:1037000024490A688243D0180860706907229043F0
:10371000656B28437061706970218843A16B090152
:1037200001437161216901235805814203D00029B9
:103730000BD1B06A07E0B06AE06980001C301C2140
:1037400001408F40206E3843B06270691040A8423B
:103750000AD10020E065A06D0121014302208143D0
:10376000A165079809B0F0BDA06D06990843022134
:103770008843A065E06D1843E065184609B0F0BDC8
:10378000E8FFFF6F84000020400D03000102DEFF10
:1037900002FCFF1F0827014070470000F0B589B008
:1037A00000260896079606960596049602682F4905
:1037B0008A4201D009B0F0BD029003208107034680
:1037C00000902B48026A8A430127F90751180162C9
:1037D0003905C2680A43C260C2680A40039203996D
:1037E0000168394301600168394003910399016818
:1037F000022211430160006810400390039806966E
:1038000005930424049405200190000704AD294683
:1038100000F06EFA06960098059004941548294623
:1038200000F066FA144D2E62B80239028022134B62
:103830002B60019B6B60AE60EE602A616961A861DC
:10384000EE61284600F05CF9002801D0FFF730FC5B
:103850000298A86205650C2403210022204600F08E
:103860005FFF204600F050FF09B0F0BD002401408A
:10387000341002400004005004230020580002408D
:10388000F0B581B00468A56802236D071FD45425E4
:10389000455D012D1BD00091174605465435012684
:1038A0002E70E268D2070BD1A268D20704D0A268BA
:1038B0001C4B13409A1CA260E26801231343E3608F
:1038C0000446FDF77BF933460028009E02D01846D7
:1038D00001B0F0BDA06D144901400120000208189C
:1038E000A0650020E06521681C220A602870206D18
:1038F0000E4A0F4B0F4DC562036342634A681023A3
:1039000013434B60403132463B4600F079F90346A1
:1039100020688168034A0A40111D8160184601B081
:10392000F0BDC046E8FFFF7FFEF0FFFF990B0008E7
:10393000B30B0008150B000870B500282CD0014609
:1039400024314A78022A29D1046822680E239A4336
:103950002260426C15682F4B1D40156025680122BE
:1039600095432560046C1C2525401446AC40D64D7B
:103970002E6826432E60846CC56C6560046D002C37
:1039800005D025681D402560436D806D58604A70E4
:10399000002000220A7070BD012070BD0422C263A5
:1039A000012000220A7070BD70B5014624314A78AA
:1039B000022A2BD103681A680E24A2431A601C68DD
:1039C000012294431C60446C2568124B1D40256005
:1039D000046C1C2525401446AC40BB4D2E68264384
:1039E0002E60846CC56C6560046D002C05D0256864
:1039F0001D402560436D846D5C6000240C704A702E
:103A0000816B002900D08847204670BD0421C16326
:103A1000012070BDFFFEFFFF2521405C70470000C4
:103A2000F0B585B0A849091F0E680268136804251F
:103A300002932B405F425F410490046C1C2323409F
:103A4000294699400C460396344060426041384311
:103A500031D0019201210227029E30463840444273
:103A600044419F40039D2F420A4600D021460498BE
:103A70000446243400292FD008200640774277419D
:103A8000DD40280700D53A46002A23D1019A106864
:103A90000E21884310600125294699408A48026812
:103AA0000A4302600498C563002121706570416B70
:103AB00000290ED10EE01068800602D41068A843D9
:103AC0001060814A1068084310600498016B002957
:103AD00000D0884705B0F0BD019B1968890605D460
:103AE0001A680A218A431A6001216170002121703D
:103AF000754A116839431160C16A0029E9D1E9E7C3
:103B0000F0B587B000284AD004460146243102208F
:103B10000691487027683868344901403960344E4E
:103B200030468030A0643348381814252946FCF705
:103B300094FC80008119206405916164FC20384068
:103B400008382946FCF789FC1F23034001210A4657
:103B50009A40E264A0680490E5682646103649CE93
:103B60000196E6690296266A039628431843019B4C
:103B700018430E46029908430399084339680143E4
:103B8000049B19433960B1031B488B420AD10023BF
:103B900005990B60636002601D461A461CE0012017
:103BA00007B0F0BD61683F270F40059B1F600260B2
:103BB000491E002303291D461A460DD8791E8A0086
:103BC00083180022DA6703250D403246AA400B49CC
:103BD0000A607C33BC3005460020E06323656565E0
:103BE000A265069908704E7007B0F0BD0F80FFFF08
:103BF00000080240F8FFFDBF84080240440902406B
:103C0000F0B582B004462420205C012802D10220B5
:103C100002B0F0BD174625462435012028706A7889
:103C2000012A2ED1022068700020E06325682A68EE
:103C300001260196B2432A60A26CE66C5660226DA2
:103C40000092002A02D0626DA66D5660226C1C267E
:103C50001640019AB2401C4E366816431A4A166046
:103C60006B60A368102B3A4600D00A46AA60102B5E
:103C700000D03946E9602968226B002A07D00E225D
:103C80000AE0002129708021E16302B0F0BD042226
:103C9000914329602A680A21114329600199090288
:103CA000626C1368DB0302D513680B431360009B3F
:103CB000002B02D01A680A431A602968019A11433E
:103CC000296002B0F0BDC04604000240B0B5044611
:103CD00000F0E6F80546601C02D00448007804199C
:103CE00000F0DEF8401BA042FAD3B0BD080000206F
:103CF000F0B58CB00A900B910968002900D1C2E0A0
:103D000062480A9A824201D0052000E00320009018
:103D10000A9820300190002308931D46099310E073
:103D20000A4332605B1C0B9801680846D840099A28
:103D300008320992089A121D0892AD1C002800D181
:103D4000A1E0012006469E403140EBD0079303904E
:103D500004910A9A03242046A840C1432B460B989D
:103D6000456828462040471E012F0691029505937D
:103D70000FD894680C400B99CF689F4027439760F9
:103D8000EC06E40F079B9C405768B74327435760F6
:103D900005E00328079B02D12046029D1EE00A9FF2
:103DA000FC6806990C400B9A966805998E4026434C
:103DB000FE600228029D11D11C20089908400F22A4
:103DC0008240DC08A40001990E5996430B9F3A6982
:103DD000824032430A517D6803202840059B984069
:103DE0000A9A146806990C4004431460A8031D46FF
:103DF000079B800F0499039F94D003201A468243A7
:103E000023488018026E052424070A9EA6420AD081
:103E1000214C0A9EA64207D0204C0A9EA642009F33
:103E200002D1022700E000271824099E34400F2603
:103E3000A640B2436030A7401743076014480268A9
:103E40000B984068C40201D50A4300E08A43114E32
:103E50000F4C22606268840201D50A4300E08A4365
:103E60000B4C62607268840305D50A437260326845
:103E7000C00306D554E78A4372603268C00300D598
:103E80004EE78A434DE70CB0F0BDC046000C005031
:103E90000018024080180240000400500008005042
:103EA000014800687047C046A0330020B0B5024604
:103EB000034640335C780220202C17D11C78012C5B
:103EC00014D024205870106802680124A2430260B4
:103ED000220305689543056002680A430260016891
:103EE000214301600020187020215970B0BDB0B589
:103EF0000246034640335C780220202C17D11C7800
:103F0000012C14D024205870106802680124A243A8
:103F100002600F22120205689543090229430160DD
:103F20000168214301600020187020215970B0BD44
:103F300081B007490A6801231A430A6009681940D9
:103F40000091009903490A6802430A6001B0704772
:103F5000401002400000014070477047F0B581B04A
:103F60000122150201688B691C462C40664266419D
:103F70000F6880243C4067426741374304D1466C58
:103F8000012737434764CD61654265415E051646AA
:103F900000D52E46002E05D19502466C08273743E2
:103FA0004764CD61654265419B05134609D4002BEA
:103FB0000AD0416C0B22114201D001F0DFFC01B0AC
:103FC000F0BD2B46002BF4D15202436C02241C435B
:103FD0004464CA61416C0B221142EED1EFE780B517
:103FE00002689169436B1268002B00D0984780BD2E
:103FF00070470000F0B581B0002822D0054640355A
:104000006978002905D100212970044600F0A8FA3A
:1040100020462421697001680B68012293430B60DC
:104020000F231B0644689C430C618C681C4B1C408E
:104030008C608468C668012E06D1D60334438C6038
:104040000CE0012001B0F0BD2127BF023C438C6091
:10405000022E03D1D4024E68264302E0D4024E68F9
:10406000A6434E604C680F4E26434E60CC681C4001
:10407000CC60036944691C4383691B022343CB6002
:10408000C369046A1C430C600B6813430B60002176
:10409000416420226A7001630846A97001B0F0BD36
:1040A000FF7FFFFF00800002F0B589B0079206464F
:1040B000002708970546403568780224202800D05C
:1040C000EFE030688269120400D5EAE02A78012A1C
:1040D00000D1E6E024226A7001242C707764C64A7D
:1040E0001140714A8A180592704A89180491591C26
:1040F0000295019406934DD0002B039700D08CE0DD
:10410000039FF1680129059900D004994160FFF7E8
:10411000C7FE05463068816920220A408169102463
:104120002140511800D1B1E08069C00600D496E06A
:1041300000952025002230462946134602F0D0FC87
:10414000002800D09EE03068C461C5610899491C10
:1041500008910899079A9142D3D32020029A50706F
:10416000716C0143716401249AE00095FB432025A2
:10417000304629463A4602F0B3FC002800D081E0E0
:104180003068C461C5610899491C08910899079A6B
:104190009142E2D2F1680129059900D00499416069
:1041A000FFF77EFE05463068826920210A40836958
:1041B00010242340D21817D182690A408369234012
:1041C000D21811D182690A4083692340D2180BD1D9
:1041D00082690A4083692340D21805D182690A4066
:1041E00083692340D218E7D08069C006BDD437E088
:1041F00000952025002230462946069B02F070FCDF
:104200000028039F3ED13068C461C5610899491CEC
:1042100008910899079A91429FD2F168012905995E
:1042200000D004994160FFF73BFE05463068816984
:104230002027394082691024224089180CD1FFF7C9
:104240002FFE401B0699884222D830688169394088
:10425000826922408918F2D08069C006C8D4039FC1
:10426000019C009520250022304629460792069B96
:1042700002F036FC0028029A13D13068C5615570EF
:10428000079C0DE0019C204609B0F0BDFFF708FE39
:104290002020029A5070716C014371640124039FC5
:1042A0001770204609B0F0BD00200002002800026F
:1042B0007047000080B50548006805F0E5FD80BD49
:1042C00080B50248006805F0DFFD80BDAC0000202D
:1042D000F0B585B00646403675780224202D3AD1D7
:1042E0000F4601688D692D0435D43578012D32D003
:1042F00001242225757010250495B57000254564AC
:1043000043858E4BC362347042628D4B4363438D51
:104310001B0A23D0FF23038501252D060295C56BBB
:10432000002D24D001970394074635480024E86205
:104330002C6384486863AC6324312846FFF760FC33
:10434000002820D020207070B4703470786C0499EC
:1043500008437864039C204605B0F0BD438D038577
:10436000002B34D065060295C56B002DDAD12021D3
:1043700071700021B1703170416C80220A43426437
:10438000204605B0F0BD0398C003049039684A6820
:104390006E4B13406E4A019D15403A8DD0B2000419
:1043A0004019029D2843184309239B0203434B6095
:1043B000788D801A78850868902202430A603470EC
:1043C0000868049A10430860204605B0F0BD604AB2
:1043D00017404A685D4B1340DA19084BD2184A60FF
:1043E0005D4A426335700868F42202430A602C4635
:1043F000204605B0F0BDC046FF03000000240002C7
:1044000085570008F0B585B0144605460646403687
:1044100072780220202A6DD12A6897693F0469D4F6
:104420003778012F66D02120707010200390B07073
:10443000002068646B85414BEB6201230493337069
:104440006C623F4B6B636B8D1B0A04D0FF232B8583
:1044500001273F0606E06B8D2B85002B07462CD0ED
:10446000049F7F06029727789762641C6C625B1E2C
:104470002B856F8D7F1E6F851F041CD0A86B0028B5
:104480002ED000912832304F0021C76201632D4F9A
:104490004763019181639BB22146FFF7B1FB00287E
:1044A0002AD0202070700198B0703070686C039929
:1044B000084368641DE0049B1F045368234C1C40A0
:1044C000234B194039432143224B0B43536022496C
:1044D000696330701168F2230B43136005B0F0BDBF
:1044E000202070700020B0703070686C8021014313
:1044F0006964049805B0F0BD29684868134A024011
:104500001348009B0340288D441CE4B22404E318A4
:10451000029C23431343012254031C434C606B8DC4
:10452000181A68850868902303430B60019830705F
:1045300092030B6813430B6005B0F0BD0000FFFF52
:10454000F16100086B5700082D580008009800FC26
:10455000FF03000000200002B163000870477047AD
:10456000F0B587B004460026069605960496039695
:10457000029600682F49884201D007B0F0BD01259E
:1045800004952D4F386828433860386828400190DA
:104590000620069002200590122003900320C002FE
:1045A000029001980520000702A9FFF7A1FBA805CA
:1045B000B9680143B960214D802100912961EE6005
:1045C0001021A9600D2169601D4914312960B96865
:1045D0006E61AE61EE612E62014001910198284644
:1045E000FFF78EFA002801D0FEF762FDAC62A563EA
:1045F000144D0C20124929606860AE60EE6000988E
:1046000028616E61AE61EE612E622846FFF778FA8E
:10461000002801D0FEF74CFDAC62E56318240321AD
:104620000022204600F07CF8204600F06DF807B02C
:10463000F0BDC0460058004034100240BC230020AA
:104640003000024060230020704770471F48007808
:1046500002490A68101808607047C046A03300205D
:1046600010B50124200208490A6802430A600320A9
:1046700000F00CF8002801D0204610BD00F028F80A
:104680000024204610BDC0460020024070B50F4EE9
:1046900031780124002916D005467D20C000FBF7A3
:1046A000DCFE014643480068FBF7D7FE00F000FC43
:1046B000032D08D8002806D10024E04329462246CD
:1046C00000F02EF87560204670BDC046080000203E
:1046D00080B582B00B494A68012002434A604A68AB
:1046E00002400192019A02070B6813430B600968AC
:1046F000114000910099C0430321002200F010F8FE
:1047000002B080BD3C100240002805D41F210840A3
:1047100001218140014801607047C04600E100E08E
:10472000002805D40322034693430A4A9A1803E05B
:104730000C220240064BD2188007C00E8901C9B274
:104740008140FF23834010689843084310607047FE
:1047500014ED00E000E400E010B5421E90410C4A68
:1047600013680724A343181810600A48036804223A
:1047700013430360012904D130BF016891430160F4
:1047800010BD40BF20BF20BF01689143016010BD34
:104790000070004010ED00E00648006826490968F6
:1047A000890A1C220A40044989581F220A40D04025
:1047B0007047C0468400002010E8000810B51E4C69
:1047C00020688006400F06D0226838210A401B4826
:1047D000082A07D110BD083C20688004410F184802
:1047E000C84010BD22680A40102A15D16168032212
:1047F0000A40032A00D0124861684906490F491C43
:10480000FBF72BFE61684904490E48436168490F74
:10481000491CFBF722FE10BD20680840202802D169
:104820000120C00310BD20680840182801D00020D6
:1048300010BD7D20000210BD0810024000127A0059
:104840000024F400F0B583B004462820205C012841
:1048500002D1022003B0F0BD234628330220587055
:104860002068CA214162532141620125A90282695F
:104870008A43826102931D700195A90382698A436C
:104880008261FFF70DFB05460B4E2168C8680027C3
:10489000400708D4FFF704FB401BB042F5D3216862
:1048A0000323184601E03846019BFF224A62029921
:1048B0000F704B7003B0F0BDE9030000F0B583B09A
:1048C00006462820305C012802D1022003B0F0BD4A
:1048D0000091019234462834022060703168CA2069
:1048E000486253204862012398028A6982438A61A0
:1048F000C86D04220243CA65029323707D20C5005F
:104900001948006840060FD4FFF7CAFA0746316815
:10491000C868400708D4FFF7C3FAC01BA842F6D9FD
:1049200031680326304618E00098486188690722FC
:10493000904388618869019A10438861029EF0045F
:104940000A4A136803431360B0038A6902438A6109
:1049500018358869284388610020FF224A620021B7
:104960002170667003B0F0BD0C2800408018024032
:104970000148012101707047B803002010B50446BA
:104980000068016D490706D5C16D04220A43C2655E
:104990002046FFF7EDFF29200121215410BDF0B57D
:1049A00000684368180CC8703F261E408E701C0AB1
:1049B0001F2525404D701F047F0F0F70002A01D066
:1049C0000020F0BD0F22134037090A267743FB1859
:1049D0008B7014402B0973431B194B700240C0B2FB
:1049E000000970438018C8700020F0BDF0B581B098
:1049F000006883684B600369164C1C408C60046837
:104A00007F20274607408F706302DB0FCB70250A9B
:104A100028404870230C3F261E400E70002A02D00A
:104A2000002001B0F0BD0F22009214403F090A227D
:104A300057433C198C70009C254000095043401995
:104A40004870234030095043C0180870002001B05E
:104A5000F0BDC046FF7F000070B5002833D004468B
:104A6000064628367078002807D1002030701120C3
:104A7000C0026060204600F059F802207070206883
:104A8000C168C9064CD4CA21416253214162C16840
:104A900049061AD4C16880220A43C260FFF700FAAF
:104AA00005462068C16849060FD4FFF7F9F9401B95
:104AB0007D21C9008842F4D9032070702168CA683A
:104AC000FF224A6270BD012070BD8169164A0A400A
:104AD0008261A16862690A43E169114382690A43FC
:104AE000826121690161E168090402690A43026186
:104AF000204603F045F92168002802D0FF224A62CF
:104B000070BD072040078A6982438A61206A626A11
:104B10000243A06910438A6902438A61FF20486208
:104B200001207070002070BDBFFF8FFBF0B583B017
:104B300000683649884201D003B0F0BD032002026C
:104B400033480368134001210D02AB4246D00B07E6
:104B50000446203C26681E4006D127681F43276074
:104B600027681F400297029F00932A4F3B682B4201
:104B70000ED13B682B433B603B682B4208D13B681E
:104B80002B4205D13B682B4202D13B682B42F3D02C
:104B90000B0407681F43076007689F4307600368AB
:104BA00008271F4310239F43076003680B430360DC
:104BB00003689B0708D403689B0705D403689B0719
:104BC00002D403689B07F3D5036893432B43036028
:104BD000002E03D12268009B9A432260CA03036817
:104BE000134303608902203802680A4302600068A8
:104BF0000840019001980224032100222046FFF77B
:104C00008FFD2046FFF780FD03B0F0BD0028004077
:104C10005C10024000700040F0B583B004462820CC
:104C2000205C012802D1022003B0F0BD26462836C0
:104C300002207070012000903070002A06D0C878E1
:104C400000044A78120217188D7840E04878C206AE
:104C500003D5EF2210400A304870CA7800250A2A8E
:104C600011D30A3AD3B22F46CD255D43EB0A0A256C
:104C70005D43521B3D461B0110331343DAB20A2831
:104C800006D22B4610E02B461343DAB20A28F8D39B
:104C90000A38C3B22F46CD255D43EB0A0A255D4392
:104CA000401B3D461B01103312040343D8B20702D8
:104CB00088780A2809D30A38C3B2CD255D43EB0AA8
:104CC0000A255D43401B1D0110351743054302951E
:104CD0002068CA2242625322426209780191C16867
:104CE00049061BD4C16880220A43C260FFF7D8F886
:104CF00005462068C168490610D4FFF7D1F8401B6B
:104D00007D21C9008842F4D9032070702168CA68E7
:104D1000FF224A620021317003B0F0BD0299C9B28E
:104D20000F4301994903C02297430F434760204630
:104D300003F026F82168FF224A620028EAD1009891
:104D4000707000200021317003B0F0BDF0B583B069
:104D500004462820205C012802D1022003B0F0BDC7
:104D600016460D4622462832022050702068CA217D
:104D70004162532141620121029201911170C16887
:104D800049061CD4C16880220A43C260FFF788F834
:104D900007462068C168490611D4FFF781F8C01B97
:104DA0007D21C9008842F4D90320029B58702168F4
:104DB000CA68FF224A620021197003B0F0BD8269FF
:104DC00040211140002E05D00029019E15D100215F
:104DD000E97014E0002901D10021E9702A7800214E
:104DE0000A2A15D30A3AD3B2CD265E43F30A0A261D
:104DF0005E43921B1B0110330BE0E97889052A788A
:104E000012046B781B029A18AB78D3180B432AE074
:104E10000B461343DAB213046A780A2A0AD30A3A11
:104E2000D6B2CD277743FE0A0A277743D21B360135
:104E3000103600E00E461643F2B212021A43AB7867
:104E40000A2B09D30A3BD9B2CD264E43F10A0A26D2
:104E50004E439B1B09011031019E1943C9B20A43FD
:104E6000E9788B0513430E4919400160B10482694A
:104E70008A438261E9682A690A4381691143816131
:104E8000204602F07DFF2168FF224A620028029B33
:104E900091D15E7000200021197003B0F0BDC046B2
:104EA0007F7F7F001148016802220A430260704739
:104EB000401E010E01D00120704707490B4A506087
:104EC000064803680B400321890759180160002038
:104ED0009060072111607047FFFFFF0020ED00E0A8
:104EE00002480168022291430160704710E000E02F
:104EF000B0B58421415C012901D10220B0BD014639
:104F0000843124224A600268136814680125AC4386
:104F100014606C07A34313600022426610460A70B7
:104F200020224A60B0BD704770470000F0B583B0E2
:104F3000054668352A7F012A02D1022003B0F0BD60
:104F4000064688362422326007683A6802923A6838
:104F50000124A2433A6007225206BB6893430B43E5
:104F6000BB60406E0028204615D0B8680190B86834
:104F7000400F2E49095C2E4A105CC000FBF76DFA09
:104F8000044601980001400F2849095C284A105C3A
:104F9000C000FBF762FA28806C800298386000201D
:104FA00028772021316003B0F0BDC046F0B583B052
:104FB000054668352A7F012A02D1022003B0F0BDE0
:104FC000064688362422326007683A6802923A68B8
:104FD0000124A2433A6007225207BB6893430B4364
:104FE000BB60406E0028204615D0B8680190B868B4
:104FF000400F0E49095C0E4A105CC000FBF72DFA09
:10500000044601980001400F0849095C084A105CF9
:10501000C000FBF722FA28806C80029838600020DC
:1050200028772021316003B0F0BDC04684E9000834
:105030007CE900087047704770470000F0B589B000
:105040000368DF69202501210691CE0232462F3206
:105050003A40196808900446803405939B68202ADA
:105060000395079710D108462840012212071A40DD
:1050700080181F4616D00898416F002900D156E1CC
:105080000898884709B0F0BD30460F3007421F46E8
:1050900008D0C8480840069A1207551C3D402818F9
:1050A00000D091E00494102608463040424242412C
:1050B000079D284630404442444114430898C06E3E
:1050C000401E421E9041204337D001240126B205E4
:1050D0003A4050425041EA022246059B00D5024622
:1050E000002A00D1A6E0280606D580200840F20557
:1050F0001740C01900D0B0E140230A461A40504280
:1051000050416A06224600D50246002A00D13DE100
:10511000B2070A40504250412A02224600D50246B8
:10512000002A00D1A4E1002900DAA6E1E80100D5B7
:10513000A7E1002C00D0FAE0A7E1089C5C340598B8
:1051400006628068400600D57BE06188228860881E
:10515000002800D1EBE08A4200D1E8E0EFF31080B4
:105160000790012383F310880920450108983746EA
:1051700006683468AC433460079C84F31088EFF30E
:105180001084079483F310880568AE68C14C3440DE
:10519000AC60079C84F31088049C039DE5600024A8
:1051A0004467C466EFF3108483F3108803681D68B6
:1051B000BD431D6084F3108802230367511A89B22E
:1051C000FFF7B1FE09B0F0BD009204940798069B6A
:1051D0001840424242411802019108404442444171
:1051E0001443059B05D101201862049C22690243E7
:1051F000226101203C4602900440604260410799D0
:105200008A07069A00D50246002A06D102201862B3
:105210000498016904220A430261604260410799CF
:105220004A07069A5CD4002A049C5DD007980007C0
:1052300063D46CE0300518620898FFF7FCFE09B0F3
:10524000F0BD04980068006841688AB2002A6ED0F8
:1052500023889A426BD261800068800635D4EFF3D0
:105260001082012181F310888C4B20330898056847
:1052700037462E681E402E6082F31088EFF31082AE
:1052800081F3108803689D688D439D6082F31088C8
:10529000EFF3108281F3108803689D684026B543C0
:1052A0009D6082F31088049B039ADA600022C26634
:1052B000EFF3108281F3108800680168B943016040
:1052C00082F310881868FEF737FB022108980167FF
:1052D00021886288891A89B2FFF725FE09B0F0BDDE
:1052E0000246002A049CA1D10420186220690222EF
:1052F000024322610798000709D50198039A1040DC
:10530000054304D0082018622269024322610298F2
:10531000820601990A4050425041079A324208D110
:1053200006980028039A09D0206900280DD109B0F9
:10533000F0BD069006980028039AF5D11E622069F8
:105340001043206120690028F1D0079810400DD04B
:105350000098074011403943049C08D00898416FD9
:10536000002904D0089C204688472368049C2069B3
:105370002822024098684021084080181CD10898D3
:10538000FFF75AFE0020206109B0F0BDEFF3108155
:1053900086F310880898026814689C43146081F3AF
:1053A0001088002181670499039A8A6000F06AF9E5
:1053B00009B0F0BD20010004EFF31080029E86F3D7
:1053C000108809225201089B1C68256895432560B6
:1053D00080F31088EFF3108086F310881A689468C1
:1053E0002C4D2540956080F31088D86E01280CD193
:1053F000EFF31082029880F3108808980068036821
:105400001024A343036082F31088049C0398E06097
:105410000020089AD066506710688068400622D540
:10542000EFF31082029880F3108808980068836870
:105430008B43836082F310882168002913D01648BB
:1054400088630846FEF7B0FA002800D16FE7049899
:105450000068816B884709B0F0BD0898816F00290A
:1054600000D00DE663E70898FFF7E6FD09B0F0BD50
:105470000898FFF7DFFD09B0F0BD0026E80100D471
:1054800057E63446002C00D051E70898FFF74CFD52
:1054900009B0F0BDFEFFFFEFAD8F0008DFFEFFFF9C
:1054A000B0B500281ED0044605468435686800283B
:1054B00004D100202870204600F02AF824206860DB
:1054C000206801680125A9430160A06A002802D074
:1054D000204603F09AFC204603F008FE002803D083
:1054E0002846B0BD0120B0BD0920C00221684A682D
:1054F00082434A6088682A229043886008680122B3
:1055000002430A60204603F0E9FC05462846B0BD88
:1055100070B586B00446002505950495039502955F
:10552000019500682449884201D006B070BD234827
:10553000016A032291430162012104918903C26837
:105540000A43C260C2680A40009200990221029197
:1055500002680A43026000680840009005950395C0
:10556000C02001900098164801A9FEF7C1FB5A4ED1
:10557000802010213322134BF36032617161B561D9
:10558000F06135627562B562F56235460C352846C4
:10559000FEF7B6FA002801D0FDF78AFD7463E567CF
:1055A0001B24032100222046FFF7BAF82046FFF70C
:1055B000ABF806B070BDC046003801403410024060
:1055C0000004005080000240F0B581B013468822EC
:1055D0008258202A12D1012400290CD0002B0AD095
:1055E00001263203846894420CD1CA070AD00269AA
:1055F000002A07D13446204601B0F0BD02242046DF
:1056000001B0F0BD0246543207468837538000246B
:10561000BC601380016521223A60C56F002D18D04F
:10562000174AEA62154A2A63134A6A63AC6302683E
:10563000283200902846FEF7E3FA01460098002938
:1056400007D01020B860202038603446204601B0D2
:10565000F0BD016840220A62EFF31081012282F35B
:1056600010880068826880231343836081F3108868
:10567000204601B0F0BDC046C58F0008E390000889
:105680009990000810B5144C6068002812D00121D0
:105690002170A268114989181318BF2B0DD882B246
:1056A0000F48FFF791FF6068A1680918002060604B
:1056B000A16010BD0020207010BDC020801A82B2F1
:1056C0000748FFF781FF6068A1680818C03800210B
:1056D0006060A16010BDC046D4000020702B002087
:1056E0009824002070470000BFF34F8F04480549FD
:1056F0000160BFF34F8F00BF00BF00BF00BFFAE7DC
:105700000CED00E00400FA0580B5074800688069E8
:105710004005400F03D00448FEF720FC80BD02483E
:10572000FEF75DFC80BDC0461824002080B5806A6D
:10573000816B002901D000228A6301464031C26B8F
:10574000002A01D0002393634A78602A07D12022DF
:105750004A7000220A700263FEF7FEFB80BD002241
:105760000A700263FEF744FC80BD80B50121C903C5
:10577000806A026853680B435360102100F0FEF802
:1057800080BD000010B50121CA03846A2168086841
:1057900090430860608D002808D0208D626A12183E
:1057A0006262608DFF2812D9FF2311E0626B494BC2
:1057B00060209A4203462BD1474CA24204462CD18A
:1057C000464B9A422DD10A6802430A6010BD638D90
:1057D0002385E06B2431FEF713FA002804D0102152
:1057E000204600F0CBF810BD616B3A48081A4342DE
:1057F0004341394A40209142024600D09A01374B3A
:10580000994200D0104621680A6802430A6010BD20
:105810002023314CA2420446D2D01C462F4B9A4240
:10582000D1D020460A6802430A6010BD10B501219C
:105830008903846A2268106888431060608D00289C
:1058400008D0208D616A09186162608DFF2812D925
:10585000FF2311E0616B1F4B6020994203462BD15F
:105860001D4CA14204462CD11C4B99422DD11168EC
:105870000143116010BD638D2385A06B2832FEF7B4
:10588000BFF9002804D01021204600F077F810BDA1
:10589000616B1048081A434243410F4A402091422D
:1058A000024600D09A010D4B994200D01046216863
:1058B0000A6802430A6010BD2023074CA142044637
:1058C000D2D01C46054B9942D1D0204611680143E5
:1058D000116010BD81670008F16100086165000872
:1058E000F0B581B006464036717828220A40056836
:1058F000282A1DD1A969AC69AB68EA680092FE222A
:10590000240CC903C90FC768022F17D1DF096740EC
:105910007C07A40F1ED0009B1340002232702A681F
:10592000B824A2432A601A46FEF717FB01B0F0BD67
:10593000002030700820E86101B0F0BD0023337012
:105940002B68B826B3432B6014402246FEF705FBB4
:1059500001B0F0BD826C521C8264826C022AEBD1D1
:10596000054C1A4622400023836433700823EB6100
:10597000FEF7F3FA01B0F0BDFF03000070B5044676
:10598000054640356A780020A870AB4BE36260851D
:10599000636C0B4363646978283A022A0AD828208A
:1059A0000140282916D0F2216A780240282A16D10F
:1059B000042215E0697821680A68FE239A430A6088
:1059C0008A6992075BD48A69D2075CD06A78602AB8
:1059D0000DD05FE042216A780240282AE8D0B42244
:1059E0000A4321680B6893430B6068703848606312
:1059F000A06B226B00281CD0212A01D0112A18D1BB
:105A00000A68520404D5012292030B6893430B6089
:105A1000FEF702F801281FD000202870A06B2D4946
:105A20008163FDF7C1FF002828D0A06B816B8847F8
:105A300070BDE06B00280FD0222A01D0122A0BD1B2
:105A40000A68120404D50122D2030B6893430B6049
:105A5000FDF7E2FF01282DD16878602808D12020C9
:105A600068700020287020632046FEF775FA70BD2C
:105A70000020287020632046FEF7BAFA70BD8862C5
:105A80008A69D207A2D18A69012313438B616A789C
:105A9000602AACD020226A708B699B06A7D58B69DF
:105AA000DB0605D51023CB61636C04261E436664B8
:105AB000CA619CE700202870E06B06498163FDF70E
:105AC00073FF0028DAD0E06B816B884770BDC04659
:105AD0009D6800082D570008B0B5574AC2620022E1
