:020000040800F2
:1000000018430020CD000008598000080D61000849
:1000100000000000000000000000000000000000E0
:1000200000000000000000000000000045960008ED
:10003000000000000000000081820008D596000842
:10004000DF0000080000000041880008DF00000811
:10005000DF00000841300008693000087D300008EA
:1000600000000000DF000008711E00084D1E00089F
:100070001D0B0008DF000008DF0000080000000082
:10008000DF000008DF000008DF000008DF000008D4
:10009000DF000008DF000008DF000008DF000008C4
:1000A0002D610008DF000008DF000008BDA1000886
:1000B000DF000008DF0000080348854600F082FCEE
:1000C00000480047D5A8000818430020044880478E
:1000D00004480047FEE7FEE7FEE7FEE7FEE7FEE72F
:1000E00029980008B90000080549064A08685043E5
:1000F000054A801808604008704701490860704749
:10010000000000206D4EC6413930000010B5431A82
:10011000934209D28318881803E0401E01785B1EC1
:100120001970521EF9D210BD03460B439B0703D032
:1001300009E008C9121F08C0042AFAD203E00B78AC
:100140000370401C491C521EF9D210BDD2B201E00E
:100150000270401C491EFBD270470022F6E710B522
:1001600013460A4604461946FFF7F0FF204610BD25
:1001700010B5044605E00B780370401C002B00D03E
:10018000491C521EF7D2204610BD421C0178401C6B
:100190000029FBD1801A704703460A780270401C80
:1001A000491C002AF9D118467047F8B502464A4062
:1001B000D40F42004B0052085B089A4202D202461A
:1001C000084611464A0023D0C30D4A00DDB2120E84
:1001D000AD1A202D35DA49020126490AF6058A1999
:1001E000002C00D0524220214F1B1146B9402A4119
:1001F0001018C20D9A4221D0002C17D0012D08DC16
:10020000DA05801AD20F8019D207DBB200F0AEF9FE
:10021000F8BDDA05801A012340001B06C0188018BB
:100220005A428018CA0F1043490007E04908C20724
:100230001143DA05801A80194008801800F08EF901
:10024000F8BD61000122511A001BF7E70122D20715
:100250005140AAE70122D2075040A6E7024670B5F6
:100260004A40D30FDB0740002DD04A002AD0010EB0
:10027000140E000212020919400A520A8418E501FC
:1002800004465443000A120A2E045043A41942198A
:10029000200CC543AA18120C0125AD03521C52199B
:1002A00012047F39240400D0521C104301D44000B2
:1002B000491EC2B20C06C0092018401C4008802A02
:1002C00002D003E0002070BD40084000002900DAA1
:1002D0000020184370BD70B502464A40D50F40005B
:1002E0004A00ED0740085208002814D0002A12D016
:1002F000C40DD30D41020120C0055202490A520A21
:10030000E41A091812187D34914201D3641C00E0EC
:100310004900002C01DA002070BD0023914201D376
:10032000891A0343400849000028F7D100290AD060
:10033000914202D10121C90705E0914201D2012178
:1003400001E00121C943E005C018401900F006F999
:1003500070BD0122D207002800DB101A002900DB43
:10036000511A814201D801207047002070470122B4
:10037000D207002800DB101A002900DB511A814245
:1003800001D201207047002070470122D2070028C7
:1003900000DB101A002900DB511A814201D3012031
:1003A0007047002070470122D207002800DB101A96
:1003B000002900DB511A814201D901207047002039
:1003C000704710B5002904DB0C460121C9074042E3
:1003D000A141002B04DB1C460123DB075242A34151
:1003E000801A994101D2012010BD002010BDC21712
:1003F000C10F504010B54018CA079623002100F0E5
:10040000B5F810BD10B500229623114600F0AEF8E5
:1004100010BDC20F410040020123400ADB05D20794
:10042000090EC0187F2901DA00207047962903DCE5
:100430009623591AC84001E096398840002AF4D022
:1004400040427047C20FD207400040080BD0C10D98
:100450000723DB01C91840020905400A1143C208FD
:1004600040071143704700200146704770B50446AD
:10047000002903D000202022012310E0002801D011
:100480000020C043C046C0460DE02546D5408D4201
:1004900005D30D469540641B1D46954040191546F1
:1004A000521E002DF1DC214670BD000070B5002504
:1004B00004462E46002911D0002C01DA01254442C1
:1004C000002901DA012649422046FFF7CFFFB54255
:1004D00000D04042002D00D0494270BD002C02DA0D
:1004E0000121C90702E0002C00DD03490846C0468F
:1004F000C046214670BD0000FFFFFF7FF0B51FB46E
:100500000646002082B005464024019100901BE081
:10051000019922460F46304600F07CFA049A059B6A
:10052000801A994110D310461946224600F062FA0B
:10053000361A8F410197224601200021009F00F0CA
:1005400059FA38184D4100902046641E0028DFDC1F
:10055000019B00982946324607B0F0BD002904DA15
:10056000401C490001D140084000704770B400248D
:10057000050C05D11024000402D1002921D011243A
:10058000050E01D100020834050F01D10001241D20
:10059000850F01D18000A41C002801DB4000641CF1
:1005A000002908D020252E1B0D46F540A14000D083
:1005B00001212943084301061B1B000ADB1D02D54C
:1005C000002070BC7047DB05181880180029F8DA85
:1005D000401C4900F5D170BC40084000704770B520
:1005E000002801DC002070BD410040020126400AC5
:1005F000F605090E8019CA0701D14000491E4D10A9
:10060000002211463F353346CB409B18D418844214
:1006100001D8001B1A464000491C1729F3DD510080
:10062000814202D20021C94300E00021E805801880
:10063000FFF794FF70BD0000F0B50746084658402C
:1006400087B0C00F049048000E4659004008490882
:10065000BC1A884105D2384631461E4617460B461D
:1006600002465800400810434CD0300D039040051E
:100670005900400D490D0590401A0290402872DA49
:1006800018030121000B090508430190049800920A
:10069000002805D001995242002088410092019023
:1006A000029840210A1A0199009800F0A3F9054622
:1006B0000C466B4607CB00F0BEF9C0197141039A96
:1006C0000E0D0023D71756401A467A40164344D0E1
:1006D000049A002A2DD0029A012A039A15DC1205E9
:1006E000C01A914101263605001C7141D20F059EAA
:1006F000D2070093019202962A46234600F0BBF9E6
:1007000007B0F0BD38463146FAE71605224A0F46D3
:10071000B218C01AB74101210905001C4F41001849
:100720007F41114618187941E20F10436D19644159
:1007300013E0E2076D0815436408C2071443039AE7
:1007400001261205C01A91413605001C7141CE07E1
:10075000400830434908C01851412A46234600F05A
:100760007DF9CDE7FFE7049801224000C117121A76
:1007700000238B4104983146C417381AA141EEE793
:1007800030B40124E407634030BC55E730B40124A1
:10079000E407614030BC4FE70000E0FFF0B51FB454
:1007A00088B00B990998002448400999C00F490066
:1007B00049080991C0070B990090490049080B911D
:1007C00009990898A64608431CD00B990A98084333
:1007D00018D0099801244000420D4800410D0998A5
:1007E00024050003000B204309900B980003000B25
:1007F00020430B9050181C494018002201901446C9
:10080000104605E0002001460DB0F0BD032801DAD6
:10081000034600E003239C46C11A0AAE0AE05F00CB
:1008200008ADED5B4F00F75B7D430027AA187C41C4
:10083000491C5B1E6145F2DD410004AB5A522104A4
:10084000120C0A43240C401C0828DFDB019802909C
:100850000099704601910090059B049A07990698AB
:1008600000F009F9D0E700000DFCFFFFF0B50C46E1
:100870005C4085B0E40FE40703944C000026640854
:1008800059009446490802460296224321D0624606
:100890000A431ED06200570D4A000E032303550D74
:1008A000012402462C492405781B1B0B360B4018EB
:1008B00023432643614600901C46501AB44103D39B
:1008C0000098401C009002E0921800985B410028BC
:1008D00003DA0020014605B0F0BD00200121090522
:1008E0000746864611E064461D46141BB54106D3F3
:1008F0006546521BB341744607430C43A646CD07D9
:1009000040084908284392185B4105460D43EAD147
:100910001046184313D060461946504071400843B2
:1009200006D06046101AB34106D20122002306E029
:1009300000220123DB0702E00122D243531000987A
:1009400074460105381C6141029C039D00196941F0
:1009500000F084F8BFE70000FD0300004A0009032F
:100960000123090B1B0519430A4B10B5520D9A427E
:1009700002DA0020014610BD064B34339A4203DCF4
:100980009A1A00F047F810BD034BD21800F032F865
:1009900010BD0000FF030000CDFBFFFF10B50029D4
:1009A00004DB0124E40740428C412146002B04DB98
:1009B0001C460123DB075242A341994200D19042D9
:1009C00010BD00001CB5094800900948019005467B
:1009D0000126009C05E0E36807CC33430C3C9847B4
:1009E0001034AC42F7D3FFF76BFB0000A4330108CF
:1009F000C433010810B5202A04DB0146203A914097
:100A0000002010BD914020239C1A0346E340194367
:100A1000904010BD10B5202A04DB0846203AD04093
:100A2000002110BD0B46D340D0402024A21A914093
:100A30000843194610BD10B5202A06DBCB1708461F
:100A4000203A1041C1170B4306E00B461341D0403A
:100A50002024A21A91400843194610BD10B5002B5E
:100A600008DA0024401C614192185B411A4301D10D
:100A70004008400010BDF0B51FB482B005460C0020
:100A800003D008460EF042F902E00EF03FF92030A4
:100A90000246009021462846FFF7ACFF049B059ACA
:100AA00004460F4618431143084314D01846104318
:100AB0001BD0009840210A1A18460599FFF7AAFF93
:100AC00005460E46009A05990498FFF793FF0843E0
:100AD00005D0012004E02046394607B0F0BD0020D3
:100AE000C11705430E432C43374300990E98630505
:100AF000401A7905E40A00220C43FD0A0A3002D5A7
:100B000000200146E9E70105101969410C9C0D9D83
:100B100000196941FFF7A2FFDFE7000080B5E04858
:100B200003F047F980BDC046B0B50146806A836DC9
:100B3000826D5024234206D0D20610D4006D426B41
:100B400008469047B0BD01214B021A4382650268F6
:100B5000D3681B059B0F05D003F028F9B0BD03F047
:100B600027F9B0BD837E002BF6D113681B07F3D5A0
:100B700093685B070ED40346583354680C25AC4386
:100B80005460FF2402341A68A2430A431A6003F037
:100B90000DF9B0BD826D20231343836503465C339A
:100BA000C26D0A431A6003F001F9B0BD80B5806AD6
:100BB000816D40220A438265C16D04220A43C265E9
:100BC00003F0F6F880BD80B5806A03F0F0F880BDD0
:100BD000F0B581B005460024009400688168C9071B
:100BE0001CD181682D4A2F3211420AD0A86D1021E4
:100BF0000143A965E86D01242043E865204601B062
:100C0000F0BD8168254A114001273943816024489D
:100C10000068000205D4687E012825D1204601B075
:100C2000F0BD204800682049FFF720FC401C0090E0
:100C300000980028EFD00098401E009000980028EF
:100C4000E9D00098401E009000980028E3D000985A
:100C5000401E009000980028DDD00098401E0090B3
:100C600000980028E7D1D6E703F02CFE0646286856
:100C70000168C907D2D18168C90704D18168074AD0
:100C800011403943816003F01DFE811B2868032950
:100C9000EED30168C907EBD1A8E7C046E8FFFF7FA4
:100CA0000827014088000020400D0300F0B581B006
:100CB0007A4F3878411C3970042847D17948008828
:100CC000FFF7A0FB7849FFF7C9FA0446F869FFF778
:100CD00099FB01462046FFF7FEFA0446734E70600A
:100CE000B869FFF78FFB01462046FFF7B7FA704D52
:100CF0002946FFF7F0FA6F49FFF757FA6E49FFF7F9
:100D0000ADFA6E49FFF751FAB0606D492046FFF722
:100D1000A5FA06467869FFF775FB01463046FFF7EE
:100D20009DFA2946FFF7D7FA6649FFF73EFA0546CE
:100D30006549FFF71CFB002800D000257D60634853
:100D400000780028594E1CD0F46827E03946083155
:100D50005348042203F0A6FA502009F0E7FD388931
:100D60003969081838617889796908187861B8890B
:100D7000B9690818B861F889F9690818F86101B00B
:100D8000F0BD3869FFF73EFB01462046FFF766FAE3
:100D90001D214906FFF762FA0446F0604C492046DF
:100DA000FFF7F3FA411E8841797801430125C8070E
:100DB00007D17D7047A007F09DF94A4802210170D4
:100DC000F46849492046FFF7C4FA002801D1002001
:100DD00078703078042851D87844007940008744EE
:100DE000023911250A0041492046FFF7DCFA0028A4
:100DF00046D0012543E043492046FFF7B8FA0028D2
:100E00003ED011E03B492046FFF7CDFA002805D13E
:100E100039492046FFF7ABFA002831D03649204641
:100E2000FFF7A5FA00282AD1032528E033492046F8
:100E3000FFF7B9FA002805D131492046FFF797FAA4
:100E400000281DD02E492046FFF791FA002822D114
:100E5000042514E026492046FFF7A5FA002805D10D
:100E600021492046FFF783FA002809D01E49204671
:100E7000FFF78BFA411E8841450000E000253570E0
:100E8000002038617861B861F8613870502009F04D
:100E90004DFD01B0F0BD0225F1E7C046B4030020CE
:100EA00018260020AA75FF1F00004040680000209F
:100EB00000F07F455C8F42BF0000C8430000C8417E
:100EC0005C8F5A43BE9F12C100002041D603002010
:100ED0006666464042617474657279204C6F772172
:100EE00021000000480000209A995940CDCC5C4078
:100EF0009A99694000007040666666409A99794008
:100F0000CDCC6C40666676401920000109F00EFDDC
:100F1000FFF7CCFE09F05AF9FAE7B0B500282FD058
:100F2000002B2DD0049C002C2AD0069D197118602E
:100F3000032080045862002A03D02079012800D1C0
:100F40001A6305981C61002D00D01D6200282146FF
:100F500001D0836001465961E068002807D021690B
:100F60009961CB612361E169491CE16105E00021E0
:100F7000E161E36023619B611846D861D9608361B8
:100F8000B0BD10B50024CC600C6108600120487130
:100F90008B610A7110BD00F0B5F87D2084002E2011
:100FA00000F000F9052009F0C1FC00F07DF82046B2
:100FB00009F0BCFC07F04AFCF42000F0F3F81A201A
:100FC00009F0B4FC00F006F8204609F0AFFC07F089
:100FD0003DFCE4E770B5784CF6202070EE26012544
:100FE000304621462A4606F069FA03223046214659
:100FF00006F0BAF820780004617809020818A17890
:10100000401860616069401160611E20205EE168E7
:101010001F4A89184843C0122A22A25E0B464B433E
:101020001B0B5A43D2121018C0001C22A25E5201A0
:10103000801880106269121A164850432026A65F55
:101040004E4371132826A65F5E433314C918891CCA
:101050008910EB03C918638C4B43D90B002804D4C7
:101060000D485043FFF702FA02E0FFF7FFF9400096
:101070000A494143091402125243094B53431A0CC3
:101080008918084A891809110818A06170BDC0465E
:1010900060F0FFFF6A180000D430000043E3FFFF58
:1010A000DE0B0000CF0E0000B0B5434CF6202070E0
:1010B000EE2501222846214606F000FA02222846A3
:1010C000214606F051F8208840BAA0603020205E0A
:1010D000E18CA268511AA28C4A43D51329182E20FC
:1010E000205EC002FFF7E2F92818E060083000092E
:1010F000FFF788F90249FFF7B1F82061B0BDC0469B
:10110000CDCCCC3D70B52C4DD0202870EE240126DE
:1011100020462946324606F0D1F9291D204632469E
:1011200006F022F8686855283AD1AA202870EE26E1
:1011300001223046294606F0C1F92C461C341622FD
:101140003046214606F010F8687F297F69772877B6
:10115000E87FA97FE977A8776079217961712071AB
:10116000E079A179E171A071607A217A61722072CF
:10117000E07AA17AE172A072607B217B61732073B7
:10118000E07BA17BE173A073607C217C617420749F
:10119000E07CA17CE174A074607D217D6175207587
:1011A00070BDC04680B504494870F4200870EE2038
:1011B000022206F083F980BD7001002010B582B0D4
:1011C00001A9012008707E223E23014607F07AF82B
:1011D000214800F0F3FF0424102120A2204600F053
:1011E00081FF1E2122A2204600F07CFF2C2126A296
:1011F000204600F077FF3A2128A2204600F072FF37
:1012000000F09AFF09F0B2FA00280DD100240A205C
:1012100009F08CFB09F0AAFA002805D1601CFF2117
:10122000F4318C420446F2D301A800F0C1FF002043
:1012300080224023014600F00DFF00F07DFF09F001
:1012400095FA002806D10A2009F070FB09F08EFA01
:101250000028F8D002B010BD462401084275726E15
:101260002D696E207465737420697320666F720037
:1012700066696E64206F7574206465636179696E58
:1012800067206F66000000004F4C45442073637276
:1012900065656E2061667465720000006C6F6E6734
:1012A0002074696D65206C6967687475702E000024
:1012B00082B006F045FA0020C443344D344F354E19
:1012C00002E00A2009F032FB06F0D8F906F03EFAF7
:1012D00028780028F5D1002006F0BAF9002809D0B6
:1012E00001A90120088038680022234609F0F0FB9C
:1012F00008F0A2FF012006F0ABF900280AD0FF2079
:10130000023001A9088038680022234609F0E0FB7A
:1013100008F092FF022006F09BF9002808D001A9EE
:101320000E8038680022234609F0D2FB08F084FFC3
:10133000032006F08DF9002809D001A9164808807D
:1013400038680022234609F0C3FB08F075FF04202B
:1013500006F07EF9002809D001A9104808803868F5
:101360000022234609F0B4FB08F066FF052006F0D2
:101370006FF90028A5D001A9094808803868002223
:10138000234609F0A5FB08F057FF9AE7D603002093
:10139000BC00002001020000010300000104000065
:1013A00001050000F0B589B0EF4C3434EF48012757
:1013B000002621463A4606973346FFF7E2FDEC4801
:1013C0000094254601960290EA4802210491EA4AD7
:1013D000EA4C2346FFF7A1FD0296E94801900095EB
:1013E0003434E848E84A31462346FFF796FDE7489B
:1013F000E34C21463A4607952B46FFF7C2FD00A86D
:1014000070C0234627463433E1480625E14A294681
:101410000895FFF782FD0296DF4B1C463434019499
:101420000097DE48DE4A3146FFF777FDDD4821466A
:1014300032463B46FFF7A5FD009401970296DA4835
:10144000DA4B29463246FFF768FD00940196029672
:10145000D7480327D74D394632462B46FFF75DFD67
:101460000094019602963435D348394632462B46CD
:10147000FFF753FD009401960296D048D04D3946AF
:1014800032462B46FFF749FD00940196029634350B
:10149000CC48394632462B46FFF73FFD0296CA4CF0
:1014A0000194B74D0095C14B3433C848C84A314602
:1014B000FFF733FDC748214632462B46FFF761FD53
:1014C00000A870C023463433B74808993246FFF766
:1014D00024FD009401960296BF4D2B463433BF483D
:1014E00039463246FFF719FD009401960296BC4832
:1014F0003946059732462B46FFF70FFD00940196BB
:101500000296B84D2B463433B74839463246FFF77A
:1015100004FD009401960296B448394632462B46A3
:10152000FFF7FBFC009401960296B14D2B46343335
:10153000B04839463246FFF7F0FC00940196029617
:10154000AD48394632462B46FFF7E7FC0296AB4BD7
:101550001C46343401948A4D0095A94831468A4A84
:10156000FFF7DBFCA748214632462B46FFF709FD73
:1015700000A870C0A44B8C4808993246FFF7CDFCF8
:10158000009401960296A148A14F059D2946324636
:101590003B46FFF7C2FC00940196029634379D4803
:1015A000294632463B46FFF7B8FC00940196029666
:1015B00099489A4C294632462346FFF7AEFC0296DC
:1015C000974D0195079F00978F4B343395A0984A0C
:1015D0003146FFF7A2FC9748294632463B46FFF7C3
:1015E000D0FC0095019702962B4634336848089941
:1015F0003246FFF792FC00950196029634348E48ED
:10160000059F394632462346FFF787FC0095019631
:1016100002968A488A4C394632462346FFF77DFCBB
:101620000095019602968748874D394632462B46EB
:10163000FFF773FC7A48009001960296343583A038
:10164000394632462B46FFF768FC754800900196F4
:101650000296343481A0394632462346FFF75DFCBA
:101660000296824B1C4634340194079D009580A05D
:10167000814A3146FFF751FC80A02146069A2B464D
:10168000FFF77FFC00A870C07F4D41480899414A90
:101690002B46FFF742FC7D480094019602903435BA
:1016A0007BA07E4A049F39462B46FFF736FC7C48D8
:1016B0000094019602907BA07E4A7F4D39462B46CE
:1016C000FFF72BFC7D4800940196029034357CA0F6
:1016D0007F4A39462B46FFF720FC02967D4B1C467D
:1016E00034340194079D00957BA07D4A3146FFF775
:1016F00014FC7CA02146069A2B46FFF742FC00A86A
:1017000070C07B4D22480899224A2B46FFF705FC02
:10171000009401960296343576A07A4A39462B46D3
:10172000FFF7FBFB784800940196029077A07A4A75
:101730007A4D39462B46FFF7F0FB0094019602964E
:10174000343577A07A4A39462B46FFF7E6FB0798EF
:1017500000900196029677A00421784A024BFFF789
:10176000DCFB09B0F0BDC046840A0020B03101089E
:1017700095880008B93201083E2C0108EC0A0020C7
:10178000540B0020E13201086E290108C331010821
:10179000EA310108C62B0108BC0B002013330108F5
:1017A0002E2D0108F1310108CD310108240C002053
:1017B00009330108DC060020C93201085E32010845
:1017C00044070020263201088C0C002095320108C5
:1017D000E6290108BC3101087C080020FB31010822
:1017E000A232010814080020DB3201089C320108F3
:1017F000AC070020AA320108C3320108F40C002013
:10180000B1320108D43101085C0D00206E320108AC
:10181000E408002038320108EB3201084C090020AE
:10182000C40D00202D53746174697374696373006F
:101830001E2E0108DD31010803320108F9320108CA
:10184000B4090020853201081C0A00202041697279
:101850002050726573737572650000002043505507
:101860002054656D70726174757265002C0E0020D5
:101870002D546F6F6C730000862F01085B546F6FDF
:101880006C506167655D0000940E00203D390008D2
:101890002D4772616469656E746572004E2B010894
:1018A00049A200082D493243205363616E6E657270
:1018B00000000000B62C0108FC0E0020BD1100083D
:1018C0002D4275726E2D696E205465737400000090
:1018D000F6280108640F00202D47616D6573000034
:1018E000D62A01085B47616D65506167655D000040
:1018F000CC0F00202D47616D6520546574726973AB
:1019000000000000962E0108193100082D47616D76
:101910006520536E616B6500A62D01083410002010
:101920002D47616D652044696E6F736175720000AB
:101930005E2A01082D41626F757400000E2F0108A8
:10194000F0B587B00590BC4C01263F20A687BB4967
:10195000BB4ABC4B23636263A1637F21C905049129
:10196000E06426656165204630308673B64D686058
:10197000291DB64F384600F063FAB54CA673022015
:101980000390607305990C31B2A003C4083CEC606D
:10199000343729460C31384600F052FAB0480A2153
:1019A0007D2202929200019264326264A164E0643A
:1019B00020462830374606968673002105914173EC
:1019C000A849A94AA262E162686129461431A74E7A
:1019D000304600F035FA2046503087730399417342
:1019E000A349A44A22656165E861343629461C3161
:1019F000304600F025FAA04F6320F8610598386260
:101A0000049C7C620698B873B8819C4A9C48183044
:101A10009CA139607860BA606F62294624319B4E80
:101A2000304600F00DFA0C2078640699B964FC6425
:101A3000384628308173B9869149143194A2BA622C
:101A4000F9628E493963E862343629462C313046D2
:101A500000F0F6F91F20F866069939677C6738466A
:101A6000503081738181864910318BA23A65796546
:101A70008249B965686329463431894E304600F0A1
:101A8000DFF9884F1720F861059C3C620498786262
:101A90000698B873B8817A48083083A139607860B5
:101AA0007648B860EF63343629463C31304600F062
:101AB000C7F93B2000907864BC64049CFC64384601
:101AC000283006998173B9866D49091D78A2BA62DA
:101AD000F9626A493963686429464431764E304672
:101AE00000F0AEF90098F866059838677C673846CC
:101AF000503006998173818170A13965604979659B
:101B00005E49B965E864343629464C31304600F008
:101B100097F96C4C6C486D49E161019921626062F2
:101B20000698A073059F677369486AA12160606089
:101B30006C65294654316A4E304600F081F9694897
:101B40006421029AD2006264A164E06420462830D5
:101B5000069981734773644964A2A262E162E865F1
:101B6000343629465C31304600F06AF92046503060
:101B7000069F877303994173604961A22265656579
:101B8000A165686629466431614E304600F058F917
:101B9000604A059C947357735F4860A11160506060
:101BA000EA66343629466C31304600F049F9594B23
:101BB00018462830847347735C495DA29A62D962E3
:101BC0001F46686774355E4E3046294600F038F986
:101BD0003B4638465030847327460699417359492D
:101BE00059A21A655965144D286034363046294685
:101BF00000F026F9584CA77306986073574858A10F
:101C000021606060AC6029462E460831584D284658
:101C100000F016F92046283087734773554956A2BD
:101C2000A262E1623061343510362846314600F058
:101C300007F907B0F0BDC046DC0300206D210008A5
:101C4000840000200A33010860020020DC06002026
:101C5000340400204D656E75436F6C6F7200000098
:101C60000000A0407C0000204E3201084407002004
:101C70007800002014320108AC04002049960008C6
:101C8000F40200205965617200000000AC070020DA
:101C90004D6F6E74680000004461746500000000C0
:101CA0001408002024050020486F75720000000011
:101CB0004D696E75746500007C0800205365636F84
:101CC0006E6400009C0500200000FA4388130000A9
:101CD000A40000204E6F74692054696D65000000F7
:101CE000E40800200000C84280000020576B757097
:101CF000496E616354696D6500000000E57F00086E
:101D000053797374656D205265736574000000002B
:101D10004C090020140600207400002042617474F5
:101D200065727920566F6C7461676500B803002096
:101D30004368617267652043757272656E74000056
:101D4000B4090020700000204A756E6374696F6EDC
:101D50002054656D700000008C060020800100207A
:101D60004169722054656D7072617475726500000E
:101D70001C0A00208801002041697220507265739E
:101D80007375726500000000B0B5084906200C228A
:101D9000074B084C0D462035CD610C624B628A62C0
:101DA000C8621831044800F04BF8B0BDDC030020D5
:101DB0004624010855310108840A0020F0B581B09D
:101DC0000D460446FFF7EEFA2046FFF7B9FD204620
:101DD000FFF7DAFF7D20C00584216050A421134A5B
:101DE00062500C2300212826102727616661A1611B
:101DF000E361218425606560254684350C4B69606C
:101E0000AB600C4E6665A265E2652646243607C6C1
:101E10002173A861E961084A25466C3507C5074862
:101E2000E0632364636401B0F0BDC0468FC2F53C3B
:101E30000AD7233C9A99993ECDCC4C3DCDCC4C3E13
:101E4000002802D0002900D08160704780B5054885
:101E500002F0F8FA044802F0F5FA044802F0F2FA47
:101E600080BDC046342700207C260020EC000020E6
:101E700080B5024802F0E6FA80BDC046D8260020B0
:101E8000F0B58BB01F462023C35C05900446CC34CC
:101E900010980990042B00D0BFE004920691079798
:101EA0000894A088FEF7AEFA7D21C9050391FEF7DC
:101EB000D5F905467F20C70528463946FEF757FA6B
:101EC00004460320810728460291FEF76EF9002C94
:101ED00000D1054628462946FEF7C0F90146384696
:101EE000FEF7B4F90DF0A4FB5649002C00D1394699
:101EF000FEF75BF906460798FEF779FA0146BF2020
:101F000005063F200206002C284600D1104601920B
:101F1000FEF7A4F93146FEF7A1F9FEF77AFA08991F
:101F200008808888FEF76EFA0399FEF797F906464F
:101F30003946FEF71CFA044630460299FEF735F999
:101F4000002C00D1064630463146FEF787F901469F
:101F50003846FEF77BF90DF06BFB002C394900D1B8
:101F60003946FEF722F906460998FEF740FA01467F
:101F7000002C00D1019D2846FEF770F93146FEF78E
:101F80006DF9FEF746FA0290089948800888039098
:101F90000598007B0AAF3870384600F009F90698BA
:101FA00085B2049886B2079882B228463146029BD1
:101FB00000F050F801200A9941403970384600F08D
:101FC000F7F803980699401882B2284631463346FE
:101FD00000F058F8029C049FE01983B2284631466D
:101FE0002A4600F04FF80998C019079F011B8BB2D1
:101FF00084B206983E18B5B2284621462A4600F01B
:1020000041F80398301A82B228462146234600F050
:1020100039F8089CA088401CA0802088B8420CD1C8
:1020200060880999884208D10599203103200870F9
:102030000020A08001200BB0F0BD00F07DF8002052
:102040000BB0F0BD000080BF80B5774809F0D8FA2A
:1020500080BDC04610B582B014460A4601460093C2
:102060007148234609F0D7FA02B010BD10B582B00E
:1020700014460A46014600936B48234609F08EFB3E
:1020800002B010BD10B582B014460A460146009356
:102090006548234609F046FD02B010BD80B50A46EA
:1020A0000146614809F0B4FD80BDC04610B582B05C
:1020B00014460A4601460498009301905A48234664
:1020C00009F0C3FD02B010BD10B582B014460A4637
:1020D00001460498009301905348234609F067FE97
:1020E00002B010BD80B513460A4601464E4809F0BD
:1020F000D7FE80BD10B582B014460A46014604984A
:10210000009301904848234609F015FF02B010BD26
:102110004548406B7047C04638204349085C7047CB
:1021200041480068007C704780B513460A46014666
:102130003D4809F074FB80BD10B53A4C2068002181
:10214000C94308F007FD384809F04BFF206808F044
:102150008FFD10BD10B582B014460A4601460093AB
:102160003148234609F045FF02B010BD10B52D4C93
:1021700020680021C94308F0EDFC044801782A4892
:102180000AF019FD206808F073FD10BD84000020DE
:10219000B0B50446234D28680021C94308F0DAFC95
:1021A000214821460AF007FD286808F061FDB0BD0E
:1021B00080B501781C4809F029FF80BD80B5014633
:1021C000194809F029FF80BD80B5174809F080FF44
:1021D00080BDC046F0B581B0044601200502002054
:1021E000C1430F4E002C0DD00E4F386808F0B2FCE2
:1021F0000D4821460AF0E6FC386808F039FD3561E3
:1022000001B0F0BD3560074C206808F0A3FC06481B
:1022100000210AF0D7FC206808F02AFD01B0F0BDCB
:1022200018040050B8000020A82F0020F0B587B097
:102230000D4604461046FEF7DAF801464320000634
:102240000590FEF748F806462846FEF7D0F8014606
:102250003046FEF703F8FEF7DCF80490FEF7D2F8FC
:102260000646D2200690205AFEF7CCF805463046A6
:102270002946FDF7EBFF616B06460290FDF795FFDF
:102280000390A16AFDF7EAFF0746606A3146FDF751
:10229000E5FF3946FDF789FF0746A16B3046FDF79C
:1022A000D5FF0146E06AFDF7D9FF3946FDF77DFF0E
:1022B0002946FDF77AFFFEF7ACF8069960522646EC
:1022C000D23604987080B088FEF79CF801460490DE
:1022D0000598FDF7BBFF0546A064206D05902565B8
:1022E000E16C2846FDF761FF0746E0640298206331
:1022F00003996163A06328460599FDF7A7FF059040
:10230000216C3846FDF7AAFF0746E06B2946FDF72A
:10231000A5FF3946FDF749FF0546606C0599FDF7B5
:102320009DFF2946FDF741FF0499FDF73EFFFEF7AB
:1023300070F80246B0800020022529462B46FFF7A0
:10234000A1FE0698225A042A05D3009500200523F1
:102350000146FFF7ABFE07B0F0BD0000F0B58DB051
:1023600007930B920A910546007B0CA90870286818
:1023700080680468A069002807D000680021C9436C
:102380000CF01EF92868806804682B469C3306957B
:102390002A46D832149E1299607B002501280991A3
:1023A0000892059318D0002877D167683868E169EA
:1023B000884272DC216A88426FDBFEF718F83146EA
:1023C000FDF7F3FEFEF725F83860E669216A8642DC
:1023D00047DA3960E6694AE0E0690490FEF707F8F9
:1023E000014660680290076838460391FDF7DBFFFD
:1023F000002852D1206A0190FDF7F9FF04463846C3
:102400002146FDF7B4FF002847D138463146FDF795
:10241000CCFE0646039F3946FDF7C5FF002825463A
:10242000214600D1354628460C46FDF7A0FF00287E
:1024300000D12F460298076038462146FDF706FF77
:1024400005460120C00785430798801FFDF7CFFF91
:1024500001462846FDF702FF054604980199401AF7
:1024600011E0814202DD3E60314600E00146246A0F
:10247000081BC1174840411A0798801F4843FDF7C1
:10248000B6FF0546301BFDF7B2FF01462846FDF7B3
:1024900022FF2E49FDF789FE05460CAE3046FFF7B8
:1024A00087FE0A980B99079A099BFFF7D3FD3078AE
:1024B0004142414131703046FFF77AFE089800886A
:1024C000FDF7A0FF014607902846FDF7BFFE054631
:1024D000059EF060776970613169FDF766FE04461C
:1024E000306128463946FDF7B1FE0746716820463F
:1024F000FDF7B4FE044630682946FDF7AFFE2146DD
:10250000FDF753FE0446B0683946FDF7A7FE2146A5
:10251000FDF74BFE0799FDF748FEFDF77AFF0246EF
:10252000089802800A980B99099BFFF793FD06987B
:102530000068806800688069002805D00068002174
:102540000A460B460BF03BFD0DB0F0BD0000C0404D
:10255000F0B595B01F460E9208910446007B0FA976
:102560000870B648FFF72AFE20200D94205C022850
:1025700007D10E9800693969814251D0012008992C
:1025800048710D9806462036B43007900597386894
:10259000FDF7FBFD062104914843542800D3542045
:1025A0000D9980310C91079948610FAD2846FFF7CE
:1025B000FFFD0020802240230B90014609920A93E0
:1025C000FFF748FD01210F980691484028702846E2
:1025D000FFF7EEFD08980479307802280E9F0396E5
:1025E00000D04BE1012C33D0002C00D0B4E008988F
:1025F0004079002800D081E0F8680599C9680D1A73
:10260000012D50DB0D98066940203146FDF74EFF45
:102610000899C9690A1A954261DC0020C04365E047
:102620000898007901282BD00028AAD10D980569B7
:10263000402630462946FDF739FF26203A5E002025
:102640000C2A9CDB6918711A0C3A8A4299DD96E7CC
:102650000898407900286CD1F8680599C9680D1A66
:10266000012D2EDB0D98466980203146FDF71EFFB7
:102670000899C9690A1A954234DC0020C04350E029
:1026800024203C5E0D984569802630462946FDF79A
:102690000DFF0020002C00D571E76918711AA142C6
:1026A00000DB6EE76BE7451A0D980669402031465E
:1026B000FDF7FCFE0899C969081A854215DC01205E
:1026C00014E0451A0D98466980203146FDF7EEFE6C
:1026D0000899C969081A854222DC012021E0C94312
:1026E000401803E0C94340181BE0401C464301204A
:1026F000089948710D99C8698019C86138690599A8
:102700000969814228D03A79062A1AD1486A0D9A75
:10271000D061086A90610898C069002820D598E0C7
:10272000401C46430120089948710D998869801919
:10273000886138690599096981420DD03A79062A7C
:102740007ED0002A08D10D9B99690162D9690C22BB
:10275000DA614162002098610898C069002878D445
:102760000899C968002C2AD0012C51D10D9B5A69B7
:102770009B69002635465643F6188E8401262E4363
:10278000B6B2B04265D35643F618C9698E840226A4
:102790002E43B6B2B0425CD35643F618C9698E8454
:1027A00003262E43B6B2B04253D35643F618C96936
:1027B0008E842D1DAEB2C969B042DCD249E00D9BBA
:1027C0001A69DB69002635465643F618CE84012681
:1027D0002E43B6B2B0423CD35643F618C969CE84F4
:1027E00002262E43B6B2B04233D35643F618C96917
:1027F000CE8403262E43B6B2B0422AD35643F618EF
:10280000C969CE842D1DAEB2C969B042DCD220E0C8
:10281000002101220A4392B290421AD302220A43B3
:1028200092B2904215D303220A4392B2904210D33F
:10283000091D8AB29042ECD20BE0C0464624010842
:10284000086A0D9A9061486AD0610898C0690028AA
:1028500086D5386905990969814200D1D8E038796F
:10286000002800D183E20D98006800698069816AC0
:10287000079A1161C16AD160006B5061012C00D1CF
:10288000AAE2002C00D0D0E30D9C2146D431488828
:102890000F460B91FDF7B6FD01460E908520C5054C
:1028A0002846FDF7D3FC0990A064E16CFDF77DFCA0
:1028B0000A90E064059E3069C069FDF798FD014605
:1028C0002846FDF708FD0546F068FDF790FD014636
:1028D0002846FDF7C3FCFDF79CFD3880FDF792FD0F
:1028E00005460798C08BFDF78DFD014602902846EE
:1028F000FDF7ACFC05462063A66BA063606B294620
:10290000FDF753FC0746606328463146FDF79EFC01
:102910000646A16A3846FDF7A1FC0746606A2946CB
:10292000FDF79CFC3946FDF740FC0546E06A314660
:10293000FDF794FC2946FDF738FC0299FDF735FCBC
:10294000FDF767FD0799C883E76B256C606C029003
:10295000216D099820650446FDF778FC06460A9823
:102960002946FDF77BFC054638462146FDF776FCF7
:102970002946FDF71AFC054602983146FDF76EFC24
:102980002946FDF712FC0E99FDF70FFCFDF741FDFE
:1029900003460B9843800026792031460246FFF714
:1029A00071FB0798C38B042B06D30220009076207E
:1029B00000210622FFF77AFB0898C369C4680598CE
:1029C00000690D9909680969814253D0002B00D52F
:1029D00049E1304666850146069A114389B2E469A9
:1029E0008B424AD3002161850222024392B2E469FC
:1029F000934242D361850322024392B2E469934237
:102A00003BD36185E469001D81B28B42E2D234E0A0
:102A1000012C00D1C0E1002C00D006E33868FDF79E
:102A2000B4FB04994843001D0799086026240598C3
:102A3000075F3E460C3ECE600D9805690A98294610
:102A4000FDF734FD0C2F0E9A05DB68180A99081A59
:102A5000864200DC18E70598C068D168081AC117DB
:102A60004840401A012800D00EE7105F0C38079943
:102A7000C86009E7002B00D5F5E000270EE065717E
:102A80002268618DA08CFFF72DFB0898C36937463B
:102A9000E4697F1CB8B2834200DAE4E00B930E9441
:102AA0002620205EFDF7A3FC05462A20205EFDF7C8
:102AB0009EFC01460A902846FDF7C8FB06460D9D80
:102AC000A8670C98016809910660E96F3046FDF728
:102AD0006CFBE867296FFDF7C1FB0446E86E3146E1
:102AE000FDF7BCFB2146FDF760FB04463046099923
:102AF000FDF7ACFB0146686FFDF7B0FB21460E9C6D
:102B0000FDF753FB0A99FDF750FBFDF782FC0B9B89
:102B100060850C3080B25828BAD83E462079032808
:102B20006ED1A06800286BD011A8002101811291FC
:102B30001191562076224023FFF70CFBA068006815
:102B4000417B032956D8C0467944097949008F440E
:102B5000012F0B274068036811A80A2101A20CF07D
:102B6000A5F847E0256400000E9D688D02240094BE
:102B70000C3881B256200C221346FFF7A5FAA8683C
:102B8000006840680078012834D10E98408D009488
:102B90000A3881B2582008221346FFF787FA29E045
:102BA0004168002926D011A80A22FDF7E1FA21E0A8
:102BB0004068056800212846FDF7D9FB04462846F1
:102BC000FDF740FC0F46002C0DD104462846EB498A
:102BD000FDF7DBFB0028204605D10090019711A8E6
:102BE0000A21E7A204E00090019711A80A21E6A2B9
:102BF0000CF05CF80E9C618D562011AAFFF772FA5A
:102C000000255422402328462946FFF7A3FA60797D
:102C1000022820D001280CD0002800D030E72068FE
:102C2000FDF7B3FA049948435428069D00D926E7D6
:102C300026E7A08C441E0E9884840E980068FDF749
:102C4000A4FA0499484321B20E9C4018542800D39A
:102C500016E7022513E7A08C411CA184F74988429E
:102C600000D30DE70BE710A802210170FFF7A0FACF
:102C7000079D6869FDF7BBFB044628682F46FDF7F2
:102C8000B6FB01460E902046FDF7E0FA06460D9D84
:102C9000A86E0A90AE662E66F868FDF7A8FB04469B
:102CA0007868FDF7A4FB01460B902046FDF7CEFAAD
:102CB0000746686E3946FDF778FA04463146FDF757
:102CC00074FA0C90686638460A99FDF7BFFA0690C8
:102CD000A96D0A912046FDF7C1FA0446686D099076
:102CE0003946FDF7BBFA2146FDF75FFA0446E86D69
:102CF00008900699FDF7B2FA2146FDF756FA0B99AE
:102D0000FDF753FAFDF785FB01460B9007984160EC
:102D100030463946FDF79AFA07460A980C99FDF7AE
:102D20009DFA044609983146FDF798FA2146FDF7C9
:102D30003CFA044608983946FDF790FA2146FDF71B
:102D400034FA0E99FDF731FAFDF763FB0799086035
:102D50002B8B0421009182B20B98401C81B2581C2D
:102D600080B20C23FFF7A2F9FFF72EFA5DE12420D1
:102D7000059A105E079B196918610D980068006933
:102D800081622621515E0C39DA68D960C2625969C4
:102D90000163012C20D074E5242105980A91465E38
:102DA000079806610D984569099C20462946FDF75C
:102DB0007DFB002E03D46818201AB0420CDA059867
:102DC000C068F968081AC1174840401A012803D1A1
:102DD0000A98385E07990861059FF9683869C269E1
:102DE0000D9C2046FFF722FA089EF56814A80221E0
:102DF00006910170F9683869C2692046FFF716FA32
:102E0000F669386921680969814222D0002E0B9B3E
:102E100000D589E01846069C2B850121014389B223
:102E2000ED698E4217D3002129850246224392B2D2
:102E3000ED6996420FD329850322024392B2ED69D0
:102E4000964208D32985ED69001D81B28E42E3D2F6
:102E500001E0002E68D4002006E0ED690B99491CC2
:102E600088B2864208465FDB0B900E962420285ECF
:102E7000FDF7BDFA04462820285EFDF7B8FA0146A2
:102E80000A902046FDF7E2F907460C9E3061B069D2
:102E90000990B76171693846FDF787F97061B168CB
:102EA000FDF7DCF9044670683946FDF7D7F921468D
:102EB000FDF77BF9044638460999FDF7C7F9014645
:102EC000F0680E9EFDF7CAF92146FDF76EF90A99E2
:102ED000FDF76BF9FDF79DFA28851E3080B2BC28FE
:102EE000BBD80D98007B0121414014AC21702046D5
:102EF000FFF75EF9288D296B00910C271E263946B5
:102F000032463346FFF7F6F8069820702046FFF762
:102F10004FF9288D04210091394632463346FFF798
:102F2000C5F80898C66998E7059D687900281BD000
:102F300001280AD002282ED13F4801884A1C02806D
:102F40003E48814227D2002016E03B4801884C1EB3
:102F500004802868FDF719F90499414320B2081844
:102F60007F2818D8069807E02868FDF70EF904991D
:102F7000414381290CD3012068710CE000002041FD
:102F8000252E336600000000252E3266000000006A
:102F90002948002101800D9F387B0121414014A860
:102FA0000170FFF705F92A68234800883E21FFF7E2
:102FB00099F8079D2869FDF71AFA0446A868FDF7F5
:102FC00016FA01460E902046FDF740F9064638668F
:102FD000BC6EB866796EFDF7E8F80546786630464F
:102FE0002146FDF733F90C90B96D2846FDF736F907
:102FF0000446786D3146FDF731F92146FDF7D5F8E5
:103000000446F86D0C99FDF729F92146FDF7CDF836
:103010000E99FDF7CAF8FDF7FCF90799886080B2B0
:103020002F211E220223FFF715F8FFF785F8012054
:103030000399087015B0F0BDE4130020FF7F000075
:1030400080B507F0F9F831480168C90703D1016874
:10305000890705D480BD0121016001688907F9D580
:103060000221016080BDC04680B507F0E5F8274821
:103070000168090701D50821016080BD80B507F00E
:10308000DBF822480168C90617D40168890619D4FB
:10309000011F0A6892061BD4016849061DD4016805
:1030A00009061FD401210268920521D40268520545
:1030B00023D40268120425D480BD10210160016868
:1030C0008906E5D520210160011F0A689206E3D533
:1030D00020220A6001684906E1D5402101600168AB
:1030E0000906DFD580210160012102689205DDD546
:1030F0004A02026002685205DBD58A020260026859
:103100001204D9D5C903016080BDC0461018024021
:10311000EFF3108072B6FEE7F0B597B00446624850
:10312000FFF74CF8614801680269436980695118EA
:10313000C9180818FCF7E1FF2046B430079007F0E3
:1031400041FB20465430039020463C3006900194C9
:103150000C340594192000010490012002902EE007
:1031600070780A2460430A30FDF741F90546079E4E
:10317000F068FDF73CF901462846039A06F0B8FFCF
:1031800012AD02212970FDF744F9F0602846FFF7DF
:103190000FF83288B18900200090491C89B223467B
:1031A000FEF784FF059800780121414029702846E8
:1031B000FEF7FEFFFEF7C0FF0A2007F0B7FB3C4D0D
:1031C000059C2046FEF7F4FF00268022402330466F
:1031D0003146FEF73FFF21780124614012A80170BB
:1031E000FEF7E6FF2A8913AD284632A10BF07AFDDF
:1031F0000827204639462A46FEF774FF2C484289A4
:1032000028462FA10BF06EFD42203946284F2A4652
:10321000FEF768FF38782DA2784400794000874493
:1032200001221F2107F0A2FA401E052800D9B6E0AE
:103230004000C04678448088400087440500A500CF
:1032400098009A008D004903B8781F214143224815
:103250004018F978405C022800D1A0E004209DE0ED
:103260001EA200E020A2012508212846FEF73AFF11
:1032700007F07CFAC01E032800D929E178440079C0
:10328000400087440153414A7878042800D91FE15F
:103290004000C04678448088400087442B001903D2
:1032A000F800DE00EA00C04646240108F4020020CF
:1032B00038030020486967683A2025640000000050
:1032C00053636F72653A20256400000020506175D9
:1032D00073656420200000008424002047616D6530
:1032E000204F766572210000566963746F727921F0
:1032F000212100003878012800D09CE1002038709E
:10330000387801281BD0E7E07878032819D8401CCA
:1033100078703878012812D0DEE03878012800D0A3
:10332000D6E03E703878012809D0D5E078780028BA
:103330000CD0401E78703878012800D0CCE0FBA17A
:10334000CBE07E7038780128F9D0C5E00420787091
:1033500038780128F3D0BFE0B8781F214143FB48FB
:103360004018F978405C012819D0032016E03C7021
:1033700015E0B8781F214143F4484018F978405CC3
:1033800003280CD03C710AE0B8781F214143EF4874
:103390004018F978405C042801D0022038710BF005
:1033A000A9FA3A79002A3DD006467989E84B9888EF
:1033B00048435B881D46A03DA8422EDC181A80B207
:1033C000FB68F31A83422DD31096B8781F2311930C
:1033D0004343DE4DEB18FD785A55DEA39B5C1B186A
:1033E000DEA0805C401947B2D94800780F900028D1
:1033F000DEB254D000201E2F25461FDC0546002FCC
:103400001ED50C2E02981FD8204600280298119E27
:103410001ED0012800D020E129E1A020FB68F31A8A
:103420008342D1D2CA480078002800D129E1002087
:1034300009217F223723FEF719FE36E1002FE0D461
:1034400004460C2E0298DFD900280298119EE0D184
:103450002846012800D000E109E1BD484088049ACF
:103460001146C83190422CD00A46884204982CD18B
:103470002CE0B74880880A2800D11426002800D103
:103480000A26B34886803878012825D157E7B04905
:10349000087868400870387801281DD14FE70C2E55
:1034A00000D9CFE01846119E5BB2002B00D4CFE0CC
:1034B0000C23002F00D5CFE01E2F00D8CDE0002731
:1034C000CBE0C8228842049800D01046A04948802A
:1034D0003878012800D132E7C1A113AC2046FCF7AF
:1034E0005BFE022014212246FEF7FCFD78780028BE
:1034F00010D138780128BC4C00D0BC4C079E3068F5
:10350000FCF775FF01462046069A06F0F1FDFCF730
:1035100080FF306013AA3C4600271771F3481390D0
:1035200002201E21FEF7DEFD607801280BD1079CEA
:103530002068FCF75CFF0146ED48069A06F0D8FDCE
:10354000FCF767FF2060E6480078002801D0EAA376
:1035500000E0E8A313AE3046E849E9A20BF0C2FB55
:103560000224282120463246FEF7BCFDDB48407885
:1035700002280BD1079E3068FCF739FF0146DA4874
:10358000069A06F0B5FDFCF744FF3060D448408849
:103590000499884200D025460499C831884200D059
:1035A0002F46B800D8A10B5813AD2846D349D9A24D
:1035B0000BF098FB322120462A46FEF793FDC74EBA
:1035C000707803280BD1079C2068FCF710FF014698
:1035D000C448069A06F08CFDFCF71BFF2060C0482B
:1035E000808802240A2803D02146002803D003E063
:1035F0000121002800D101468800C8A10B5813AD55
:103600002846BE49C8A20BF06DFB3C2120462A4645
:10361000FEF768FD7078042800D0A1E5079C2068BB
:10362000FCF7E5FE0146C348069A06F061FDFCF78B
:10363000F0FE206094E507F0C5F83878012800D046
:103640004AE77CE60020119E5BB2002B00D52FE7F5
:103650000346002F00D42FE71E2758B27043B64D03
:103660002C18F8B2245C641E032C00D99AE00220C6
:103670009A4E30701098F06099480078002800D079
:10368000D5E60024092520462946FEF707FD3F26FA
:1036900020463146FEF702FD7F2420462946FEF7EC
:1036A000FDFC20463146FEF7F9FCA34F00210891AE
:1036B00006E00A9F1F370999491C0D2900D179E5B9
:1036C00009918B0018460E3019460D310E9119469E
:1036D0000B311A460F320C330F9389B20C9191B211
:1036E0000B9180B20D90089E0A9703E0361D7F1C57
:1036F0007C2EDED0B41C3878411E0329A1B2119172
:103700000F9989B236D80325119810912A462B4675
:10371000FEF7A0FC10993878421E032A2AD8C0462A
:103720007A44127952009744051D090D526573754C
:103730006D6500003543A8B20C9917E03543A8B277
:103740000B9913E00E9881B2601E0EE084240020D5
:103750006000002000FF00010000000000000100E8
:10376000FF0000000E9881B2701D80B2FEF796FC3B
:1037700038781099FF28B9D10320304385B2284604
:10378000FEF78CFC0E9884B211982146FEF786FC59
:10379000301D80B22146FEF781FC28460D99FEF7C8
:1037A0007DFCA3E7DCB274432C19255C22544B4802
:1037B00034460646C7708370FF2D22D072792046AA
:1037C00050435D4D2818B379C118C05C401E0328D2
:1037D0005ED8C046784400794000874409503E478F
:1037E000526573746172740000001C420000344220
:1037F000501E42B2002A34D50C220F9C002C55D00A
:103800004DE0481C70810499491E8AB281B29142F0
:10381000494F01D903202CE73289914200D93081E8
:103820006420C443641C00D324E7FCF75DFC0B2137
:10383000FCF73CFE4D1CFCF757FC1D21FCF736FE47
:10384000E8B2119A50433818491CC9B2425C002AA8
:10385000E8D14018FF2101700CE7501C42B20C2A3D
:1038600019DC02460F9C002C19D11FE0581E43B2F0
:10387000002B08D51E230F9C002C16D116E0581CD7
:1038800043B21E2B0DDC03460F9C002C0DD10DE026
:10389000022030700AE000220F9C002C06D0024665
:1038A00004E000230F9C002C00D003460020087089
:1038B000B3717271D0B2119941436818D9B2405CAA
:1038C000401F0421C943884200D9D3E60120D0E635
:1038D00021200321019A115417B0F0BD38030020B4
:1038E0006000002000001C420000344245786974EA
:1038F0000000D8414F6666004F6E00003531010868
:10390000426F726465723A00493101082E31010834
:103910004031010853706565643A000024310108A4
:1039200045310108293101085370656564496E63AA
:103930003A0000000000644284240020F0B589B001
:1039400000900C300190019C2046FEF731FC0020D5
:10395000802240230146FEF77DFB20780121414073
:1039600004A80170FEF724FC4948FEF727FC05F087
:1039700033FE48490E46FCF718FCFCF763FD02468F
:103980000B4605AC204644A10BF0ACF90A251221E8
:1039900028462246FEF7A6FB05F02EFE4249FCF71C
:1039A00004FCFCF74FFD02460B4620463FA10BF0FE
:1039B00099F91E21284603952246FEF793FB05F050
:1039C0002BFE3146FCF7F1FBFCF73CFD02460B46B3
:1039D00020463AA10BF086F92A2128462246FEF716
:1039E00081FB05F019FE3146FCF7DFFB029005F084
:1039F00013FE3146FCF7D9FB074605F0FDFD2A4EC4
:103A00003146FCF7D2FB054605F0F6FD3146FCF7E2
:103A1000CCFB01462846FCF721FC054602983946B6
:103A2000FCF71CFC2946FCF7C0FB054605F0D4FD5D
:103A3000184F3946FCF7B9FB064605F0CDFD39466F
:103A4000FCF7B3FB01463046FCF708FC2946FCF7BF
:103A5000ACFB0BF0EDFDFCF7F5FC02460B462046F7
:103A60001AA10BF03FF9362103982246FEF73AFBE4
:103A700006F07CFE062805D0FEF75EFB0A2006F065
:103A800055FF60E721200321009A115409B0F0BDD1
:103A900046240108666666BF583A252E3366206DB7
:103AA0002F735E3200000000CDCC4C3F593A252EDA
:103AB0003366206D2F735E32000000005A3A252EC7
:103AC0003366206D2F735E3200000000546F6C3A35
:103AD000252E3366206D2F735E32000070477047CD
:103AE00070477047F0B589B002460024089454200E
:103AF000105C012802D1022009B0F0BD15465435F2
:103B00000120287013689E68760716D410694E68E5
:103B1000022E19D1042210439C4A904270D19A4837
:103B2000C0430E68F1430143986A08409862002040
:103B3000002E69D42C7009B0F0BD916D20230B4389
:103B400093652C7009B0F0BD0794069604242043B9
:103B50008D4E8E4FB84264D10F683E40986A304314
:103B60009862079C38025A698243896801408848F4
:103B70000840104358610020002FDBD50123854900
:103B80003E460F68072189053A4607910A40824957
:103B900003968E4200D08AE0D9053E460E4000D002
:103BA00085E006467B4F3868079B984302430A43EB
:103BB0003A607C4800687C49FCF758FC0C21414382
:103BC0000C3108910898002800D19DE030460899F2
:103BD000491E089108990029ACD00899491E0891FE
:103BE00008990029A6D00899491E0891089900292A
:103BF000A0D00899491E089108990029E7D199E7B2
:103C00000E680020002E95D562490A68634B9E42DB
:103C10006ED0634B9E4268D05F4B9E428AD1052393
:103C200067E003941F27069807400F20019005972F
:103C3000B840176E0290874304970F68374250D000
:103C4000F807079C264668D1B80761D4780761D485
:103C5000380761D4F806039E5FD4B80673D478069B
:103C600073D4380673D4F80573D40397B80572D4A7
:103C70000398400572D40398000572D40398C004D9
:103C800072D40398800472D40398400472D4039FC2
:103C90003804019E079C40D4F8036ED40398800337
:103CA0006ED4039F7803C017122606401BE03B49E1
:103CB000039E8E4202D119068A4208D33849039ED8
:103CC0008E4200D036E799050F4000D032E7314FE1
:103CD0003E68079B9E4332430A433A602C7009B00A
:103CE000F0BD7800C60E079C17E00323DB0501E05A
:103CF00003239B051A4007239B050E689E43B218B9
:103D00000A602C7009B0F0BD30462C7009B0F0BDCF
:103D1000012602E0022600E003260598864004986A
:103D20000643166606988008D269824200D819E7D1
:103D30000298C0439A6A0240B800000F059EB04046
:103D4000104398620EE70526E7E70626E5E7072613
:103D5000E3E70826E1E70926039FC4E70A26039F55
:103D6000C1E70B26039FBEE70C26039FBBE70D268A
:103D7000039FB8E70E26039FB5E71026039FB2E71F
:103D80001126039FAFE7C046FFFF07000400008035
:103D900000FFFF0708270140001000B0004000B8F6
:103DA000002000B488000020400D030070477047D9
:103DB0007047F0B585B0044600680168022503919C
:103DC00029404A424A414668314629404B424B41CC
:103DD00013430CD1A06DC00604D40120C002A16D14
:103DE0000143A1652046FFF77AFE206805600127A0
:103DF0000422324051425141039B5A0704973A46EC
:103E000000D50A4604994F02012A019509D10822DA
:103E10003240514251411A07049A00D50A46002AFD
:103E20002ED121465831A26DD20602D40A683A43F7
:103E30000A60C2681205920F1BD1A27E002A18D117
:103E40000268120715D58268520708D442680C230D
:103E50009A434260FF2202320868904306E0A06D58
:103E600020210143A16521465C31E06D012202431E
:103E70000A602046FFF79AFF20680C210160039B2F
:103E8000802532462A40514251411A06049A00D5F3
:103E90000A460297002A0AD101200004A16D0143BD
:103EA000A165204600F08AF9039B20680560012582
:103EB0002F0232463A4051425141DA05049A00D568
:103EC0000A46002A09D16804A16D0143A165204674
:103ED000FFF706FE039B206807603246029F3A40C8
:103EE000514251413B42049A00D00A46002A09D16E
:103EF000A804A16D0143A1652046FFF7F2FD039BD5
:103F000020680760102732463A4051425141DA0694
:103F1000049A00D50A46002A13D1216B002902D049
:103F2000C16889070CD0A802A16D0143A165E06DAD
:103F300001990843E0652046FFF73AFF039B20689C
:103F400007606D032E4070427041990404D40498B8
:103F5000002805D005B0F0BD049004980028F9D1E0
:103F60002046FFF7BBFD2068056005B0F0BD0000EE
:103F7000F0B589B0044600200890002C77D0079057
:103F8000A06D002807D125465435204600F018F9C9
:103F900000202870E06501273D072668B068C00052
:103FA00027D4B0687F4901402943B1607E4800684A
:103FB0007E49FCF75BFA4000801C089008980028B6
:103FC00017D00898401E08900898002811D008982B
:103FD000401E0890089800280BD00898401E0890B2
:103FE0000898002805D00898401E089008980028D6
:103FF000E7D1B068284208D1A06D10210143A16526
:10400000E06D012107910843E065B068042101409B
:10401000A26D102002405118A16D2BD106900F20E7
:10402000C7433A46F33A1140891CA165B168C907F4
:104030007DD10390049727462037216B4A1E91417A
:104040000D03A168227E92030A43617EC9031143D6
:10405000A27E50030843E36803432B430120C507B6
:10406000216900290590029509DAA94308E0012099
:1040700009B0F0BD0143A165384609B0F0BD410566
:104080000B43387B45001D433878012809D1002AAD
:1040900011D0A06D20210143A165E06D0599084371
:1040A000E065626A002A0CD0072080010240A16A04
:1040B0001143294306E0059800040543626A002A7B
:1040C000F2D12946F0683A4A02400A43F2600320DE
:1040D000820763681D461540E16C387F01280ED1C8
:1040E000206C0090676CA06C0190009807430198C9
:1040F00007432F430F43059807433D4600E00D4318
:10410000049F30692B490140294331610298834261
:1041100003990CD093420AD005988007834206D0B9
:104120008804034024490A688243D01808607069F3
:1041300007229043656B2843706170697021884342
:10414000A16B090101437161216901235805814275
:1041500003D000290BD1B06A07E0B06AE0698000A3
:104160001C301C2101408F40206E3843B0627069C2
:104170001040A8420AD10020E065A06D0121014352
:1041800002208143A165079809B0F0BDA06D069992
:10419000084302218843A065E06D1843E065184696
:1041A00009B0F0BDE8FFFF6F88000020400D03005C
:1041B0000102DEFF02FCFF1F0827014070470000DC
:1041C000F0B589B0002608960796069605960496DF
:1041D00002682F498A4201D009B0F0BD0290032045
:1041E0008107034600902B48026A8A430127F9079A
:1041F000511801623905C2680A43C260C2680A40A8
:1042000003920399016839430160016839400391C1
:104210000399016802221143016000681040039075
:104220000398069605930424049405200190000742
:1042300004AD294600F06EFA0696009805900494A5
:104240001548294600F066FA144D2E62B80239026C
:104250008022134B2B60019B6B60AE60EE602A6185
:104260006961A861EE61284600F05CF9002801D080
:10427000FEF74EFF0298A86205650C240321002278
:10428000204600F05FFF204600F050FF09B0F0BD6F
:104290000024014034100240000400507C2600201D
:1042A00058000240F0B581B00468A56802236D078C
:1042B0001FD45425455D012D1BD00091174605469E
:1042C000543501262E70E268D2070BD1A268D207BE
:1042D00004D0A2681C4B13409A1CA260E268012320
:1042E0001343E3600446FCF773FC33460028009E4A
:1042F00002D0184601B0F0BDA06D14490140012064
:1043000000020818A0650020E06521681C220A60F0
:104310002870206D0E4A0F4B0F4DC5620363426338
:104320004A68102313434B60403132463B4600F04D
:1043300079F9034620688168034A0A40111D8160AB
:10434000184601B0F0BDC046E8FFFF7FFEF0FFFF5A
:10435000AD0B0008C70B0008290B000870B500283A
:104360002CD0014624314A78022A29D104682268D7
:104370000E239A432260426C15682F4B1D40156036
:104380002568012295432560046C1C2525401446B0
:10439000AC40D64D2E6826432E60846CC56C65609B
:1043A000046D002C05D025681D402560436D806D8F
:1043B00058604A70002000220A7070BD012070BD54
:1043C0000422C263012000220A7070BD70B501464C
:1043D00024314A78022A2BD103681A680E24A2439A
:1043E0001A601C68012294431C60446C2568124BBF
:1043F0001D402560046C1C2525401446AC40BB4D77
:104400002E6826432E60846CC56C6560046D002C9C
:1044100005D025681D402560436D846D5C600024D7
:104420000C704A70816B002900D08847204670BD0F
:104430000421C163012070BDFFFEFFFF2521405C08
:1044400070470000F0B585B0A849091F0E680268E2
:104450001368042502932B405F425F410490046C73
:104460001C232340294699400C4603963440604261
:104470006041384331D0019201210227029E30462B
:104480003840444244419F40039D2F420A4600D099
:10449000214604980446243400292FD008200640E1
:1044A00077427741DD40280700D53A46002A23D1DC
:1044B000019A10680E218843106001252946994011
:1044C0008A4802680A4302600498C563002121708B
:1044D0006570416B00290ED10EE01068800602D491
:1044E0001068A8431060814A10680843106004985F
:1044F000016B002900D0884705B0F0BD019B196809
:10450000890605D41A680A218A431A60012161705C
:1045100000212170754A116839431160C16A002970
:10452000E9D1E9E7F0B587B000284AD00446014652
:1045300024310220069148702768386834490140C8
:104540003960344E30468030A06433483818142522
:104550002946FBF78BFF8000811920640591616477
:10456000FC20384008382946FBF780FF1F23034012
:1045700001210A469A40E264A0680490E568264654
:10458000103649CE0196E6690296266A03962843BC
:104590001843019B18430E460299084303990843A8
:1045A00039680143049B19433960B1031B488B42AE
:1045B0000AD1002305990B60636002601D461A460C
:1045C0001CE0012007B0F0BD61683F270F40059B4C
:1045D0001F600260491E002303291D461A460DD89C
:1045E000791E8A0083180022DA6703250D403246BF
:1045F000AA400B490A607C33BC3005460020E063CA
:1046000023656565A265069908704E7007B0F0BD18
:104610000F80FFFF00080240F8FFFDBF8408024042
:1046200044090240F0B582B004462420205C0128F1
:1046300002D1022002B0F0BD1746254624350120E4
:1046400028706A78012A2ED1022068700020E06369
:1046500025682A6801260196B2432A60A26CE66C9E
:104660005660226D0092002A02D0626DA66D5660DF
:10467000226C1C261640019AB2401C4E3668164326
:104680001A4A16606B60A368102B3A4600D00A469F
:10469000AA60102B00D03946E9602968226B002AF5
:1046A00007D00E220AE0002129708021E16302B0C8
:1046B000F0BD0422914329602A680A211143296030
:1046C00001990902626C1368DB0302D513680B437E
:1046D0001360009B002B02D01A680A431A602968F5
:1046E000019A1143296002B0F0BDC04604000240A7
:1046F000B0B5044600F0E6F80546601C02D0044858
:104700000078041900F0DEF8401BA042FAD3B0BDD7
:1047100008000020F0B58CB00A900B9109680029C0
:1047200000D1C2E062480A9A824201D0052000E02E
:10473000032000900A9820300190002308931D4622
:10474000099310E00A4332605B1C0B98016808462D
:10475000D840099A08320992089A121D0892AD1C95
:10476000002800D1A1E0012006469E403140EBD058
:104770000793039004910A9A03242046A840C1435A
:104780002B460B98456828462040471E012F06916E
:10479000029505930FD894680C400B99CF689F4001
:1047A00027439760EC06E40F079B9C405768B7438C
:1047B0002743576005E00328079B02D12046029D4E
:1047C0001EE00A9FFC6806990C400B9A96680599B2
:1047D0008E402643FE600228029D11D11C200899BC
:1047E00008400F228240DC08A40001990E5996432C
:1047F0000B9F3A69824032430A517D68032028406A
:10480000059B98400A9A146806990C40044314606A
:10481000A8031D46079B800F0499039F94D0032093
:104820001A46824323488018026E052424070A9EF4
:10483000A6420AD0214C0A9EA64207D0204C0A9ECE
:10484000A642009F02D1022700E000271824099EFB
:1048500034400F26A640B2436030A740174307609C
:10486000144802680B984068C40201D50A4300E06E
:104870008A43114E0F4C22606268840201D50A43BC
:1048800000E08A430B4C62607268840305D50A43DA
:1048900072603268C00306D554E78A43726032689A
:1048A000C00300D54EE78A434DE70CB0F0BDC046CB
:1048B000000C005000180240801802400004005014
:1048C00000080050014800687047C04618370020B3
:1048D000B0B50246034640335C780220202C17D145
:1048E0001C78012C14D02420587010680268012410
:1048F000A2430260220305689543056002680A43EB
:104900000260016821430160002018702021597065
:10491000B0BDB0B50246034640335C780220202C7F
:1049200017D11C78012C14D024205870106802680C
:104930000124A24302600F22120205689543090276
:104940002943016001682143016000201870202183
:104950005970B0BD81B007490A6801231A430A6043
:10496000096819400091009903490A6802430A60E6
:1049700001B070474010024000000140704770478E
:10498000F0B581B00122150201688B691C462C40EC
:10499000664266410F6880243C4067426741374366
:1049A00004D1466C012737434764CD6165426541B8
:1049B0005E05164600D52E46002E05D19502466CA2
:1049C000082737434764CD61654265419B0513461F
:1049D00009D4002B0AD0416C0B22114201D001F006
:1049E000DFFC01B0F0BD2B46002BF4D15202436C2A
:1049F00002241C434464CA61416C0B221142EED173
:104A0000EFE780B502689169436B1268002B00D014
:104A1000984780BD70470000F0B581B0002822D0D3
:104A2000054640356978002905D1002129700446E2
:104A300000F0A8FA20462421697001680B68012261
:104A400093430B600F231B0644689C430C618C68E6
:104A50001C4B1C408C608468C668012E06D1D603AE
:104A600034438C600CE0012001B0F0BD2127BF026F
:104A70003C438C60022E03D1D4024E68264302E0F0
:104A8000D4024E68A6434E604C680F4E26434E60DB
:104A9000CC681C40CC60036944691C4383691B02D9
:104AA0002343CB60C369046A1C430C600B68134347
:104AB0000B600021416420226A7001630846A970DE
:104AC00001B0F0BDFF7FFFFF00800002F0B589B0AC
:104AD0000792064600270897054640356878022465
:104AE000202800D0EFE030688269120400D5EAE0A7
:104AF0002A78012A00D1E6E024226A7001242C7071
:104B00007764C64A1140714A8A180592704A89181A
:104B10000491591C0295019406934DD0002B0397E4
:104B200000D08CE0039FF1680129059900D0049919
:104B30004160FFF7C7FE05463068816920220A40C0
:104B4000816910242140511800D1B1E08069C0066C
:104B500000D496E0009520250022304629461346D1
:104B600002F0D0FC002800D09EE03068C461C5612E
:104B70000899491C08910899079A9142D3D320209B
:104B8000029A5070716C0143716401249AE000959F
:104B9000FB432025304629463A4602F0B3FC002864
:104BA00000D081E03068C461C5610899491C089152
:104BB0000899079A9142E2D2F1680129059900D03B
:104BC00004994160FFF77EFE054630688269202126
:104BD0000A40836910242340D21817D182690A4001
:104BE00083692340D21811D182690A408369234026
:104BF000D2180BD182690A4083692340D21805D1AB
:104C000082690A4083692340D218E7D08069C006D0
:104C1000BDD437E000952025002230462946069B6A
:104C200002F070FC0028039F3ED13068C461C5616A
:104C30000899491C08910899079A91429FD2F168F6
:104C40000129059900D004994160FFF73BFE054614
:104C500030688169202739408269102422408918F0
:104C60000CD1FFF72FFE401B0699884222D83068EE
:104C700081693940826922408918F2D08069C00672
:104C8000C8D4039F019C0095202500223046294668
:104C90000792069B02F036FC0028029A13D1306876
:104CA000C5615570079C0DE0019C204609B0F0BD20
:104CB000FFF708FE2020029A5070716C0143716466
:104CC0000124039F1770204609B0F0BD00200002A8
:104CD000002800027047000080B50548006805F014
:104CE000C7FF80BD80B50248006805F0C1FF80BDE8
:104CF000B4000020F0B585B0064640367578022431
:104D0000202D3AD10F4601688D692D0435D43578B0
:104D1000012D32D001242225757010250495B5701F
:104D20000025456443858E4BC362347042628D4BCF
:104D30004363438D1B0A23D0FF23038501252D06E2
:104D40000295C56B002D24D0019703940746354882
:104D50000024E8622C6384486863AC6324312846ED
:104D6000FFF760FC002820D020207070B4703470F1
:104D7000786C049908437864039C204605B0F0BD24
:104D8000438D0385002B34D065060295C56B002D3D
:104D9000DAD1202171700021B1703170416C802214
:104DA0000A434264204605B0F0BD0398C003049056
:104DB00039684A686E4B13406E4A019D15403A8D22
:104DC000D0B200044019029D2843184309239B02D6
:104DD00003434B60788D801A7885086890220243DF
:104DE0000A6034700868049A10430860204605B0D1
:104DF000F0BD604A17404A685D4B1340DA19084B12
:104E0000D2184A605D4A426335700868F422024352
:104E10000A602C46204605B0F0BDC046FF030000E6
:104E200000240002A9610008F0B585B014460546CB
:104E30000646403672780220202A6DD12A6897698A
:104E40003F0469D43778012F66D02120707010207C
:104E50000390B070002068646B85414BEB620123C6
:104E6000049333706C623F4B6B636B8D1B0A04D0F1
:104E7000FF232B8501273F0606E06B8D2B85002B3A
:104E800007462CD0049F7F06029727789762641C00
:104E90006C625B1E2B856F8D7F1E6F851F041CD07F
:104EA000A86B00282ED000912832304F0021C76215
:104EB00001632D4F4763019181639BB22146FFF748
:104EC000B1FB00282AD0202070700198B07030709B
:104ED000686C0399084368641DE0049B1F045368D1
:104EE000234C1C40234B194039432143224B0B4395
:104EF00053602249696330701168F2230B431360D9
:104F000005B0F0BD202070700020B0703070686C6B
:104F1000802101436964049805B0F0BD29684868A0
:104F2000134A02401348009B0340288D441CE4B2FE
:104F30002404E318029C23431343012254031C431B
:104F40004C606B8D181A68850868902303430B60CA
:104F50000198307092030B6813430B6005B0F0BDED
:104F60000000FFFF156C00088F6100085162000807
:104F7000009800FCFF03000000200002D56D00082F
:104F800070477047F0B587B0044600260696059630
:104F900004960396029600682F49884201D007B014
:104FA000F0BD012504952D4F3868284338603868D6
:104FB00028400190062006900220059012200390C0
:104FC0000320C002029001980520000702A9FFF704
:104FD000A1FBA805B9680143B960214D802100916A
:104FE0002961EE601021A9600D2169601D4914310D
:104FF0002960B9686E61AE61EE612E620140019177
:1050000001982846FFF78EFA002801D0FEF780F8B5
:10501000AC62A563144D0C20124929606860AE6033
:10502000EE60009828616E61AE61EE612E622846E6
:10503000FFF778FA002801D0FEF76AF8AC62E56362
:10504000182403210022204600F07CF8204600F0BE
:105050006DF807B0F0BDC046005800403410024063
:105060003427002030000240D826002070477047C7
:105070001F48007802490A68101808607047C04647
:105080001837002010B50124200208490A6802439D
:105090000A60032000F00CF8002801D0204610BD63
:1050A00000F028F80024204610BDC0460020024031
:1050B00070B50F4E31780124002916D005467D20A9
:1050C000C000FBF7D3F9014643480068FBF7CEF96F
:1050D00000F000FC032D08D8002806D10024E0438E
:1050E0002946224600F02EF87560204670BDC04665
:1050F0000800002080B582B00B494A6801200243B5
:105100004A604A6802400192019A02070B68134301
:105110000B600968114000910099C04303210022EF
:1051200000F010F802B080BD3C100240002805D409
:105130001F21084001218140014801607047C0469D
:1051400000E100E0002805D40322034693430A4A05
:105150009A1803E00C220240064BD2188007C00EBA
:105160008901C9B28140FF238340106898430843F6
:105170001060704714ED00E000E400E010B5421E3E
:1051800090410C4A13680724A343181810600A487A
:105190000368042213430360012904D130BF01686E
:1051A0009143016010BD40BF20BF20BF0168914303
:1051B000016010BD0070004010ED00E0064800687E
:1051C00026490968890A1C220A40044989581F2275
:1051D0000A40D0407047C0468800002080F6000892
:1051E00010B51E4C20688006400F06D0226838217A
:1051F0000A401B48082A07D110BD083C20688004DB
:10520000410F1848C84010BD22680A40102A15D125
:10521000616803220A40032A00D0124861684906E7
:10522000490F491CFBF722F961684904490E4843BC
:105230006168490F491CFBF719F910BD2068084047
:10524000202802D10120C00310BD20680840182882
:1052500001D0002010BD7D20000210BD08100240CA
:1052600000127A000024F400F0B583B00446282030
:10527000205C012802D1022003B0F0BD2346283370
:10528000022058702068CA214162532141620125E1
:10529000A90282698A43826102931D700195A90364
:1052A00082698A438261FFF70DFB05460B4E216838
:1052B000C8680027400708D4FFF704FB401BB04232
:1052C000F5D321680323184601E03846019BFF22ED
:1052D0004A6202990F704B7003B0F0BDE903000001
:1052E000F0B583B006462820305C012802D10220A8
:1052F00003B0F0BD00910192344628340220607062
:105300003168CA20486253204862012398028A69A2
:1053100082438A61C86D04220243CA6502932370E6
:105320007D20C5001948006840060FD4FFF7CAFA6F
:1053300007463168C868400708D4FFF7C3FAC01BA6
:10534000A842F6D931680326304618E00098486133
:1053500088690722904388618869019A10438861AF
:10536000029EF0040A4A136803431360B0038A697B
:1053700002438A6118358869284388610020FF222A
:105380004A6200212170667003B0F0BD0C28004015
:10539000801802400148012101707047D4030020A9
:1053A00010B504460068016D490706D5C16D042299
:1053B0000A43C2652046FFF7EDFF29200121215451
:1053C00010BDF0B500684368180CC8703F261E4039
:1053D0008E701C0A1F2525404D701F047F0F0F7013
:1053E000002A01D00020F0BD0F22134037090A2601
:1053F0007743FB188B7014402B0973431B194B70B8
:105400000240C0B2000970438018C8700020F0BD8F
:10541000F0B581B0006883684B600369164C1C408E
:105420008C6004687F20274607408F706302DB0F83
:10543000CB70250A28404870230C3F261E400E7072
:10544000002A02D0002001B0F0BD0F2200921440CB
:105450003F090A2257433C198C70009C25400009E3
:10546000504340194870234030095043C018087019
:10547000002001B0F0BDC046FF7F000070B50028DD
:1054800033D00446064628367078002807D100201D
:1054900030701120C0026060204600F059F80220F0
:1054A00070702068C168C9064CD4CA21416253217A
:1054B0004162C16849061AD4C16880220A43C260A9
:1054C000FFF700FA05462068C16849060FD4FFF7C8
:1054D000F9F9401B7D21C9008842F4D9032070707E
:1054E0002168CA68FF224A6270BD012070BD8169CF
:1054F000164A0A408261A16862690A43E169114360
:1055000082690A43826121690161E16809040269D3
:105510000A430261204603F04BF92168002802D0BB
:10552000FF224A6270BD072040078A6982438A6170
:10553000206A626A0243A06910438A6902438A6151
:10554000FF20486201207070002070BDBFFF8FFBFC
:10555000F0B583B000683649884201D003B0F0BD91
:105560000320020233480368134001210D02AB42BD
:1055700046D00B070446203C26681E4006D127680B
:105580001F43276027681F400297029F00932A4FFE
:105590003B682B420ED13B682B433B603B682B4260
:1055A00008D13B682B4205D13B682B4202D13B68B6
:1055B0002B42F3D00B0407681F43076007689F4323
:1055C0000760036808271F4310239F430760036891
:1055D0000B43036003689B0708D403689B0705D44B
:1055E00003689B0702D403689B07F3D503689343C2
:1055F0002B430360002E03D12268009B9A43226054
:10560000CA030368134303608902203802680A430F
:1056100002600068084001900198022403210022E2
:105620002046FFF78FFD2046FFF780FD03B0F0BD59
:10563000002800405C10024000700040F0B583B0CC
:1056400004462820205C012802D1022003B0F0BDCE
:105650002646283602207070012000903070002A03
:1056600006D0C87800044A78120217188D7840E0F6
:105670004878C20603D5EF2210400A304870CA7835
:1056800000250A2A11D30A3AD3B22F46CD255D430D
:10569000EB0A0A255D43521B3D461B0110331343A1
:1056A000DAB20A2806D22B4610E02B461343DAB2B0
:1056B0000A28F8D30A38C3B22F46CD255D43EB0A3A
:1056C0000A255D43401B3D461B0110331204034372
:1056D000D8B2070288780A2809D30A38C3B2CD2580
:1056E0005D43EB0A0A255D43401B1D01103517433E
:1056F000054302952068CA22426253224262097819
:105700000191C16849061BD4C16880220A43C26066
:10571000FFF7D8F805462068C168490610D4FFF79E
:10572000D1F8401B7D21C9008842F4D90320707054
:105730002168CA68FF224A620021317003B0F0BDBF
:105740000299C9B20F4301994903C02297430F43FD
:105750004760204603F02CF82168FF224A620028A7
:10576000EAD10098707000200021317003B0F0BDC4
:10577000F0B583B004462820205C012802D1022025
:1057800003B0F0BD16460D46224628320220507066
:105790002068CA2141625321416201210292019194
:1057A0001170C16849061CD4C16880220A43C260D6
:1057B000FFF788F807462068C168490611D4FFF74B
:1057C00081F8C01B7D21C9008842F4D90320029BC7
:1057D00058702168CA68FF224A620021197003B01C
:1057E000F0BD826940211140002E05D00029019EA4
:1057F00015D10021E97014E0002901D10021E970E0
:105800002A7800210A2A15D30A3AD3B2CD265E435C
:10581000F30A0A265E43921B1B0110330BE0E97862
:1058200089052A7812046B781B029A18AB78D31872
:105830000B432AE00B461343DAB213046A780A2AB0
:105840000AD30A3AD6B2CD277743FE0A0A2777430E
:10585000D21B3601103600E00E461643F2B2120299
:105860001A43AB780A2B09D30A3BD9B2CD264E4353
:10587000F10A0A264E439B1B09011031019E194370
:10588000C9B20A43E9788B0513430E4919400160F8
:10589000B10482698A438261E9682A690A4381699D
:1058A00011438161204602F083FF2168FF224A6292
:1058B0000028029B91D15E7000200021197003B076
:1058C000F0BDC0467F7F7F001148016802220A4375
:1058D00002607047401E010E01D001207047074949
:1058E0000B4A5060064803680B400321890759188A
:1058F000016000209060072111607047FFFFFF00EA
:1059000020ED00E0024801680222914301607047E7
:1059100010E000E0B0B58421415C012901D10220F2
:10592000B0BD0146843124224A60026813681468BD
:105930000125AC4314606C07A34313600022426648
:1059400010460A7020224A60B0BD704770470000C0
:10595000F0B583B0054668352A7F012A02D10220BE
:1059600003B0F0BD064688362422326007683A68E4
:1059700002923A680124A2433A6007225206BB68A9
:1059800093430B43BB60406E0028204615D0B86897
:105990000190B868400F2E49095C2E4A105CC00087
:1059A000FAF764FD044601980001400F2849095C9C
:1059B000284A105CC000FAF759FD28806C800298D4
:1059C0003860002028772021316003B0F0BDC04648
:1059D000F0B583B0054668352A7F012A02D102203E
:1059E00003B0F0BD064688362422326007683A6864
:1059F00002923A680124A2433A6007225207BB6828
:105A000093430B43BB60406E0028204615D0B86816
:105A10000190B868400F0E49095C0E4A105CC00046
:105A2000FAF724FD044601980001400F0849095C7B
:105A3000084A105CC000FAF719FD28806C800298B3
:105A40003860002028772021316003B0F0BDC046C7
:105A500018F8000810F800087047704770470000F9
:105A6000F0B589B00368DF69202501210691CE02D7
:105A700032462F323A401968089004468034059324
:105A80009B68202A0395079710D1084628400122D9
:105A900012071A4080181F4616D00898416F002937
:105AA00000D156E10898884709B0F0BD30460F3064
:105AB00007421F4608D0C8480840069A1207551CDE
:105AC0003D40281800D091E004941026084630404C
:105AD00042424241079D28463040444244411443DB
