:020000040800F2
:10000000B06A0020CD0000088D670008C74E0008C8
:1000100000000000000000000000000000000000E0
:10002000000000000000000000000000C56900089A
:100030000000000000000000F1680008436B0008A9
:10004000DF00000800000000DF000008DF000008FB
:10005000DF00000821270008312700083B2700089F
:1000600000000000DF0000085916000835160008DF
:10007000C10A0008DF000008DF00000800000000DF
:10008000DF000008DF000008DF000008DF000008D4
:10009000DF000008DF000008DF000008DF000008C4
:1000A000C94E0008DF000008DF000008C573000823
:1000B000DF000008DF0000080348854600F054FC1C
:1000C000004800477D760008B06A00200448804759
:1000D00004480047FEE7FEE7FEE7FEE7FEE7FEE72F
:1000E000F56B0008B90000080549064A0868504346
:1000F000054A801808604008704701490860704749
:10010000000000206D4EC6413930000010B5431A82
:10011000934209D28318881803E0401E01785B1EC1
:100120001970521EF9D210BD03460B439B0703D032
:1001300009E008C9121F08C0042AFAD203E00B78AC
:100140000370401C491C521EF9D210BDD2B201E00E
:100150000270401C491EFBD270470022F6E710B522
:1001600013460A4604461946FFF7F0FF204610BD25
:1001700010B5044605E00B780370401C002B00D03E
:10018000491C521EF7D2204610BD421C0178401C6B
:100190000029FBD1801A7047F8B502464A40D40FB7
:1001A00042004B0052085B089A4202D202460846BF
:1001B00011464A0023D0C30D4A00DDB2120EAD1A1B
:1001C000202D35DA49020126490AF6058A19002C44
:1001D00000D0524220214F1B1146B9402A4110182D
:1001E000C20D9A4221D0002C17D0012D08DCDA056F
:1001F000801AD20F8019D207DBB200F089F9F8BD5E
:10020000DA05801A012340001B06C01880185A42E4
:100210008018CA0F1043490007E04908C20711437C
:10022000DA05801A80194008801800F069F9F8BDD5
:1002300061000122511A001BF7E70122D207514049
:10024000AAE70122D2075040A6E7024670B54A400D
:10025000D30FDB0740002DD04A002AD0010E140E28
:10026000000212020919400A520A8418E5010446E4
:100270005443000A120A2E045043A4194219200CB8
:10028000C543AA18120C0125AD03521C52191204C1
:100290007F39240400D0521C104301D44000491E71
:1002A000C2B20C06C0092018401C4008802A02D0A7
:1002B00003E0002070BD40084000002900DA002063
:1002C000184370BD70B502464A40D50F40004A0041
:1002D000ED0740085208002814D0002A12D0C40D9F
:1002E000D30D41020120C0055202490A520AE41A04
:1002F000091812187D34914201D3641C00E04900B2
:10030000002C01DA002070BD0023914201D3891A2C
:100310000343400849000028F7D100290AD0914240
:1003200002D10121C90705E0914201D2012101E07A
:100330000121C943E005C018401900F0E1F870BD83
:100340000122D207002800DB101A002900DB511A15
:10035000814201D201207047002070470122D2075C
:10036000002800DB101A002900DB511A814201D954
:1003700001207047002070470122D207002800DBCF
:10038000101A002900DB511A814201D10120704767
:1003900000207047C217C10F504010B54018CA075F
:1003A0009623002100F0B4F810BD10B5002296236A
:1003B000114600F0ADF810BDC20F4100400201230C
:1003C000400ADB05D207090EC0187F2901DA002098
:1003D0007047962903DC9623591AC84001E09639E4
:1003E0008840002AF4D040427047C20FD207400034
:1003F00040080BD0C10D0723DB01C91840020905D5
:10040000400A1143C20840071143704700200146CB
:10041000704770B50446002903D000202022012334
:1004200010E0002801D00020C043C046C0460DE0C7
:100430002546D5408D4205D30D469540641B1D468B
:10044000954040191546521E002DF1DC214670BD25
:1004500070B5002504462E46002911D0002C01DA83
:1004600001254442002901DA012649422046FFF7CE
:10047000D0FFB54200D04042002D00D0494270BDAF
:10048000002C02DA0121C90702E0002C00DD03493B
:100490000846C046C046214670BD0000FFFFFF7FF2
:1004A000F0B51FB40646002082B0054640240191F5
:1004B00000901BE0019922460F46304600F07CFA7E
:1004C000049A059B801A994110D31046194622467A
:1004D00000F062FA361A8F4101972246012000216E
:1004E000009F00F059FA38184D4100902046641ED4
:1004F0000028DFDC019B00982946324607B0F0BD9A
:10050000002904DA401C490001D14008400070472E
:1005100070B40024050C05D11024000402D1002978
:1005200021D01124050E01D100020834050F01D19C
:100530000001241D850F01D18000A41C002801DBCF
:100540004000641C002908D020252E1B0D46F540D4
:10055000A14000D001212943084301061B1B000ACA
:10056000DB1D02D5002070BC7047DB051818801811
:100570000029F8DA401C4900F5D170BC4008400061
:10058000704770B5002801DC002070BD41004002BA
:100590000126400AF605090E8019CA0701D140005C
:1005A000491E4D10002211463F353346CB409B1863
:1005B000D418844201D8001B1A464000491C172950
:1005C000F3DD5100814202D20021C94300E0002145
:1005D000E8058018FFF794FF70BD0000F0B50746EE
:1005E0000846584087B0C00F049048000E46590096
:1005F00040084908BC1A884105D2384631461E4693
:1006000017460B4602465800400810434CD0300DA8
:10061000039040055900400D490D0590401A029085
:10062000402872DA18030121000B090508430190E4
:1006300004980092002805D0019952420020884178
:1006400000920190029840210A1A0199009800F046
:10065000A3F905460C466B4607CB00F0BEF9C0195E
:100660007141039A0E0D0023D71756401A467A405F
:10067000164344D0049A002A2DD0029A012A039AE4
:1006800015DC1205C01A914101263605001C714186
:10069000D20F059ED2070093019202962A46234666
:1006A00000F0BBF907B0F0BD38463146FAE7160551
:1006B000224A0F46B218C01AB74101210905001C91
:1006C0004F4100187F41114618187941E20F10433D
:1006D0006D19644113E0E2076D0815436408C20711
:1006E0001443039A01261205C01A91413605001CD5
:1006F0007141CE07400830434908C01851412A468D
:10070000234600F07DF9CDE7FFE704980122400081
:10071000C117121A00238B4104983146C417381AA6
:10072000A141EEE730B40124E407634030BC55E753
:1007300030B40124E407614030BC4FE70000E0FF23
:10074000F0B51FB488B00B99099800244840099966
:10075000C00F490049080991C0070B990090490052
:1007600049080B9109990898A64608431CD00B9993
:100770000A98084318D0099801244000420D480007
:10078000410D099824050003000B204309900B98A4
:100790000003000B20430B9050181C494018002206
:1007A00001901446104605E0002001460DB0F0BD52
:1007B000032801DA034600E003239C46C11A0AAE6F
:1007C0000AE05F0008ADED5B4F00F75B7D4300275B
:1007D000AA187C41491C5B1E6145F2DD410004AB57
:1007E0005A522104120C0A43240C401C0828DFDB57
:1007F000019802900099704601910090059B049A1F
:100800000799069800F009F9D0E700000DFCFFFFFA
:10081000F0B50C465C4085B0E40FE40703944C004F
:10082000002664085900944649080246029622436D
:1008300021D062460A431ED06200570D4A000E03C3
:100840002303550D012402462C492405781B1B0B5C
:10085000360B401823432643614600901C46501A2D
:10086000B44103D30098401C009002E09218009815
:100870005B41002803DA0020014605B0F0BD0020EE
:10088000012109050746864611E064461D46141BF2
:10089000B54106D36546521BB341744607430C432A
:1008A000A646CD0740084908284392185B410546F3
:1008B0000D43EAD11046184313D060461946504004
:1008C0007140084306D06046101AB34106D2012297
:1008D000002306E000220123DB0702E00122D243CD
:1008E0005310009874460105381C6141029C039D19
:1008F0000019694100F084F8BFE70000FD03000023
:100900004A0009030123090B1B0519430A4B10B5C3
:10091000520D9A4202DA0020014610BD064B3433D4
:100920009A4203DC9A1A00F047F810BD034BD21824
:1009300000F032F810BD0000FF030000CDFBFFFF08
:1009400010B5002904DB0124E40740428C41214614
:10095000002B04DB1C460123DB075242A3419942D2
:1009600000D1904210BD00001CB509480090094814
:10097000019005460126009C05E0E36807CC33435F
:100980000C3C98471034AC42F7D3FFF799FB0000BA
:10099000BCD40008DCD4000810B5202A04DB0146D2
:1009A000203A9140002010BD914020239C1A03461C
:1009B000E3401943904010BD10B5202A04DB0846DF
:1009C000203AD040002110BD0B46D340D040202417
:1009D000A21A91400843194610BD10B5202A06DB23
:1009E000CB170846203A1041C1170B4306E00B46CF
:1009F0001341D0402024A21A91400843194610BD4B
:100A000010B5002B08DA0024401C614192185B41AC
:100A10001A4301D14008400010BDF0B51FB482B0A8
:100A200005460C0003D008460BF0D4F802E00BF0AA
:100A3000D1F820300246009021462846FFF7ACFF4F
:100A4000049B059A04460F4618431143084314D0EB
:100A5000184610431BD0009840210A1A18460599E1
:100A6000FFF7AAFF05460E46009A05990498FFF77E
:100A700093FF084305D0012004E02046394607B023
:100A8000F0BD0020C11705430E432C4337430099A6
:100A90000E986305401A7905E40A00220C43FD0A0A
:100AA0000A3002D500200146E9E701051019694125
:100AB0000C9C0D9D00196941FFF7A2FFDFE70000C4
:100AC00080B5B54801F0C1FF80BDC046B0B5014654
:100AD000806A836D826D5024234206D0D20610D4E2
:100AE000006D426B08469047B0BD01214B021A438E
:100AF00082650268D3681B059B0F05D001F0A2FF39
:100B0000B0BD01F0A1FFB0BD837E002BF6D113680C
:100B10001B07F3D593685B070ED40346583354681C
:100B20000C25AC435460FF2402341A68A2430A43E4
:100B30001A6001F087FFB0BD826D202313438365E7
:100B400003465C33C26D0A431A6001F07BFFB0BDFF
:100B500080B5806A816D40220A438265C16D04229E
:100B60000A43C26501F070FF80BD80B5806A01F064
:100B70006AFF80BDF0B581B005460024009400688E
:100B80008168C9071CD181682D4A2F3211420AD0D1
:100B9000A86D10210143A965E86D01242043E86593
:100BA000204601B0F0BD8168254A11400127394334
:100BB000816024480068000205D4687E012825D1A0
:100BC000204601B0F0BD204800682049FFF721FC15
:100BD000401C009000980028EFD00098401E009024
:100BE00000980028E9D00098401E00900098002846
:100BF000E3D00098401E009000980028DDD00098B7
:100C0000401E009000980028E7D1D6E702F0C4FC0F
:100C1000064628680168C907D2D18168C90704D18E
:100C20008168074A11403943816002F0B5FC811B9D
:100C300028680329EED30168C907EBD1A8E7C046AD
:100C4000E8FFFF7F0827014024000020400D03003B
:100C500084B0504C12E04F4C2660029880B2FFF7EF
:100C6000A4FB01462846FFF7F0FA1D214906FFF7CD
:100C7000ECFA4C498860039806F026FD211D0425F6
:100C8000454E30462A4602F063F9C827384606F03A
:100C90001BFD21460C3130462A4602F059F93846F0
:100CA00006F012FD2146143130462A4602F050F972
:100CB000384606F009FD21461C3130462A4602F02E
:100CC00047F90397384606F0FFFCA089A188081869
:100CD000A18A4018A18B40180290A080E089E18889
:100CE0000818E18A4018E18B40180190E080208AC2
:100CF00021890818218B4018218C46182681608A8A
:100D000061890818618B4018618C471867812348F6
:100D10000088FFF74AFB2249FFF797FA0546B8B269
:100D2000204FFFF742FB01462846FFF7CBFA054666
:100D30003860B0B2FFF739FB01462846FFF785FA65
:100D4000194C2146FFF7BEFA1849FFF725FA184952
:100D5000FFF77BFA1749FFF71FFA78602846164914
:100D6000FFF773FA0646019880B2FFF71EFB0146B3
:100D70003046FFF76AFA2146FFF7A4FA0F49FFF75A
:100D80000BFA06460E49FFF7DBFA002800D162E7AE
:100D9000002660E778020020FC4D0020AA75FF1FA6
:100DA000000040401400002000F07F455C8F42BFEF
:100DB0000000C8430000C8415C8F5A43BE9F12C167
:100DC0000000204170B5002819D0002B17D0049CDA
:100DD000002C14D0069D19711860032189045962F2
:100DE0002179002A0FD101290DD12149196321A2AE
:100DF000014610461E460AF0C1FE334608E016A022
:100E00000BF07EFB70BD002A02D0012900D11A63CD
:100E100005981C61002D00D01D620028214601D0DC
:100E2000836001465961E06800280AD02169996110
:100E3000CB612361A169491CA161D861D96083613B
:100E400070BD0021A161E36023619B611846D861F8
:100E5000D960836170BDC046496E76616C6964205B
:100E6000706172616D6574657228732900000000FD
:100E700034D300082573203A20496D6167652069E5
:100E800073206E756C6C210A000000000023CB609B
:100E90000B610860012048710A71704700F0B2F8D8
:100EA0007D2084002E2000F0FDF8052006F00CFCCB
:100EB00000F07AF8204606F007FCF42000F0F2F883
:100EC0001A2006F001FC00F005F8204606F0FCFBB5
:100ED000E8E7000070B5784CF6202070EE2601257A
:100EE000304621462A4605F0FBF8032230462146CB
:100EF00004F04CFF20780004617809020818A178FA
:100F0000401860616069401160611E20205EE168E8
:100F10001F4A89184843C0122A22A25E0B464B433F
:100F20001B0B5A43D2121018C0001C22A25E5201A1
:100F3000801880106269121A164850432026A65F56
:100F40004E4371132826A65F5E433314C918891CCB
:100F50008910EB03C918638C4B43D90B002804D4C8
:100F60000D485043FFF755FA02E0FFF752FA4000F0
:100F70000A494143091402125243094B53431A0CC4
:100F80008918084A891809110818A06170BDC0465F
:100F900060F0FFFF6A180000D430000043E3FFFF59
:100FA000DE0B0000CF0E0000B0B5434CF6202070E1
:100FB000EE2501222846214605F092F80222284615
:100FC000214604F0E3FE208840BAA0603020205E75
:100FD000E18CA268511AA28C4A43D51329182E20FD
:100FE000205EC002FFF734FA2818E06008300009DC
:100FF000FFF7DBF90249FFF728F92061B0BDC046D1
:10100000CDCCCC3D70B52C4DD0202870EE240126DF
:1010100020462946324605F063F8291D204632460F
:1010200004F0B4FE686855283AD1AA202870EE264C
:1010300001223046294605F053F82C461C3416226E
:101040003046214604F0A2FE687F297F6977287721
:10105000E87FA97FE977A8776079217961712071AC
:10106000E079A179E171A071607A217A61722072D0
:10107000E07AA17AE172A072607B217B61732073B8
:10108000E07BA17BE173A073607C217C61742074A0
:10109000E07CA17CE174A074607D217D6175207588
:1010A00070BDC04680B504494870F4200870EE2039
:1010B000022205F015F880BD1001002082B005F075
:1010C000D5F80020C4432C4E2D4D2C4F02E00A20B1
:1010D00006F0FAFA05F068F805F0CEF8002005F001
:1010E0004DF8002807D001A90120088030680022AF
:1010F000234606F0BBFB012005F040F8002808D08D
:10110000FF20023001A9088030680022234606F043
:10111000ADFB022005F032F8002806D001A90F80AF
:1011200030680022234606F0A1FB032005F026F8D4
:10113000002806D001A90D8030680022234606F061
:1011400095FB042005F01AF8002807D001A90D48E6
:10115000088030680022234606F088FB052005F051
:101160000DF80028B3D001A9074808803068002294
:10117000234606F07BFBAAE768000020010200007E
:10118000010300000104000001050000F0B585B076
:101190005248534C01222146FFF778FE514802681D
:1011A0000546514800260094019602904F4B343377
:1011B0004F480221FFF706FE6A682046303400904F
:1011C0000746019402964BA04D4D31462B46FFF742
:1011D000F9FD4CA021463246FFF758FE00940197D6
:1011E000029634354A480621049132462B46FFF7D1
:1011F000E9FD0094019602964648034605463033C1
:1012000045A0032739463246FFF7DCFD00940196DE
:10121000029644A0484C394632462346FFF7D2FD99
:10122000304842692E4800A961C144A0464D31466C
:101230002B46FFF7C7FD45A036493246FFF726FE8D
:10124000344800902648019002963435304804997D
:1012500032462B46FFF7B6FD2E4D009501960296BD
:1012600034343DA0394632462346FFF7ABFD0095A6
:10127000019602963DA0414C394632462346FFF77F
:10128000A1FD0095019602963DA0414D394632469A
:101290002B46FFF797FD1F480090019602963435C4
:1012A0003CA0394632462B46FFF78CFD194800908A
:1012B0000196029634343BA0394632462346FFF766
:1012C00081FD0848C268064800900196029639A040
:1012D0000421064BFFF776FD05B0F0BD12D40008DF
:1012E000B403002040000020C9690008B0050020B8
:1012F00025D400082D53657474696E6700000000E2
:10130000180600205B53657474696E675D00000009
:101310001ED400081404002020436F6E74726173A1
:1013200074000000204261636B47726F756E642029
:10133000436F6C6F72000000780400202D537461BD
:101340007469737469630000800600205B537461E4
:101350007469737469635D002042617474657279A5
:1013600020566F6C7461676500000000204368615F
:101370007267652043757272656E7400E004002028
:10138000204169722054656D7072617475726500D8
:101390004805002020416972205072657373757290
:1013A00065000000204350552054656D70726174D3
:1013B000757265002D41626F75740000F0B583B0E1
:1013C00005463D4C01273F203C493D4A3DA323654E
:1013D0006265A1657F21C905E066276761672046D0
:1013E000503087738781206039483030214600F0C3
:1013F0001BF9384EB773022070730C3536A021C626
:10140000083EA66021460831364D284600F00CF90A
:101410003046283000210191817302974773324989
:1014200032A2B262F1622061343521461031284681
:1014300000F0FAF8304650300199817347732F4914
:101440002FA232657165A06121461831304D2846C2
:1014500000F0EAF82F4E019FB773029870732E4880
:101460002EA1316070602662343521462031284635
:1014700000F0DAF8304628308773029941732B491F
:101480002BA2B262F162A062214628312C4D28467F
:1014900000F0CAF8304650308773477329492AA2B2
:1014A000326571652063343530342846214600F0BA
:1014B000BBF803B0F0BDC046000200200D190008C3
:1014C00020000020436F6E7472617374000000008E
:1014D00014040020C40200204D656E75436F6C6FCC
:1014E00072000000780400201C0000204261747427
:1014F00065727920566F6C74616765007802002010
:101500004368617267652043757272656E7400008E
:10151000E00400203C030020180000204A756E63A0
:1015200074696F6E2054656D70000000200100200A
:101530004169722054656D70726174757265000046
:10154000480500202801002041697220507265730F
:101550007375726500000000B0B5084906200C22C2
:10156000074B08A40D464035CD630C644B648A6478
:10157000C86438310A4800F057F8B0BD00020020B6
:101580001BCB00086769746875622E636F6D2F4A04
:1015900046656E672D5A2F4D69616F5549000000F1
:1015A000B0050020F0B581B00D460446FFF7EEFD12
:1015B0002046FFF703FF2046FFF7CEFF84211448A3
:1015C0006050A421134A62500C23002128261027C2
:1015D00027616661A161E36121842560656023461E
:1015E00084330D4D59609D600C4D0D4E6665A565AB
:1015F000E5652646243607C621739861D9612246DF
:101600006C3223C20748E0632164616401B0F0BD1D
:101610003333B33E8FC2F53C0AD7233CCDCCCC3D0F
:10162000CDCCCC3E9A99993E002802D0002900D01A
:101630008160704780B5054801F05AFD044801F00B
:1016400057FD044801F054FD80BDC046184F0020EE
:10165000604E00208C00002080B5024801F048FD5B
:1016600080BDC046BC4E0020F0B58BB01F46202385
:10167000C35C05900446CC3410980990042B00D02C
:10168000BFE00492069107970894A088FEF78DFEAC
:101690007D21C9050391FEF7D8FD05467F20C705CA
:1016A00028463946FEF74CFE0446032081072846AB
:1016B0000291FEF771FD002C00D10546284629460F
:1016C000FEF7C3FD01463846FEF7B7FD0AF028FFD6
:1016D0005649002C00D13946FEF75EFD06460798B4
:1016E000FEF758FE0146BF2005063F200206002CEB
:1016F000284600D110460192FEF7A7FD3146FEF7BD
:10170000A4FDFEF759FE089908808888FEF74DFE73
:101710000399FEF79AFD06463946FEF711FE044688
:1017200030460299FEF738FD002C00D106463046BF
:101730003146FEF78AFD01463846FEF77EFD0AF087
:10174000EFFE002C394900D13946FEF725FD06464B
:101750000998FEF71FFE0146002C00D1019D284686
:10176000FEF773FD3146FEF770FDFEF725FE029091
:1017700008994880088803900598007B0AAF387064
:10178000384600F0CDF8069885B2049886B20798DE
:1017900082B228463146029B00F050F801200A9997
:1017A00041403970384600F0BBF80398069940185C
:1017B00082B228463146334600F04CF8029C049F22
:1017C000E01983B2284631462A4600F043F80998CA
:1017D000C019079F011B8BB284B206983E18B5B2A0
:1017E000284621462A4600F035F80398301A82B27E
:1017F00028462146234600F02DF8089CA088401C6E
:10180000A0802088B8420CD160880999884208D10C
:1018100005992031032008700020A08001200BB022
:10182000F0BD00F061F800200BB0F0BD000080BFFB
:1018300080B5444806F0B2FD80BDC04610B582B008
:1018400014460A46014600933E48234606F0B1FD81
:1018500002B010BD10B582B014460A46014600938E
:101860003848234606F0ACFF02B010BD10B582B078
:1018700014460A46014604980093019031482346D5
:1018800007F031F802B010BD10B582B014460A4618
:1018900001460498009301902A48234607F0D5F8A2
:1018A00002B010BD80B513460A460146254807F030
:1018B00045F980BD10B582B014460A460146049829
:1018C000009301901F48234607F083F902B010BD32
:1018D0001C48406B7047C04638201A49085C704766
:1018E00018480068007C704780B5164807F0C7F9B3
:1018F00080BDC04610B582B014460A46014600932A
:101900001048234607F0C3F902B010BD80B5006847
:1019100080680068406801780A4808F0BEF880BD19
:1019200080B50178074807F0BFF980BD80B5014652
:10193000044807F0BFF980BD80B5024807F01CFAE3
:1019400080BDC0463C570020F0B587B00D46044628
:101950001046FEF71FFD0146432000060590FEF7E6
:10196000B1FC06462846FEF715FD01463046FEF757
:101970006CFCFEF721FD0490FEF717FD0646D22011
:101980000690205AFEF711FD054630462946FEF71F
:1019900054FC616B06460290FEF7FEFB0390A16AC1
:1019A000FEF753FC0746606A3146FEF74EFC3946A7
:1019B000FEF7F2FB0746A16B3046FEF73EFC014600
:1019C000E06AFEF742FC3946FEF7E6FB2946FEF7E1
:1019D000E3FBFEF7F1FC069960522646D2360498E6
:1019E0007080B088FEF7E1FC014604900598FEF790
:1019F00024FC0546A064206D05902565E16C284611
:101A0000FEF7CAFB0746E06402982063039961630E
:101A1000A06328460599FEF710FC0590216C384616
:101A2000FEF713FC0746E06B2946FEF70EFC39462D
:101A3000FEF7B2FB0546606C0599FEF706FC2946E9
:101A4000FEF7AAFB0499FEF7A7FBFEF7B5FC0246DA
:101A5000B0800020022529462B46FFF7FBFE0698A2
:101A6000225A042A05D30095002006230146FFF7D9
:101A7000FDFE07B0F0BD0000F0B58DB007930B92EE
:101A80000A910446006880680568A869002807D0A4
:101A900000680021C94309F0FBFC206880680568E4
:101AA00020469C3005900694D834089414980490ED
:101AB00012980990687B0024012830D0002827461E
:101AC0007CD16E683068E9698842274676DC296AED
:101AD0008842274672DBFEF75DFC0499FEF75CFB4B
:101AE000FEF76AFC3060E969814200DB0146316043
:101AF000286A814200DC014631602F6AC81BC11789
:101B00004840411A0798801F4843FEF743FC0646A9
:101B1000E869C01BFEF73EFC0146304648E0E86934
:101B20000390FEF737FC014668680290066830466D
:101B30000191FEF713FC002827463FD12D6A284665
:101B4000FEF728FC014630460091FEF7F9FB00281D
:101B5000274633D12F4630460499FEF71DFB054634
:101B6000019E3146FEF7FAFB002800D12E46304692
:101B7000009D2946FEF7E4FB0028284600D13046A8
:101B8000029908602946FEF758FB05460120C00768
:101B900085430798801FFEF7FDFB01462846FEF7A8
:101BA00054FB05460398C01BFEF7F4FB014628468C
:101BB000FEF788FB2D49FEF7EFFA07460CAD2C70B7
:101BC0002846FFF7ADFE0A980B99079A099BFFF785
:101BD00035FE012028702846FFF7A2FE08980088ED
:101BE000FEF7E3FB014607903846FEF726FB064664
:101BF000059DE8606F6968612969FEF7CDFA0446C2
:101C0000286130463946FEF718FB074669682046CA
:101C1000FEF71BFB044628683146FEF716FB2146FB
:101C2000FEF7BAFA0446A8683946FEF70EFB2146CD
:101C3000FEF7B2FA0799FEF7AFFAFEF7BDFB0246D0
:101C4000089802800A980B99099BFFF7F7FD069800
:101C50000068806800688069002805D0006800215D
:101C60000A460B4609F013F90DB0F0BD0000C04064
:101C7000F0B595B01F460E9208910446B848FFF79C
:101C800055FEFFF7D5FD20200D94205C022807D1DA
:101C90000E9800693969814254D001200899487131
:101CA0000D9806462036B430079005973868FEF741
:101CB0006CFA062104914843542800D354200D990E
:101CC0000A4680320C92079A5061087B0FAD28704B
:101CD0002846FFF725FE0020802240230B90014676
:101CE00009920A93FFF7AAFD01210F980691484037
:101CF00028702846FFF714FE0898047930780228E7
:101D00000E9F039600D054E1012C33D0002C00D05C
:101D1000B4E008984079002800D081E0F86805997F
:101D2000C9680D1A012D50DB0D9806694020314617
:101D3000FEF78EFB089989690A1A954261DC00203A
:101D4000C04365E00898007901282BD00028A7D16E
:101D50000D980569402630462946FEF779FB262076
:101D60003A5E00200C2A99DB6918711A0C3A8A42F3
:101D700096DD93E70898407900286CD1F8680599BA
:101D8000C9680D1A012D2EDB0D9846698020314659
:101D9000FEF75EFB089989690A1A954234DC002037
:101DA000C04350E024203C5E0D98456980263046B3
:101DB0002946FEF74DFB0020002C00D56EE7691880
:101DC000711AA14200DB6BE768E7451A0D980669B6
:101DD00040203146FEF73CFB08998969081A854284
:101DE00015DC012014E0451A0D9846698020314623
:101DF000FEF72EFB08998969081A854222DC01202A
:101E000021E0C943401803E0C94340181BE0401CCF
:101E100046430120089948710D99C8698019C86125
:101E2000386905990969814228D03A79062A1AD178
:101E3000086A0D9AD061C869906108988069002885
:101E400020D598E0401C46430120089948710D991F
:101E500088698019886138690599096981420DD0BE
:101E60003A79062A7ED0002A08D10D9B9969C16172
:101E7000D9690C22DA6101620020986108988069B2
:101E8000002878D40899C968002C2AD0012C51D197
:101E90000D9B5A699B69002635465643F6188E8479
:101EA00001262E43B6B2B04265D35643F618C9692F
:101EB0008E8402262E43B6B2B0425CD35643F61847
:101EC000C9698E8403262E43B6B2B04253D356431B
:101ED000F618C9698E842D1DAEB2C969B042DCD234
:101EE00049E00D9B1A69DB69002635465643F61812
:101EF000CE8401262E43B6B2B0423CD35643F618E8
:101F0000C969CE8402262E43B6B2B04233D35643BB
:101F1000F618C969CE8403262E43B6B2B0422AD33E
:101F20005643F618C969CE842D1DAEB2C969B042B8
:101F3000DCD220E0002101220A4392B290421AD35F
:101F400002220A4392B2904215D303220A4392B26C
:101F5000904210D3091D8AB29042ECD20BE0C046E9
:101F60001BCB0008C8690D9A9061086AD061089877
:101F70008069002886D5386905990969814200D1B0
:101F8000E1E03879062800D16FE2002811D1242041
:101F9000059A105E079B196918610D980068006921
:101FA00041622621515E0C39DA68D9608262596932
:101FB000C162012C00D185E2002C00D0A5E30D9C6C
:101FC0002146D43148880F460B91FEF7EEF90146C1
:101FD0000E908520C5052846FEF72FF90990A064CC
:101FE000E16CFEF7D9F80A90E064059E30698069DB
:101FF000FEF7D0F901462846FEF764F90546F06879
:10200000FEF7C8F901462846FEF71FF9FEF7D4F996
:102010003880FEF7CAF905460798C08BFEF7C5F968
:10202000014602902846FEF708F905462063A66B94
:10203000A063606B2946FEF7AFF807466063284649
:102040003146FEF7FAF80646A16A3846FEF7FDF873
:102050000746606A2946FEF7F8F83946FEF79CF80D
:102060000546E06A3146FEF7F0F82946FEF794F897
:102070000299FEF791F8FEF79FF90799C883E76B7D
:10208000256C606C0290216D099820650446FEF76E
:10209000D4F806460A982946FEF7D7F8054638468A
:1020A0002146FEF7D2F82946FEF776F80546029853
:1020B0003146FEF7CAF82946FEF76EF80E99FEF78C
:1020C0006BF8FEF779F903460B98438000247920DA
:1020D00021460246FFF7BEFB0798C38B042B06D3AD
:1020E00002200090762000210622FFF7BFFB08980F
:1020F0008369C568059800690D9909680969814275
:1021000053D0002B00D52CE120466C850146069A61
:10211000114389B2ED698B424AD3002169850222BD
:10212000024392B2ED69934242D36985032202438E
:1021300092B2ED6993423BD36985ED69001D81B28E
:102140008B42E2D234E0012C00D19BE1002C00D084
:10215000DBE23868FEF719F804994843001D079937
:10216000086026240598075F3E460C3ECE600D9819
:1021700005690A982946FEF76BF90C2F0E9A05DBC4
:1021800068180A99081A864200DC18E70598C068A2
:10219000D168081AC1174840401A012800D00EE73C
:1021A000105F0C380799C86009E7002B00D5D8E00C
:1021B00000260DE06C712A68698DA88CFFF772FB10
:1021C00008988369ED69761CB0B2834200DAC8E0F2
:1021D0000B930E952620285EFEF7DCF805462A2094
:1021E0000E99085EFEF7D6F801460A902846FEF7DB
:1021F00024F807460D9DA8670C98016809910760AF
:10220000E96F3846FDF7C8FFE867296FFEF71DF84C
:102210000446E86E3946FEF718F82146FDF7BCFF84
:10222000044638460999FEF708F80146686F0E9D86
:10223000FEF70BF82146FDF7AFFF0A99FDF7ACFF5B
:10224000FEF7BAF80B9B68850C3080B25828B9D8D5
:102250002879032852D1A86800284FD011A800215E
:10226000018112911191562076224023FFF742FB03
:10227000A8680068417B03293BD8C04679440979A6
:1022800049008F44012B0B254068036811A80A21DF
:1022900001A209F083FC2CE025640000688D022473
:1022A00000940C3881B256200C221346FFF7ECFA4A
:1022B000A86800684068007801281AD1688D0094E9
:1022C0000A3881B2582008221346FFF7CFFA10E0EF
:1022D000416811A80A22FDF74BFF0AE04068006838
:1022E000FEF783F80090019111A80A21DEA209F0FF
:1022F00055FC698D562011AAFFF7D4FA0024542208
:10230000402320462146FFF7F5FA687902281FD0BE
:1023100001280DD000280E9D00D04CE72868FDF75D
:1023200034FF049948435428069C00D942E742E709
:102330000E9DA88C441EAC842868FDF726FF0499E6
:10234000484321B24018542800D334E7022431E72F
:102350000E9DA88C411CA984F049884200D229E72F
:1023600029E710A802210170FFF7DAFA079D6869D2
:10237000FEF710F8044628682F46FEF70BF80146D2
:102380000E902046FDF759FF06460D9DA86E0A9057
:10239000AE662E66F868FDF7FDFF04467868FDF727
:1023A000F9FF01460B902046FDF747FF0746686E90
:1023B0003946FDF7F1FE04463146FDF7EDFE0C907F
:1023C000686638460A99FDF738FF0690A96D0A91AC
:1023D0002046FDF73AFF0446686D09903946FDF73F
:1023E00034FF2146FDF7D8FE0446E86D08900699B3
:1023F000FDF72BFF2146FDF7CFFE0B99FDF7CCFE35
:10240000FDF7DAFF01460B900798416030463946E8
:10241000FDF713FF07460A980C99FDF716FF0446CF
:1024200009983146FDF711FF2146FDF7B5FE044638
:1024300008983946FDF709FF2146FDF7ADFE0E99D4
:10244000FDF7AAFEFDF7B8FF079908602B8B042162
:10245000009182B20B98401C81B2581C80B20C23B0
:10246000FFF704FAFFF768FA4FE10D98006840693A
:10247000416A079A1161816AD160C06A5061012C7A
:1024800020D099E5242105980A91465E07980661B7
:102490000D984569099C20462946FDF7D9FF002E75
:1024A00003D46818201AB0420CDA0598C068F9689D
:1024B000081AC1174840401A012803D10A98385E0B
:1024C00007990861059FF968386982690D9C204663
:1024D000FFF73AFA089EF56814A8022106910170E8
:1024E000F968386982692046FFF72EFAB6693869BB
:1024F00021680969814222D0002E0B9B00D589E01A
:102500001846069C2B850121014389B2ED698E4254
:1025100017D3002129850246224392B2ED699642E3
:102520000FD329850322024392B2ED69964208D364
:102530002985ED69001D81B28E42E3D201E0002EB3
:1025400068D4002006E0ED690B99491C88B28642E8
:1025500008465FDB0B900E962420285EFDF71AFFDD
:1025600004462820285EFDF715FF01460A90204604
:10257000FDF763FE07460C9E3061B0690990B761B4
:1025800071693846FDF708FE7061B168FDF75DFEC0
:10259000044670683946FDF758FE2146FDF7FCFDFC
:1025A000044638460999FDF748FE0146F0680E9E3C
:1025B000FDF74BFE2146FDF7EFFD0A99FDF7ECFD17
:1025C000FDF7FAFE28851E3080B2BC28BBD80D98D6
:1025D000007B0121414014AC21702046FFF7A0F997
:1025E000288D296B00910C271E263946324633462A
:1025F000FFF760F9069820702046FFF791F9288DC3
:1026000004210091394632463346FFF72FF90898E6
:10261000866998E7059D687900281BD001280AD0B3
:10262000022828D13C4801884A1C02803B4881424C
:1026300021D2002016E0384801884C1E048028680A
:10264000FDF7A3FD0499414320B208187F2812D852
:10265000069807E02868FDF798FD04994143812911
:1026600006D30120687106E0252E326600000000C6
:102670002948002101800D9F387B0121414014A889
:102680000170FFF74DF92A68234800883E21FFF7C3
:1026900009F9079D2869FDF77DFE0446A868FDF746
:1026A00079FE01460E902046FDF7C7FD06463866C6
:1026B000BC6EB866796EFDF76FFD054678663046EC
:1026C0002146FDF7BAFD0C90B96D2846FDF7BDFD1A
:1026D0000446786D3146FDF7B8FD2146FDF75CFDF7
:1026E0000446F86D0C99FDF7B0FD2146FDF754FD49
:1026F0000E99FDF751FDFDF75FFE0799886080B2E6
:102700002F211E220223FFF799F8FFF7EDF8012091
:102710000399087015B0F0BD300A0020FF7F00005B
:1027200080B5012000F03CFE022000F039FE80BDA3
:1027300080B5082000F034FE80BD10B5102000F0F8
:102740002FFE202000F02CFE402000F029FE8020EB
:1027500000F026FE0124600200F022FEA00200F03C
:102760001FFEE00300F01CFE10BDEFF3108072B6F8
:10277000FEE770477047704770470000F0B589B0BA
:102780000246002408945420105C012802D1022043
:1027900009B0F0BD154654350120287013689E68B5
:1027A000760716D410694E68022E19D10422104300
:1027B0009C4A904270D19A48C0430E68F14301434D
:1027C000986A084098620020002E69D42C7009B0E5
:1027D000F0BD916D20230B4393652C7009B0F0BDC3
:1027E00007940696042420438D4E8E4FB84264D140
:1027F0000F683E40986A30439862079C38025A69D5
:10280000824389680140884808401043586100208D
:10281000002FDBD5012385493E460F680721890536
:102820003A4607910A40824903968E4200D08AE0D8
:10283000D9053E460E4000D085E006467B4F3868FD
:10284000079B984302430A433A607C4800687C49EE
:10285000FDF7DFFD0C2141430C3108910898002859
:1028600000D19DE030460899491E08910899002939
:10287000ACD00899491E089108990029A6D008995A
:10288000491E089108990029A0D00899491E08916D
:1028900008990029E7D199E70E680020002E95D508
:1028A00062490A68634B9E426ED0634B9E4268D079
:1028B0005F4B9E428AD1052367E003941F27069849
:1028C00007400F2001900597B840176E029087438C
:1028D00004970F68374250D0F807079C264668D106
:1028E000B80761D4780761D4380761D4F806039E2D
:1028F0005FD4B80673D4780673D4380673D4F80559
:1029000073D40397B80572D40398400572D4039822
:10291000000572D40398C00472D40398800472D462
:102920000398400472D4039F3804019E079C40D44E
:10293000F8036ED4039880036ED4039F7803C01706
:10294000122606401BE03B49039E8E4202D1190627
:102950008A4208D33849039E8E4200D036E7990553
:102960000F4000D032E7314F3E68079B9E43324311
:102970000A433A602C7009B0F0BD7800C60E079C7F
:1029800017E00323DB0501E003239B051A4007231F
:102990009B050E689E43B2180A602C7009B0F0BD0A
:1029A00030462C7009B0F0BD012602E0022600E09E
:1029B0000326059886400498064316660698800804
:1029C000D269824200D819E70298C0439A6A02404D
:1029D000B800000F059EB040104398620EE7052630
:1029E000E7E70626E5E70726E3E70826E1E7092605
:1029F000039FC4E70A26039FC1E70B26039FBEE798
:102A00000C26039FBBE70D26039FB8E70E26039F06
:102A1000B5E71026039FB2E71126039FAFE7C04634
:102A2000FFFF07000400008000FFFF0708270140A8
:102A3000001000B0004000B8002000B424000020C6
:102A4000400D0300704770477047F0B585B00446ED
:102A5000006801680225039129404A424A414668BC
:102A6000314629404B424B4113430CD1A06DC00667
:102A700004D40120C002A16D0143A1652046FFF7E7
:102A800079FE2068056001270422324051425141FD
:102A9000039B5A0704973A4600D50A4604994F0209
:102AA000012A019509D108223240514251411A07A9
:102AB000049A00D50A46002A2ED121465831A26D2B
:102AC000D20602D40A683A430A60C2681205920F1D
:102AD0001BD1A27E002A18D10268120715D5826880
:102AE000520708D442680C239A434260FF22023204
:102AF0000868904306E0A06D20210143A1652146AE
:102B00005C31E06D012202430A602046FFF79AFF24
:102B100020680C210160039B802532462A405142E7
:102B200051411A06049A00D50A460297002A0AD192
:102B300001200004A16D0143A165204600F08AF93F
:102B4000039B2068056001252F0232463A4051421E
:102B50005141DA05049A00D50A46002A09D16804D1
:102B6000A16D0143A1652046FFF705FE039B206888
:102B700007603246029F3A40514251413B42049A1B
:102B800000D00A46002A09D1A804A16D0143A1651D
:102B90002046FFF7F1FD039B2068076010273246AF
:102BA0003A4051425141DA06049A00D50A46002AB9
:102BB00013D1216B002902D0C16889070CD0A8026B
:102BC000A16D0143A165E06D01990843E0652046D0
:102BD000FFF73AFF039B206807606D032E407042A9
:102BE0007041990404D40498002805D005B0F0BDC4
:102BF000049004980028F9D12046FFF7BAFD206818
:102C0000056005B0F0BD0000F0B589B004460020B5
:102C10000890002C77D00790A06D002807D125469A
:102C20005435204600F018F900202870E06501278F
:102C30003D072668B068C00027D4B0687F490140CE
:102C40002943B1607E4800687E49FDF7E2FB400001
:102C5000801C08900898002817D00898401E0890FB
:102C60000898002811D00898401E0890089800285D
:102C70000BD00898401E08900898002805D00898A6
:102C8000401E089008980028E7D1B068284208D173
:102C9000A06D10210143A165E06D0121079108435A
:102CA000E065B06804210140A26D10200240511877
:102CB000A16D2BD106900F20C7433A46F33A11403D
:102CC000891CA165B168C9077DD103900497274687
:102CD0002037216B4A1E91410D03A168227E920389
:102CE0000A43617EC9031143A27E50030843E3688F
:102CF00003432B430120C507216900290590029554
:102D000009DAA94308E0012009B0F0BD0143A1653B
:102D1000384609B0F0BD41050B43387B45001D43E3
:102D20003878012809D1002A11D0A06D2021014353
:102D3000A165E06D05990843E065626A002A0CD040
:102D4000072080010240A16A1143294306E005984B
:102D500000040543626A002AF2D12946F0683A4A23
:102D600002400A43F2600320820763681D46154053
:102D7000E16C387F01280ED1206C0090676CA06C4C
:102D8000019000980743019807432F430F4305988C
:102D900007433D4600E00D43049F30692B49014045
:102DA000294331610298834203990CD093420AD09F
:102DB00005988007834206D08804034024490A68A6
:102DC0008243D0180860706907229043656B2843DE
:102DD0007061706970218843A16B090101437161C1
:102DE000216901235805814203D000290BD1B06A23
:102DF00007E0B06AE06980001C301C2101408F4070
:102E0000206E3843B06270691040A8420AD1002099
:102E1000E065A06D0121014302208143A16507986F
:102E200009B0F0BDA06D0699084302218843A06552
:102E3000E06D1843E065184609B0F0BDE8FFFF6F8C
:102E400024000020400D03000102DEFF02FCFF1FF2
:102E50000827014070470000F0B591B00026109699
:102E60000F960E960D960C960B960A960996089656
:102E700007960696026831498A4201D011B0F0BD2A
:102E800003900127F8070A90B803059005A800F001
:102E90000FFF002801D0FFF768FC39052848C268F9
:102EA0000A43C260C2680A40049204990168394327
:102EB00001600168394004910499016802221143BC
:102EC000016000681040049004980E960320019061
:102ED0000D9004240C940520029000070CAD2946A7
:102EE00000F074FA0E9601980D900C94154829463E
:102EF00000F06CFA144D2E62B80239028022134B96
:102F00002B60029B6B60AE60EE602A616961A86114
:102F1000EE61284600F05CF9002801D0FFF725FC9F
:102F20000398A86205650C2403210022204600F0C6
:102F300059FE204600F04AFE11B0F0BD00240140C9
:102F40003410024000040050604E0020580002403F
:102F5000F0B581B00468A56802236D071FD454251D
:102F6000455D012D1BD000911746054654350126BD
:102F70002E70E268D2070BD1A268D20704D0A268F3
:102F80001C4B13409A1CA260E26801231343E360C8
:102F90000446FDF7EFFD33460028009E02D0184698
:102FA00001B0F0BDA06D14490140012000020818D5
:102FB000A0650020E06521681C220A602870206D51
:102FC0000E4A0F4B0F4DC562036342634A681023DC
:102FD00013434B60403132463B4600F079F90346DB
:102FE00020688168034A0A40111D8160184601B0BB
:102FF000F0BDC046E8FFFF7FFEF0FFFF510B000869
:103000006B0B0008CD0A000870B500282CD00146D3
:1030100024314A78022A29D1046822680E239A436F
:103020002260426C15682F4B1D40156025680122F7
:1030300095432560046C1C2525401446AC40D64DB4
:103040002E6826432E60846CC56C6560046D002C70
:1030500005D025681D402560436D806D58604A701D
:10306000002000220A7070BD012070BD0422C263DE
:10307000012000220A7070BD70B5014624314A78E3
:10308000022A2BD103681A680E24A2431A601C6816
:10309000012294431C60446C2568124B1D4025603E
:1030A000046C1C2525401446AC40BB4D2E682643BD
:1030B0002E60846CC56C6560046D002C05D025689D
:1030C0001D402560436D846D5C6000240C704A7067
:1030D000816B002900D08847204670BD0421C16360
:1030E000012070BDFFFEFFFF2521405C70470000FE
:1030F000F0B585B0A849091F0E6802681368042559
:1031000002932B405F425F410490046C1C232340D8
:10311000294699400C46039634406042604138434A
:1031200031D0019201210227029E304638404442AC
:1031300044419F40039D2F420A4600D021460498F7
:103140000446243400292FD00820064077427741D6
:10315000DD40280700D53A46002A23D1019A10689D
:103160000E21884310600125294699408A4802684B
:103170000A4302600498C563002121706570416BA9
:1031800000290ED10EE01068800602D41068A84312
:103190001060814A1068084310600498016B002990
:1031A00000D0884705B0F0BD019B1968890605D499
:1031B0001A680A218A431A60012161700021217076
:1031C000754A116839431160C16A0029E9D1E9E7FC
:1031D000F0B587B000284AD00446014624310220C9
:1031E0000691487027683868344901403960344E88
:1031F00030468030A0643348381814252946FDF73E
:1032000008F980008119206405916164FC20384030
:1032100008382946FDF7FDF81F23034001210A461F
:103220009A40E264A0680490E5682646103649CECC
:103230000196E6690296266A039628431843019B85
:1032400018430E460299084303990843396801431D
:10325000049B19433960B1031B488B420AD10023F8
:1032600005990B60636002601D461A461CE0012050
:1032700007B0F0BD61683F270F40059B1F600260EB
:10328000491E002303291D461A460DD8791E8A00BF
:1032900083180022DA6703250D403246AA400B4905
:1032A0000A607C33BC3005460020E0632365656519
:1032B000A265069908704E7007B0F0BD0F80FFFF41
:1032C00000080240F8FFFDBF8408024044090240A4
:1032D000F0B582B004462420205C012802D10220EF
:1032E00002B0F0BD174625462435012028706A78C3
:1032F000012A2ED1022068700020E06325682A6828
:1033000001260196B2432A60A26CE66C5660226DDB
:103310000092002A02D0626DA66D5660226C1C26B7
:103320001640019AB2401C4E366816431A4A16607F
:103330006B60A368102B3A4600D00A46AA60102B97
:1033400000D03946E9602968226B002A07D00E2296
:103350000AE0002129708021E16302B0F0BD04225F
:10336000914329602A680A211143296001990902C1
:10337000626C1368DB0302D513680B431360009B78
:10338000002B02D01A680A431A602968019A114377
:10339000296002B0F0BDC046040002407047000042
:1033A000B0B50446074D2868204203D02C60204663
:1033B00000F00AF86868204203D06C602046FFF7EE
:1033C000EDFFB0BD0C18024070470000F0B58CB0A6
:1033D0000A900B910968002900D1C2E062480A9A5C
:1033E000824201D0052000E0032000900A9820309E
:1033F0000190002308931D46099310E00A433260B0
:103400005B1C0B9801680846D840099A083209925B
:10341000089A121D0892AD1C002800D1A1E00120DD
:1034200006469E403140EBD00793039004910A9AE0
:1034300003242046A840C1432B460B9845682846E4
:103440002040471E012F0691029505930FD89468DE
:103450000C400B99CF689F4027439760EC06E40F20
:10346000079B9C405768B7432743576005E00328F4
:10347000079B02D12046029D1EE00A9FFC68069928
:103480000C400B9A966805998E402643FE600228F0
:10349000029D11D11C20089908400F228240DC08AF
:1034A000A40001990E5996430B9F3A69824032431A
:1034B0000A517D6803202840059B98400A9A1468A9
:1034C00006990C4004431460A8031D46079B800F17
:1034D0000499039F94D003201A46824323488018FE
:1034E000026E052424070A9EA6420AD0214C0A9E99
:1034F000A64207D0204C0A9EA642009F02D1022776
:1035000000E000271824099E34400F26A640B2434D
:103510006030A74017430760144802680B98406862
:10352000C40201D50A4300E08A43114E0F4C2260C9
:103530006268840201D50A4300E08A430B4C626052
:103540007268840305D50A4372603268C00306D5E9
:1035500054E78A4372603268C00300D54EE78A435D
:103560004DE70CB0F0BDC046000C00500018024002
:103570008018024000040050000800500069084014
:10358000411E88417047002A02D01822815070479E
:103590002822815070470000014800687047C046EB
:1035A000B05E0020B0B50246034640335C7802208E
:1035B000202C17D11C78012C14D0242058701068AE
:1035C00002680124A2430260220305689543056056
:1035D00002680A43026001682143016000201870FC
:1035E00020215970B0BDB0B50246034640335C7827
:1035F0000220202C17D11C78012C14D024205870C4
:10360000106802680124A24302600F2212020568BA
:1036100095430902294301600168214301600020AC
:10362000187020215970B0BD70477047F0B581B057
:103630000122150201688B691C462C4066426641D6
:103640000F6880243C4067426741374304D1466C91
:10365000012737434764CD61654265415E051646E3
:1036600000D52E46002E05D19502466C082737431B
:103670004764CD61654265419B05134609D4002B23
:103680000AD0416C0B22114201D001F057FD01B06C
:10369000F0BD2B46002BF4D15202436C02241C4394
:1036A0004464CA61416C0B221142EED1EFE780B550
:1036B00002689169436B1268002B00D0984780BD67
:1036C00070470000F0B581B0002822D00546403593
:1036D0006978002905D100212970044600F0A2F97B
:1036E00020462421697001680B68012293430B6016
:1036F0000F231B0644689C430C618C681C4B1C40C8
:103700008C608468C668012E06D1D60334438C6071
:103710000CE0012001B0F0BD2127BF023C438C60CA
:10372000022E03D1D4024E68264302E0D4024E6832
:10373000A6434E604C680F4E26434E60CC681C403A
:10374000CC60036944691C4383691B022343CB603B
:10375000C369046A1C430C600B6813430B600021AF
:10376000416420226A7001630846A97001B0F0BD6F
:10377000FF7FFFFF008000027047000080B5054812
:10378000006804F043F980BD80B50248006804F089
:103790003DF980BD64000020F0B585B00646403696
:1037A00075780224202D3AD10F4601688D692D04C9
:1037B00035D43578012D32D001242225757010259D
:1037C0000495B5700025456443858D4BC362347004
:1037D00042628C4B4363438D1B0A23D0FF23038536
:1037E00001252D060295C56B002D24D00197039469
:1037F000074634480024E8622C6383486863AC635E
:1038000024312846FFF764FD002820D02020707066
:10381000B4703470786C049908437864039C204633
:1038200005B0F0BD438D0385002B34D065060295AD
:10383000C56B002DDAD1202171700021B17031707B
:10384000416C80220A434264204605B0F0BD0398D3
:10385000C003049039684A686D4B13406D4A019D5E
:1038600015403A8DD0B200044019029D28431843F8
:1038700009239B0203434B60788D801A7885086882
:10388000902202430A6034700868049A104308606A
:10389000204605B0F0BD5F4A17404A685C4B1340B4
:1038A000DA19074BD2184A605C4A426335700868DF
:1038B000F42202430A602C46204605B0F0BDC04603
:1038C00000240002454F0008F0B585B014460546B7
:1038D0000646403672780220202A6DD12A68976900
:1038E0003F0469D43778012F66D0212070701020F2
:1038F0000390B070002068646B85414BEB6201233C
:10390000049333706C623F4B6B636B8D1B0A04D066
:10391000FF232B8501273F0606E06B8D2B85002BAF
:1039200007462CD0049F7F06029727789762641C75
:103930006C625B1E2B856F8D7F1E6F851F041CD0F4
:10394000A86B00282ED000912832304F0021C7628A
:1039500001632D4F4763019181639BB22146FFF7BD
:10396000B7FC00282AD0202070700198B070307009
:10397000686C0399084368641DE0049B1F04536846
:10398000234C1C40234B194039432143224B0B430A
:1039900053602249696330701168F2230B4313604E
:1039A00005B0F0BD202070700020B0703070686CE1
:1039B000802101436964049805B0F0BD2968486816
:1039C000134A02401348009B0340288D441CE4B274
:1039D0002404E318029C23431343012254031C4391
:1039E0004C606B8D181A68850868902303430B6040
:1039F0000198307092030B6813430B6005B0F0BD63
:103A00000000FFFF355800082B4F0008ED4F00085D
:103A1000009800FCFF03000000200002F959000894
:103A200070477047F0B587B00446002606960596A5
:103A300004960396029600682F49884201D007B089
:103A4000F0BD012504952D4F38682843386038684B
:103A50002840019006200690022005901220039035
:103A60000320C002029001980520000702A9FFF779
:103A7000ADFCA805B9680143B960214D80210091D2
:103A80002961EE601021A9600D2169601D49143182
:103A90002960B9686E61AE61EE612E6201400191EC
:103AA00001982846FFF794FB002801D0FEF75DFE41
:103AB000AC62A563144D0C20124929606860AE60A9
:103AC000EE60009828616E61AE61EE612E6228465C
:103AD000FFF77EFB002801D0FEF747FEAC62E563EE
:103AE000182403210022204600F07CF8204600F034
:103AF0006DF807B0F0BDC0460058004034100240D9
:103B0000184F002030000240BC4E00207047704724
:103B10001F48007802490A68101808607047C046BC
:103B2000B05E002010B50124200208490A68024353
:103B30000A60032000F00CF8002801D0204610BDD8
:103B400000F028F80024204610BDC04600200240A6
:103B500070B50F4E31780124002916D005467D201E
:103B6000C000FCF756FC01464B480068FCF751FCCE
:103B700000F08AFD032D08D8002806D10024E04378
:103B80002946224600F02EF87560204670BDC046DA
:103B90000C00002080B582B00B494A680120024326
:103BA0004A604A6802400192019A02070B68134377
:103BB0000B600968114000910099C0430321002265
:103BC00000F010F802B080BD3C100240002805D47F
:103BD0001F21084001218140014801607047C04613
:103BE00000E100E0002805D40322034693430A4A7B
:103BF0009A1803E00C220240064BD2188007C00E30
:103C00008901C9B28140FF2383401068984308436B
:103C10001060704714ED00E000E400E0F0B581B002
:103C20000146032460021B4D2A46143A136883435D
:103C30000B43136001277A020020914224D1F449FA
:103C400009682A6852051FD5BE0206224A43134955
:103C500000901046FCF7DDFB01460098791A022916
:103C600014D02A6832420FD001290FD02A6832427C
:103C70000AD000290AD02A68324205D0091D03293A
:103C800004D02A683242EAD101B0F0BD204601B02A
:103C9000F0BDC046147000402400002040420F00D8
:103CA000012000025C490A6802430A607047C0466E
:103CB000F0B587B0074680788007564E01D40020C3
:103CC00050E00597012319073246183A106808405A
:103CD000049006D1106808431060106808400690F0
:103CE00006980292039101931F024B4C20683843BF
:103CF0002060FFF751FC0546206838420AD1FFF7E3
:103D00004BFC401B0228F7D90320059F049900298A
:103D100023D027E0032000900102B0680840059FEF
:103D200011D0B96988420ED0B06801990904B2680F
:103D30000A43B260B2688A43B2600146374A114012
:103D4000B160C00755D1B06834490840B969014332
:103D5000B16000200499002904D1029B1968039ADC
:103D6000914319603968CA0707D18A070DD48A06BA
:103D700013D401224B041AD428E0326803239A4357
:103D80007B68134333608A07F1D532680C239A436A
:103D9000BB68134333608A06EBD5032212033368F2
:103DA0009343FA681A43326001224B040ED53368FC
:103DB0001B4C23407D692B433360631C9D4205D11E
:103DC00013043446483C25681D43256009050ED57B
:103DD000910303239B0334689C433B691C43346079
:103DE0008B4204D11104483E32680A43326007B066
:103DF000F0BDFFF7D1FB0546834CB0688007A2D425
:103E0000FFF7CAFB401BA042F7D90098049900298C
:103E1000A3D0A7E75410024000700040FFFCFFFF52
:103E2000FFFFFF3FF0B583B00D460146012000299A
:103E300061D0029101907348006807273840A8427A
:103E400015D270490868B843284308606E4CFFF7E4
:103E5000A3FB06466B4800683840A84207D0FFF72E
:103E60009BFB801BA042F5D9032003B0F0BD029B51
:103E700018688107A74C0CD5410703D53903226880
:103E80000A4322600F21090222688A43996811437C
:103E90002160C0071AD15B4800683840A8422CD97D
:103EA00058490868B84328430860574CFFF774FB2B
:103EB0000646544800683840A8421ED0FFF76CFB05
:103EC000801BA042F5D9032003B0F0BD5968032937
:103ED0006AD8880001A2125801989746ED3E000862
:103EE0009D3F0008893F0008953F00082246083A98
:103EF000126852055CD403B0F0BD029A10784007F6
:103F0000844C05D5380321688143D068084320607C
:103F100020688006400F1FD0226838210A4066487A
:103F2000082A20D022680A40102A5AD16168032248
:103F30000A40032A00D0614861684906490F491CBC
:103F4000FCF767FA61684904490E48436168490F04
:103F5000491CFCF75EFA06E0204608380068800439
:103F6000410F5648C840216889093C220A40274928
:103F700089581F220A40D0402E4908602548006811
:103F8000FFF7E6FD03B0F0BD2246083A1268920141
:103F9000B1D50DE0A26D9207ADD509E02246083AF1
:103FA00012689203A7D503E0606D80070198A2D53F
:103FB0002068B84308432060FFF7EEFA0646206801
:103FC0003821014002984068C000814200D162E778
:103FD000FFF7E2FA801B0C498842F0D9032003B0B6
:103FE000F0BD20680840202802D10120C003BAE7B4
:103FF00020680840182801D00020B4E77D20000286
:10400000B1E7C046002002408813000070C50008D8
:104010002400002010000020064800683D4909687F
:10402000890A1C220A40044989581F220A40D040AC
:104030007047C04624000020B0C5000810B5354CBC
:1040400020688006400F06D0226838210A401A48AE
:10405000082A07D110BD083C20688004410F17488A
:10406000C84010BD22680A40102A15D16168032299
:104070000A40032A00D0114861684906490F491CCB
:10408000FCF7C7F961684904490E48436168490F64
:10409000491CFCF7BEF910BD20680840202802D159
:1040A0000120C00310BD20680840182801D000205E
:1040B00010BD7D20000210BD00127A000024F40023
:1040C000F0B585B014460D4606460003000F0121E9
:1040D0008140104FFA6A0A43FA62032103910221D8
:1040E000019100210291B1B20091310DC9B2049148
:1040F00005210907800240186946FFF767F9F000BB
:1041000006D42C4377200006396881432143396067
:1041100005B0F0BD08100240F0B587B0044601209C
:10412000002C00D1EEE104902078C007FD4E0594EC
:104130003FD12078800761D405980078000700D52A
:104140008FE0059A1078400700D5A0E0D469002CD4
:1041500000D1BEE1B06838210140102900D00CE147
:10416000012C00D1A0E0F06803210140059B1A6AF0
:10417000914200D098E0702101405A6A914200D0EB
:1041800092E07F21090201409A6A1202914200D016
:104190008AE01F2149040140DA6A914200D083E09D
:1041A000072149070840196B8842049800D0A9E10B
:1041B0008FE1B168F26803200346934338220A4036
:1041C00010215140CB1859425941082A57D0002993
:1041D00055D1316863680124670422049342039037
:1041E00008D005252D04AB4200D0F8E0A304194304
:1041F0003160316811433160059CF9E0B0683821C5
:10420000014010204840F26803242240022353401A
:10421000C0184242424101208702002947D0002AAB
:1042200045D103943168059CE268002A00D1EEE094
:104230000722D202914322690A43326000023168A8
:1042400001433160FFF7A8F905463068384200D0D5
:10425000EFE0FFF7A1F9401B0228F6D9039807B059
:10426000F0BDB0683821014018294AD1306E80076E
:1042700000D466E705988069002815D061E73068AA
:10428000800300D455E7606800280DD051E7B0687E
:104290003821014020294BD1F06D800700D455E72B
:1042A0009068002800D051E7049807B0F0BD32684C
:1042B0003A42059B03D0DA68002A00D122E1054684
:1042C0007F200002726882435869000210437060C8
:1042D00000290DD10720C0023168814318690843C5
:1042E000306030688004400F9449C14094480160B8
:1042F00094480068FFF72CFC0028284600D001E114
:104300001AE7306E05998969002900D19AE00121E8
:1043100008433066FFF740F90546306E800700D548
:104320000FE7FFF739F9411B03200229F5D9E9E02E
:10433000012003900107F06B0840029006D1F06B5A
:104340000843F063F06B08400690069801917E4F99
:104350003868C00533D403980402386820433860B5
:10436000FFF71AF905463868204228D1FFF714F9FB
:10437000411B03200229F6D9C4E001210A06306856
:1043800003929043306004914F06FFF705F905460C
:10439000022C09D13068384274D0FFF7FDF8411B78
:1043A00003200229F6D9ADE03068384200D18CE014
:1043B000FFF7F2F8411B03200229F5D9A2E0F06DC6
:1043C00005998968012906D0052900D084E00421D7
:1043D0000843F065F06D03990843F06585E091436B
:1043E0003160A004316881433160002B059C3AD0D4
:1043F000FFF7D2F805463068384200D099E6FFF75B
:10440000CBF8401B6428F6D9039807B0F0BD000232
:1044100081433160FFF7C0F805463068384200D16B
:104420008AE6FFF7B9F8401B0228F6D9039807B0CF
:10443000F0BD7F200002716881436069000208437B
:10444000706079E6012188433066FFF7A5F80546DC
:10445000306E800700D474E6FFF79EF8411B0320FE
:104460000229F5D94EE0FFF797F805463068384243
:1044700000D15EE6FFF790F8401B6428F6D9039858
:1044800007B0F0BDF06833490140059D20353DCDB2
:10449000084310431902014321432943F160306866
:1044A00003990843306004980007F1680143F16004
:1044B000FFF772F80446306838420AD1FFF76CF80B
:1044C000011B03200229F6D91CE0F06820490140B5
:1044D000F160002007B0F0BD039A9043F065F06DE5
:1044E00004229043F06500290ED0184CFFF754F8D1
:1044F0000546F06D800717D4FFF74EF8411B0320E7
:10450000A142F6D907B0F0BD104CFFF745F80546BB
:10451000F06D800708D5FFF73FF8411B0320A1424B
:10452000F6D9EFE70010024002980028059A00D063
:104530000CE6F06B01998843F06307E60024F40071
:1045400024000020100000200070004088130000AC
:10455000FCFFFEEF8C80C11F70B5002833D00446ED
:10456000064628367078002807D1002030701120C8
:10457000C0026060204600F059F802207070206888
:10458000C168C9064CD4CA21416253214162C16845
:1045900049061AD4C16880220A43C260FEF7FCFFB4
:1045A00005462068C16849060FD4FEF7F5FF401B99
:1045B0007D21C9008842F4D9032070702168CA683F
:1045C000FF224A6270BD012070BD8169164A0A400F
:1045D0008261A16862690A43E169114382690A4301
:1045E000826121690161E168090402690A4302618B
:1045F000204602F09FF92168002802D0FF224A627B
:1046000070BD072040078A6982438A61206A626A16
:104610000243A06910438A6902438A61FF2048620D
:1046200001207070002070BDBFFF8FFB10B588B0F7
:1046300000210691059104910391029100681049AF
:10464000884201D008B010BD0124600207906004C8
:10465000019001A8FFF72CFB002801D0FEF785F898
:10466000E00308490A6A02430A62A0020A68024398
:104670000A60096801400091009808B010BDC0466A
:10468000002800403C100240401E010E01D00120D5
:1046900070470749074A5060074803680B400321E9
:1046A0008907591801600020906007211160704748
:1046B000FFFFFF0010E000E020ED00E0B0B5842136
:1046C000415C012901D10220B0BD01468431242280
:1046D0004A600268136814680125AC4314606C07D3
:1046E000A34313600022426610460A7020224A60EB
:1046F000B0BD704770470000F0B583B0054668351F
:104700002A7F012A02D1022003B0F0BD0646883676
:104710002422326007683A6802923A680124A24370
:104720003A6007225206BB6893430B43BB60406E5E
:104730000028204615D0B8680190B868400F2E496F
:10474000095C2E4A105CC000FBF763FE044601982A
:104750000001400F2849095C284A105CC000FBF7A3
:1047600058FE28806C80029838600020287720212D
:10477000316003B0F0BDC046F0B583B00546683582
:104780002A7F012A02D1022003B0F0BD06468836F6
:104790002422326007683A6802923A680124A243F0
:1047A0003A6007225207BB6893430B43BB60406EDD
:1047B0000028204615D0B8680190B868400F0E490F
:1047C000095C0E4A105CC000FBF723FE044601980A
:1047D0000001400F0849095C084A105CC000FBF763
:1047E00018FE28806C8002983860002028772021ED
:1047F000316003B0F0BDC04640C8000838C80008AA
:104800007047704770470000F0B589B00368DF69F2
:10481000202501210691CE0232462F323A401968F6
:1048200008900446803405939B68202A03950797D7
:1048300010D108462840012212071A4080181F464E
:1048400016D00898416F002900D156E10898884792
:1048500009B0F0BD30460F3007421F4608D0C848A7
:104860000840069A1207551C3D40281800D091E0D8
:10487000049410260846304042424241079D284693
:1048800030404442444114430898C06E401E421ECA
:104890009041204337D001240126B2053A405042CE
:1048A0005041EA022246059B00D50246002A00D16B
:1048B000A6E0280606D580200840F2051740C0195A
:1048C00000D0B0E140230A461A40504250416A06E7
:1048D000224600D50246002A00D13DE1B2070A4037
:1048E000504250412A02224600D50246002A00D1F9
:1048F000A4E1002900DAA6E1E80100D5A7E1002C37
:1049000000D0FAE0A7E1089C5C3405980662806854
:10491000400600D57BE0618822886088002800D1AD
:10492000EBE08A4200D1E8E0EFF31080079001232A
:1049300083F31088092045010898374606683468D3
:10494000AC433460079C84F31088EFF31084079421
:1049500083F310880568AE68C14C3440AC60079C96
:1049600084F31088049C039DE56000244467C466BA
:10497000EFF3108483F3108803681D68BD431D6046
:1049800084F3108802230367511A89B2FFF7B1FE3E
:1049900009B0F0BD009204940798069B184042426B
:1049A0004241180201910840444244411443059B8E
:1049B00005D101201862049C226902432261012072
:1049C0003C46029004406042604107998A07069A7B
:1049D00000D50246002A06D1022018620498016917
:1049E00004220A4302616042604107994A07069A1D
:1049F0005CD4002A049C5DD00798000763D46CE067
:104A0000300518620898FFF7FCFE09B0F0BD049865
:104A10000068006841688AB2002A6ED023889A42F2
:104A20006BD261800068800635D4EFF310820121DB
:104A300081F310888C4B20330898056837462E6820
:104A40001E402E6082F31088EFF3108281F31088ED
:104A500003689D688D439D6082F31088EFF3108298
:104A600081F3108803689D684026B5439D6082F3FA
:104A70001088049B039ADA600022C266EFF310826A
:104A800081F3108800680168B943016082F31088DF
:104A90001868FEF7B9FA0221089801672188628830
:104AA000891A89B2FFF725FE09B0F0BD0246002A37
:104AB000049CA1D1042018622069022202432261D1
:104AC0000798000709D50198039A1040054304D0C0
:104AD0000820186222690243226102988206019925
:104AE0000A4050425041079A324208D106980028A5
:104AF000039A09D0206900280DD109B0F0BD0690B5
:104B000006980028039AF5D11E622069104320619F
:104B100020690028F1D0079810400DD00098074078
:104B200011403943049C08D00898416F002904D0F3
:104B3000089C204688472368049C2069282202405C
:104B400098684021084080181CD10898FFF75AFE49
:104B50000020206109B0F0BDEFF3108186F31088CA
:104B60000898026814689C43146081F3108800213F
:104B700081670499039A8A6000F074F909B0F0BD66
:104B800020010004EFF31080029E86F310880922B2
:104B90005201089B1C6825689543256080F31088A6
:104BA000EFF3108086F310881A6894682C4D254026
:104BB000956080F31088D86E01280CD1EFF3108235
:104BC000029880F310880898006803681024A343B3
:104BD000036082F31088049C0398E0600020089A28
:104BE000D066506710688068400622D5EFF31082C7
:104BF000029880F310880898006883688B4383606C
:104C000082F310882168002913D01648886308466B
:104C1000FEF732FA002800D16FE704980068816B34
:104C2000884709B0F0BD0898816F002900D00DE6D3
:104C300063E70898FFF7E6FD09B0F0BD0898FFF7B5
:104C4000DFFD09B0F0BD0026E80100D457E6344688
:104C5000002C00D051E70898FFF74CFD09B0F0BDDB
:104C6000FEFFFFEF6D6E0008DFFEFFFFB0B500280E
:104C70001ED00446054684356868002804D100200B
:104C80002870204600F02AF8242068602068016817
:104C90000125A9430160A06A002802D0204602F045
:104CA00013F8204602F082F9002803D02846B0BD50
:104CB0000120B0BD0920C00221684A6882434A60D1
:104CC00088682A22904388600868012202430A60AB
:104CD000204602F063F805462846B0BD70B58EB098
:104CE000044600250D950C950B950A950995089598
:104CF000079506950595049500682749884201D0D7
:104D00000EB070BD03950126029602A8FEF7D0FFF3
:104D1000002801D0FDF729FD2048C1680C96B20398
:104D20001143C160C16811400191019902210A91AA
:104D300002680A4302600068084001900D950B95D7
:104D4000C02009900198164809A9FEF73FFB5A4E6A
:104D5000802010213322134BF36032617161B56101
:104D6000F06135627562B562F56235460C352846EC
:104D7000FEF72EFA002801D0FDF7F7FC7463E56713
:104D80001B24032100222046FEF72CFF2046FEF7BD
:104D90001DFF0EB070BDC046003801403410024007
:104DA0000004005080000240F0B581B01346882214
:104DB0008258202A12D1012400290CD0002B0AD0BD
:104DC00001263203846894420CD1CA070AD00269D2
:104DD000002A07D13446204601B0F0BD0224204607
:104DE00001B0F0BD02465432074688375380002494
:104DF000BC601380016521223A60C56F002D18D078
:104E0000174AEA62154A2A63134A6A63AC63026866
:104E1000283200902846FEF75BFA014600980029E8
:104E200007D01020B860202038603446204601B0FA
:104E3000F0BD016840220A62EFF31081012282F383
:104E400010880068826880231343836081F3108890
:104E5000204601B0F0BDC046856E0008A36F000873
:104E6000596F000810B5144C6068002812D0012159
:104E70002170A268114989181318BF2B0DD882B26E
:104E80000F48FFF791FF6068A16809180020606073
:104E9000A16010BD0020207010BDC020801A82B219
:104EA0000748FFF781FF6068A1680818C038002133
:104EB0006060A16010BDC046800000207C560020CC
:104EC000F44F00207047FEE780B50748006880690E
:104ED0004005400F03D00448FEF7A8FB80BD024800
:104EE000FEF7E5FB80BDC046744F002080B5806AA8
:104EF000816B002901D000228A6301464031C26BD8
:104F0000002A01D0002393634A78602A07D1202227
:104F10004A7000220A700263FEF786FB80BD002201
:104F20000A700263FEF7CCFB80BD80B50121C90386
:104F3000806A026853680B435360102100F0FEF84A
:104F400080BD000010B50121CA03846A2168086889
:104F500090430860608D002808D0208D626A121886
:104F60006262608DFF2812D9FF2311E0626B494B0A
:104F700060209A4203462BD1474CA24204462CD1D2
:104F8000464B9A422DD10A6802430A6010BD638DD8
:104F90002385E06B2431FEF79BF9002804D0102113
:104FA000204600F0CBF810BD616B3A48081A434226
:104FB0004341394A40209142024600D09A01374B82
:104FC000994200D0104621680A6802430A6010BD69
:104FD0002023314CA2420446D2D01C462F4B9A4289
:104FE000D1D020460A6802430A6010BD10B50121E5
:104FF0008903846A2268106888431060608D0028E5
:1050000008D0208D616A09186162608DFF2812D96D
:10501000FF2311E0616B1F4B6020994203462BD1A7
:105020001D4CA14204462CD11C4B99422DD1116834
:105030000143116010BD638D2385A06B2832FEF7FC
:1050400047F9002804D01021204600F077F810BD61
:10505000616B1048081A434243410F4A4020914275
:10506000024600D09A010D4B994200D010462168AB
:105070000A6802430A6010BD2023074CA14204467F
:10508000D2D01C46054B9942D1D02046116801432D
:10509000116010BDC95D000835580008A95B000803
:1050A000F0B581B006464036717828220A4005687E
:1050B000282A1DD1A969AC69AB68EA680092FE2272
:1050C000240CC903C90FC768022F17D1DF09674035
:1050D0007C07A40F1ED0009B1340002232702A6868
:1050E000B824A2432A601A46FEF79FFA01B0F0BD29
:1050F000002030700820E86101B0F0BD002333705B
:105100002B68B826B3432B6014402246FEF78DFA75
:1051100001B0F0BD826C521C8264826C022AEBD119
:10512000054C1A4622400023836433700823EB6148
:10513000FEF77BFA01B0F0BDFF03000070B5044636
:10514000054640356A780020A870AB4BE362608565
:10515000636C0B4363646978283A022A0AD82820D2
:105160000140282916D0F2216A780240282A16D157
:10517000042215E0697821680A68FE239A430A60D0
:105180008A6992075BD48A69D2075CD06A78602A00
:105190000DD05FE042216A780240282AE8D0B4228C
:1051A0000A4321680B6893430B606870384860635A
:1051B000A06B226B00281CD0212A01D0112A18D103
:1051C0000A68520404D5012292030B6893430B60D2
:1051D000FDF78AFF01281FD000202870A06B2D4901
:1051E0008163FDF749FF002828D0A06B816B8847B9
:1051F00070BDE06B00280FD0222A01D0122A0BD1FB
:105200000A68120404D50122D2030B6893430B6091
:10521000FDF76AFF01282DD16878602808D1202089
:1052200068700020287020632046FEF7FDF970BDED
:105230000020287020632046FEF742FA70BD886285
:105240008A69D207A2D18A69012313438B616A78E4
:10525000602AACD020226A708B699B06A7D58B6927
:10526000DB0605D51023CB61636C04261E43666400
:10527000CA619CE700202870E06B06498163FDF756
:10528000FBFE0028DAD0E06B816B884770BDC0461A
:10529000E55E0008ED4E0008B0B5574AC262002234
:1052A00002630346403320245C7042639A704907CE
:1052B00012D5416A0468646A0C70416A491C4162F3
:1052C000018D002908D0448D641E4485491E018546
:1052D000416C04240C4344645978597801680C6883
:1052E000FE25AC430C601A701022CA61FEF744FA26
:1052F000B0BDC046F0B581B004682023E36102462A
:10530000403255785678212D07D128252E40F42596
:10531000ED43282E0DD0AD1C0CE0222E0FD1557878
:1053200028262E40F425ED43282E00D1B035122634
:1053300001E0B235112627682F40276006636568B3
:105340002C4E2E406660002545632B4EC662CE066D
:1053500005D51026E661466C042737434764567826
:10536000490705D5602E03D1616AC9B20091009941
:10537000A16989070BD4A169C9070CD1A1690126CC
:105380000E43A661416C5478602C08D117E0A562E9
:10539000A169C907F2D0416C5478602C0FD0002964
:1053A0000DD1517821290FD1537005631570917873
:1053B0009570402916D1FEF734FB01B0F0BD416C69
:1053C000FFF7BCFE01B0F0BD5178222910D1537017
:1053D0000563157091789570402907D1FEF720FB81
:1053E00001B0F0BDFEF7D0F901B0F0BDFEF7C6F98F
:1053F00001B0F0BD00E800FE0000FFFF10B502465E
:10540000403200239370547820215170F421C94315
:10541000212C0AD11124046343631370527828238A
:105420001340282B12D0891C11E01224046343631B
:105430001370527828231340282B00D1B031026812
:1054400013680B401360FEF799F910BDB231026882
:1054500013680B401360FEF797F910BDF0B585B0E7
:105460000D46044603681968C06A02902646403615
:10547000777820200390D861F7223A40F420C04387
:10548000212A019005D0222A05D10746083F222271
:1054900007E0871F05E0282F08D17078019F0A3F99
:1054A0000022707818683840186022630122D70300
:1054B00058680497384358605868BA4F07405F608F
:1054C0009869800711D49869C00713D097034804DE
:1054D000009716D4049801421CD01868049FB84362
:1054E0001860E76B002F12D114E0002098629869D1
:1054F000C007EBD19869104398619703480400975F
:10550000E8D51868B8431860A76B002F02D0386838
:105510004068608568070FD5606A5B6A0370606ADF
:10552000401C606204208543238D002B04D0581E4C
:105530002085608D401E6085608D002803D0606CE2
:105540000423034363641027E80643D5394041D060
:10555000608D00280ED02068C761606C0421014373
:10556000616491480299014234D1616C2046FFF791
:10557000E5FD2FE070788D4B28287FD150060299E9
:1055800081427BD1E36200202063039971706063E4
:10559000B070690712D5616A2268526A0A70616A3E
:1055A000491C6162218D002908D0628D521E6285DE
:1055B000491E2185616C04220A4362647178717806
:1055C00021680A68FE239A430A603070CF61204642
:1055D000FEF7D2F802970027B7706763606C002867
:1055E00031D0616C2046FFF7A9FD7078282866D17C
:1055F0006E48E0622763039870706763B77068074E
:1056000012D5606A2168496A0170606A401C606254
:10561000208D002808D0618D491E6185401E20859F
:10562000606C0421014361647078707820680168BF
:10563000FE229143016037700299C1612046FEF756
:105640009BF805B0F0BDE06AEA4DA8420BD1707836
:10565000039971703770276322282DD12046FEF7F9
:1056600055FA05B0F0BD20680168B770009A114284
:1056700027D1049A114228D06D4923E0707821681F
:10568000CF612928A6D102989842A3D088698007C3
:1056900001D5002088628869C007009B02D1886913
:1056A000104388610A680020B0701A4245D1049BFB
:1056B0001A4246D05E4A41E02046FEF728FA05B07D
:1056C000F0BD5A4902680A400260717829290BD15D
:1056D0002821717021222263377072780A40282AAB
:1056E00010D0019A921C0FE071782A291BD1282131
:1056F000717022222263377072780A40282A0AD0F9
:10570000019A0AE0019AB232016811400160204614
:10571000FEF7FDF907E0019AB0320168114001601F
:105720002046FEF7F3F9E56203987070377027633F
:105730002046FEF721F805B0F0BD3C4A0B68134047
:105740000B607278292A0BD12822727021232363DF
:10575000307070781040282811D00198801C10E01B
:1057600072782A2A00D035E7282272702223236318
:1057700030707078104028280AD001980AE001980B
:10578000B2300A6802400A602046FEF7C0F921E7FD
:105790000198B0300A6802400A602046FEF7B6F968
:1057A00018E7C04600E800FEFFFFFFFE0000FFFF15
:1057B000B0B501680C68024640320023937065045E
:1057C00003D4240405D51A4C00E0184C0D6825407C
:1057D0000D605478292C0CD12824547021250563A0
:1057E000137053782340F422D243282B16D0921CF6
:1057F00015E054782A2C10D12824547022250563F2
:10580000137053782340F422D243282B00D1B032B6
:105810000B6813400B60FEF779F9B0BDB2320B682C
:1058200013400B60FEF773F9B0BDC046FFBFFFFF2A
:10583000FF7FFFFFF0B581B04025435D012B02D112
:10584000022001B0F0BD0446403401232370164607
:105850000E40F70614D40F0639D52A4037D0016818
:105860000A68AA430A60458D4A68002D56D0CB4D80
:105870002A40458D2D0A6ED0FF2505851E0675E050
:1058800001681022CA61426C042515434564426BCD
:10589000554D6020AA42054623D1544EB2420646D9
:1058A00024D1534DAA4200D030460A6802430A6010
:1058B0008869800701D5002088628869C00702D105
:1058C0008869184388610020207001B0F0BD72061D
:1058D00011D4B206F7D5FFF70DFD0020207001B0FE
:1058E000F0BD2025414EB2420646DAD02E46404D4C
:1058F000AA42D9D1D9E7418D002925D101684A684A
:105900009201E0D4C26AA74DAA425DD198034A68C9
:1059100002434A600020207001B0F0BD920113D410
:105920000023A370657820226270F422D243212DD7
:1059300037D11125056343632370637828251D4003
:10594000282D47D0921C46E04021FFF7F7FB0020AE
:10595000207001B0F0BD458D0585C66A914FBE42ED
:1059600001D15E0602E0DF07C66ABE430096EFB2D1
:105970003F04BA184F688A4E3E40009F3E4316438C
:105980004E60428D521B428562780868222A01D1FE
:10599000DA0300E09A03104308600020207001B091
:1059A000F0BD1225056343632370637828251D40ED
:1059B000282D00D1B0320B6813400B60FDF7DEFEDE
:1059C0000020207001B0F0BDFFF718FD002020700E
:1059D00001B0F0BDB2320B6813400B60FDF7D4FE8E
:1059E0000020207001B0F0BDC95D000835580008E6
:1059F000A95B00080000FFFFF0B583B04024035D01
:105A0000012B02D1022003B0F0BD05464035012331
:105A10002B7016460E40F70618D4770729D4422774
:105A20000F40022F3DD1022717403AD0438D002B63
:105A30002ED00368446A26789E62631C4362038DFD
:105A40005B1E0385438D5B1E438521E004681026A1
:105A5000E661466C042737434764A669B60701D55B
:105A60000026A662A669F60712D1A6691E43A661A2
:105A70000EE0436A0468646A1C70436A5B1C4362FC
:105A8000038D5B1E0385438D5B1E43850423994371
:105A90000A40920601D5FFF72DFC0020287003B0C4
:105AA000F0BD0F0611D514400FD0448D002C02D04C
:105AB000048D002C21D016460F46016849688901E3
:105AC00013D40446FFF79AFC13E07406E0D5448D26
:105AD000002C23D0402304460E4619461746FFF7F4
